:100000006F40000213000000130000001300000006
:100010001300000013000000130000001300000094
:100020001300000013000000130000001300000084
:08003000130000007300100032
:100038000000000000000000723700007637000062
:1000480000000000663F0000000000000000000003
:10005800683F00006A3F0000000000000000000048
:10006800484B00000000000054030000000000009E
:10007800703F0000723F0000743F0000763F0000B0
:10008800783F00007A3F00007C3F00007E3F000080
:10009800803F0000823F0000843F00005E3900007E
:1000A800883F00008A3F00008C3F00008E3F000020
:1000B800903F0000923F0000943F0000963F0000F0
:1000C800983F00009A3F00009C3F00009E3F0000C0
:1000D800A03F0000A23F0000A43F0000A63F000090
:1000E800A83F0000AA3F0000AC3F0000AE3F000060
:1000F800B03F0000B23F0000B43F0000B63F000030
:10010800B83F0000D8360000BC3F0000BE3F0000EA
:10011800C03F0000C23F0000C43F0000C63F0000CF
:10012800C83F0000CA3F0000CC3F0000CE3F00009F
:10013800D03F0000D23F0000D43F0000D63F00006F
:10014800D83F0000DA3F0000DC3F0000DE3F00003F
:10015800E03F0000E23F00008C380000E63F00006E
:10016800E83F0000EA3F0000EC3F0000EE3F0000DF
:10017800F03F0000F23F0000F43F0000F63F0000AF
:10018800F83F0000FA3F0000FC3F0000FE3F00007F
:10019800004000000240000004400000064000004B
:1001A800084000000A4000000C4000000E4000001B
:1001B80010400000124000001440000016400000EB
:1001C800184000001A4000001C4000001E400000BB
:1001D8000000000000000000000000000000000017
:1001E8000000000000000000000000000000000007
:0801F8000000000000000000FF
:1002000097020120938202E0938202E0739002340D
:100210000321050022457310053079A8197102E009
:1002200006E20AE40EE612E816EA1AEC1EEE22F0E6
:1002300026F22AF42EF632F836FA3AFC3EFEC2E0F6
:10024000C6E2CAE4CEE6D2E8D6EADAECDEEEE2F0C6
:10025000E6F2EAF4EEF6F2F8F6FAFAFCFEFE1971AE
:100260002320250006C006C216CAF322003093F2EE
:100270008200638402009302000816C412C81ACCDC
:100280001ECE22D026D22AD42ED632D836DA3ADC66
:100290003EDEC2C0C6C2CAC4CEC6D2C8D6CADACC36
:1002A000DECEE2D0E6D2EAD4EED6F2D8F6DAFADC46
:1002B000FEDE03A1050009A002457310153492402B
:1002C0003785000013050580732005302245732013
:1002D00005304242D2426243F243025492542255C4
:1002E000B2554256D2566257F257064896482649AA
:1002F000B649464AD64A664BF64B065C965C265D86
:10030000B65D465ED65E665FF65F0961026092602A
:100310002261B2614262D2626263F26302749274D9
:100320002275B2754276D2766277F2770668966861
:100330002669B669466AD66A666BF66B067C967C59
:10034000267DB67D467ED67E667FF67F0961730088
:1003500020300000197102E006E20AE40EE612E81D
:1003600016EA1AEC1EEE22F026F22AF42EF632F8E5
:1003700036FA3AFC3EFEC2E0C6E2CAE4CEE6D2E875
:10038000D6EADAECDEEEE2F0E6F2EAF4EEF6F2F8C5
:10039000F6FAFAFCFEFE197116CA9302000816C49A
:1003A0009302000273A0428006C212C81ACC1ECE6D
:1003B00022D026D22AD42ED632D836DA3ADC3EDE05
:1003C000C2C0C6C2CAC4CEC6D2C8D6CADACCDECE75
:1003D000E2D0E6D2EAD4EED6F2D8F6DAFADCFEDEE5
:1003E00073110134EF00E065EF103006EF00606834
:1003F000731101341384018A032904006304090280
:1004000023200400732510342AC0138481890440FA
:1004100023A024001384C189044003A104000245E1
:10042000731015349240B78200009382028073A04B
:100430000230A24273A002304242D2426243F243EF
:10044000025492542255B2554256D2566257F25730
:10045000064896482649B649464AD64A664BF64B60
:10046000065C965C265DB65D465ED65E665FF65FB0
:100470000961026092602261B2614262D26262638B
:10048000F263027492742275B2754276D276627704
:10049000F277066896682669B669466AD66A666B18
:1004A000F66B067C967C267DB67D467ED67E667F84
:1004B000F67F0961730020300000397101436EC678
:1004C00019A0397141536AC866CA62CC5ECE19A0C0
:1004D000397101535AD056D252D44ED64AD826DA60
:1004E00022DC06DE33016140828241114AC026C20D
:1004F00022C406C68282B24D4101024D924C224C6A
:10050000B24B4101024B924A224AB249410102498F
:1005100092442244B240410182803D432A87637362
:10052000C3029377F700BDEFADE5937606FF3D8AF2
:10053000BA960CC34CC30CC74CC74107E36BD7FE3C
:1005400011E28280B306C3408A06970200009696A5
:100550006780A6002307B700A306B7002306B700ED
:10056000A305B7002305B700A304B7002304B70011
:10057000A303B7002303B700A302B7002302B70009
:10058000A301B7002301B700A300B7002300B70001
:10059000828093F5F50F93968500D58D939605018E
:1005A000D58D61B7939627009702000096968682B4
:1005B000E78086FA9680C1171D8F3E96E374C3F8D4
:1005C000A5B703A581818280634205029307803E1F
:1005D0003347F5023365F5023305F5021305753E21
:1005E0003345F5023307F7023A9582807D558280C4
:1005F00001458280014582800145828001458280DB
:10060000EFF2BFEE2964A964130404A99384C4A97A
:1006100063639400EDBD1C4011048297D5BFEFF2D7
:10062000DFEC2964A9641304C4A9938444AA636316
:100630009400F1BD1C4011048297D5BFEFF2FFEA90
:10064000F93FEF30A06FE1B5EFF23FEAB7050000E8
:1006500037850000D1471547930600200146938552
:10066000C563130505E4EF10602DEF10A03F45B5FD
:10067000EFF2BFE7EF10405EEF20301EEF003031A9
:10068000EF108057EF00307FC137EF1080573D24C7
:10069000EF1040010145A5BDEFF23FE5D13F014517
:1006A000BDB5EFF2FFE2AA89EF10E02819C1EF1003
:1006B000C0102545EF00D067444113044500639600
:1006C0008400EF104027014919A8138944FF2146EF
:1006D000CE854A85EF00206701E9EF10C02519C1DA
:1006E000EF10400F4A8539BD8440D1BF09E57D55E3
:1006F00082807D5529BDEFF25FDF2A842E85328905
:10070000AE8445377DF522852686A545EF00F06449
:100710000145231C2401230E0400231D0400D9BF1E
:10072000EFF2BFDC8357850141112A84C18B8DEB29
:100730001C558DC32EC68297AA84B24501CD2A8648
:1007400037850000A285130585E4EF00701D26851E
:10075000410175BB8357840193E70701231CF40013
:1007600083578401A18B91C78357A401E554A18BC2
:10077000F9FF5C548DC322858297AA840DE58357C7
:10078000A40193E78700231DF4008347C401850774
:10079000230EF4006DBF85679387F7F0FD8D231D51
:1007A000B4008144E9BFE957E313F5FAC9BF8347B1
:1007B000C5018DCBEFF27FD3FD1793F7F70F230E13
:1007C000F5002A84014789EF1C5989E70147231D59
:1007D000040039A082972A8775D9E957E309F5FE05
:1007E0003A8535B37D573A858280EFF21FD00347B3
:1007F000C50109E77D551D29014521A05C5999C313
:10080000829731B36955C5BFEFF23FCE0347C501AB
:1008100009E77D552129014521A01C5D99C38297D7
:10082000FDB16955C5BF0CD101458280EFF25FCAA9
:1008300093894187854A83A7418763863705EF10EF
:10084000A04183A741872A8A638D370303A4418788
:100850005C4018401309C4FE5CC398C340C000C08C
:10086000EF00B0757C5099C34A8582974A85EF00A6
:100870001060631B55014A85EF001054EF0090751E
:100880005285EF10203EBDB9EF00D0745285EF10B5
:10089000603D4848EF00303F4A85EF00305A61BF65
:1008A000EFF2BFC413844195130904011C4091C3A6
:1008B00082971104E31C24FF953FEDB7EFF2FFC2CE
:1008C00037160000B7850000930800023D489307E3
:1008D00000201387419681461306068A938505E812
:1008E0001385418DEF1000021385418DEF108017A5
:1008F00039B9EFF29FBF41112A842E8532C62EC42A
:10090000EF1020083246A24519C68547630DF60050
:1009100001454101EDBE5840938745011CC398CD68
:100920005CC0C0C9F5B71C406388870083C6550307
:1009300003C7170263FAE600D4431387450198C240
:1009400094CDD8C3DCC9E9B79C43F9BFEFF2FFB936
:100950004111B2842E8689452A8436C6EF00F03FC5
:10096000B246930744011CCC5CC8231E9400A30428
:10097000D4000145410161BEEFF29FB583A7018616
:1009800041112EC62A8491C38297EF10E02C835721
:10099000C401AA8991CFFD17231EF400EF10802C0B
:1009A00083A7C185014591CB22858297014531A05E
:1009B000B24791E7EF10002B79554101A1B6EF0046
:1009C00090772328050203469400AA85AA8413057C
:1009D00044010537B247635CF0001389C40470001A
:1009E00081454A85EF10601D4A85EF1020114E8524
:1009F000EF104027EF00D04D88585DD17DBFEFF25A
:100A0000DFAE83A781852A8491C38297EF10C0242B
:100A1000AA84484893074401630EF5003115EF009E
:100A2000B07F05442685EF10E02319C0EF00504A3F
:100A30000145F1BC8357C4018507231EF40001441E
:100A4000D5B7EFF29FAA4111EF1000211387418221
:100A500083470700850793F7F70F2300F70083A765
:100A6000C18181C72AC682973245EF10A01F41017C
:100A700079BCEFF29FA74111EF10001E138741824E
:100A800083470700FD1793F7F70F2300F70083A7AD
:100A9000018281C72AC682973245EF10A01C41010E
:100AA000BDB403C541828280937808044111639EDE
:100AB0000800A1689388C80293730801638B030040
:100AC0001378E8FF930E000219A8A168938888F8AC
:100AD000E5B713731800930E0003E30503FE1373C9
:100AE0002800630F0306635806023306C0409302D2
:100AF000D0020A8E814F294F6396E6073373D602E0
:100B00003356D602469303430300850F050EA30F09
:100B10006EFE7DF215A0137348009302B0026317B6
:100B2000030093728800B3325000960279F2930664
:100B300000032300D100854FFE8663D3FF00BE86ED
:100B400013781801158F631308046385020063533B
:100B5000E0007D172A86B308E5001303000221A8F0
:100B60008142E9B71373F600118269BF6374B6005E
:100B70002300660005063388C840E34900FF3A8633
:100B80006353070001467D173295118F6388020079
:100B90006374B500230055007D17050563870302C4
:100BA000AA96130800031DA86374B6002300D6019B
:100BB00005063388C840E34900FF3A8663530700BF
:100BC00001467D173295118FE1BF2A86B308E500F3
:100BD000CDB76374B5002300050105053386A64033
:100BE000E3C9CFFEFD56FD1F6383DF0099E7AA87A7
:100BF0003306E5001308000205A06378B50033064C
:100C0000F101034606002300C5000505E9BF63F4B2
:100C1000B700238007018507B306F640E349D0FEFD
:100C20006353070001473A9541018280EFF2FF8B41
:100C30002A84853D09C523A481826FF05F8DEF0072
:100C4000904F75D900D9D5BF0D47AA876376C700E5
:100C50009377350091C7AA873E966397C70682802F
:100C600093F7F50F13978700D98F139707015D8FBF
:100C7000B308C500AA87BD463388F84063EB060376
:100C800093574600C156B386D7029207AA970D48DC
:100C900036963383C700BE86B308D3406362180319
:100CA00013572600F156B306D7020A07BA973696AD
:100CB00065B798C3D8C398C7C10723AEE7FE6DBF19
:100CC000910623AEE6FEC9BF8507A38FB7FE71B7B5
:100CD00063F3A504B386C500637FD5029345F6FF91
:100CE0008147FD176393F50082803387F600030880
:100CF00007003387C7002A9723000701DDB7338732
:100D0000F500830607003307F50085072300D700A9
:100D1000E317F6FE82808147E5BF0DC6AA878505E9
:100D20000387F5FF85079306F6FFA38FE7FE09EB20
:100D30003E9685076393C7008280A38F07FED5BFC9
:100D40003686F1FE828001476314E600814705A0E4
:100D5000B307E50083860700B387E50083C7070074
:100D6000B387F640E207E18799E30507F1FE3E8588
:100D70008280AA870387070001E73385A740828026
:100D80008507CDBFEFF2EFF32E89B30B250141119B
:100D90002A8CB68563F5AB001349F5FFFD5BC1698D
:100DA000378A00006284930AB002130B0002FD1917
:100DB000130A4A0239A813075002638AE7026374D0
:100DC00074012300F40013051400B2841386140088
:100DD0002A8483070600E5F363060900637474310F
:100DE000230004003305844141016FF00FF10148F5
:100DF0001307D002930630021305000331A0639E4F
:100E000057011368480026868307160093041600CE
:100E1000E397E7FE13680801FDB763956701136860
:100E20008800D5B76395D70013680802E9BF6395BA
:100E3000A70013681800C1BF138707FDA54663E626
:100E4000E6040147A546294539A03307A7028504D2
:100E50003E97130707FD83870400138607FDE3F61B
:100E6000C6FE038604009306E002FD57631FD60406
:100E700083871400254693861400138507FD636756
:100E8000A60A8147254529433DA09306A0027D5728
:100E9000E399D7FC9841930426009105E35307FC9E
:100EA0003307E040136808016DBFB387670285060A
:100EB000B297938707FD03860600930806FDE37645
:100EC00015FF63D307008147B684838604001306A9
:100ED0008006014593F8B6FF6395C80013F5F60F39
:100EE000850403860400930690066305D60663C74F
:100EF000C60693068005630CD61C63C5C60493071B
:100F00005002630FF61A63767401930750022300B0
:100F1000F4008387040013051400638E071A6374BA
:100F20007501A300F400130524004DB51306A002BB
:100F30006397C7009C4193862400910559B7B684F6
:100F4000814761B7930630066302D60893064006D0
:100F5000E31BD6FA13682800A94699A09306300728
:100F60006306D60C63C5C6029306F0066307D61661
:100F700093060007E319D6F8FD566315D7001368EA
:100F800018002147938C4500C14690411DA8930647
:100F90005007E303D6FC93088007C146E31516F714
:100FA0001306C006938C4500E301C5FE13068006B8
:100FB000E31DC5FC904193752800639205123376BA
:100FC0003601DE852285CD34E68509B51378080122
:100FD00063160802BA879306000231A06374740195
:100FE0002300D4000504FD17E34AF0FE9307F7FF42
:100FF0006343E00005473387E740050793874500D3
:101000006375740194412300D400130514002297E2
:1010100013060002B306A7406344D000BE857DB32B
:10102000637475012300C5000505EDB783AC0500A9
:10103000138D450063930C00D28C66853EC63AC47E
:1010400042C2053BB247AA86124822476355F000C8
:1010500063D3A700BE8613780801631F0800BA8710
:101060001306000239A0637474012300C400050450
:10107000BA877D17E3C9F6FE814763C1D702B687F9
:1010800063D3060081473305F4002A971306000254
:10109000B307A74063C0F602EA850DBB3306F40030
:1010A00063787601B385FC00838505002300B600D4
:1010B0008507E1B7637475012300C5000505C9BF45
:1010C000637474012300C4001305140001B3136892
:1010D0000804C146F1B5FD14D5B9A146D1B5420603
:1010E0004186C5B5A38F0BFEF5B903A5C1828280E9
:1010F000EFF2AFBF03A9C182EFF0AFDA11CD1384D5
:10110000C182AA84084019C1EFF06FEA9305300448
:101110002685EFF0EFE004C04A856FF04FBF828074
:10112000397126CA2ED232D436D62A865410930567
:10113000F007138541B63EDA36C606CE22CC3AD841
:1011400042DC46DE8131AA8603A5C18209E9138506
:1011500041B6F137F2406244D24421618280268652
:101160008354A5011384C18293E70404231DF50071
:101170009307F00763F4D7009306F007138641B690
:101180008145EFF06FE81C40239D9700E1B7EFF237
:10119000CFB5378500001305C5F9593737850000ED
:1011A000130585FAB53F3787000037850000130720
:1011B000C7FC8D4605468D45130585FD953737855A
:1011C0000000130585FFA93F6FF06FB431C9A16618
:1011D0001377F50F938686E811C7BA9603C5060004
:1011E00005058280C167938707F0E98F89CB218548
:1011F0001377F50F36970345070025058280B7075B
:10120000FF00E98F89CB41859377F50FB69703C52A
:101210000700450582806181369503450500650517
:10122000828003A741835C41BA976306F50283D6A7
:10123000270095E283A60183638FF600938681835E
:1012400090426313F60088C2D44354C1DC43B30612
:10125000E540BA9794C71045B307C7006300F5028D
:1012600083D6270081EE938681838C426393A50009
:101270009CC25441D4C35C413E9710C78280EFF2B8
:10128000CFA683A501843785000013050504493DD9
:1012900083A5C1843785000013054505513583A515
:1012A000C18337850000130585069D3D6FF02FA68D
:1012B000EFF2AFA313F7C5FFE1462E8663F1E60612
:1012C00093073500F19B930687FE63EAF6041D8FB2
:1012D000130687FE23A0C1848966511713844183B6
:1012E000938606EAD8C394C323A407001CC0BA9708
:1012F00023A8F182C966938606EAB785000094C3E5
:10130000D8C398C78146054693850510138541BE0D
:10131000EFF0CFE3184023ACE1826FF04F9FAA8536
:101320003785000013058510E53BC5BFEFF2EF9B45
:1013300039C503A70184130435007198138901840A
:101340008144636A870EB1476373F4003144FD55ED
:10135000138541BEEFF04FE283A7818383A54183CC
:101360008328090026853386B740B38688401388D2
:1013700081836368D600138541BEEFF04FE8814456
:101380005DA8B384C50003D7240003AE440061EB1D
:101390003307CE40930F47FF63E38F0C138FC18455
:1013A000938EC1831303840183260F0083A30E0051
:1013B0001389C1849382C18363E26F081307C40059
:1013C0003297896E3383E500938E0EEA2322C301A0
:1013D0002324C3002320D3010546D8C02391C40091
:1013E00003264300B108630416012E9618C613871E
:1013F000C60022972320E90063F4E30023A0E20063
:101400000967130707EA2390E400639B970083A60C
:101410000183014703D627000DEE19C32320F800EE
:10142000138541BEEFF0AFDD83A78184B10481C78E
:10143000A2852685829726856FF06F8D05463697A3
:101440002391C4002320EF00E3FCE3FA23A0EE0085
:1014500045BFE384D7FCDC430547AE9765BF728682
:1014600009BFEFF28F883306B5024111328532C6CB
:10147000753D2A8409C532468145EFF0EFFC22858F
:1014800041016FF0CF8845C5EFF28F8483A7418477
:101490002A8491C3829783A741831389418363661A
:1014A000F40883A701836372F408FD55138541BED8
:1014B000EFF08FCC835764FF930944FF81CB035730
:1014C00044FF8967938707EA6301F70237850000C5
:1014D0001305450BB131835644FF035664FF37852E
:1014E0000000CE851305050D25398967938707EA26
:1014F000231AF4FE938781839843231B04FE63F42D
:10150000E90023A037011387C1841C43832684FF8D
:101510004E85958F83260900B386D940B6971CC3A4
:101520000933138541BEEFF08FCD6FE0BFFD8280A0
:10153000B7070020938607000147938707002146DD
:101540008C426396A500131547003E9582800507DF
:10155000C106E317C7FE01458280EFE27FF72A84C8
:101560002E85AE89328AE9372A89812C8324490065
:10157000930749006390F404B12C93E909F823041C
:1015800034012146D2852285EFF02FF983A701850A
:1015900099C322858297EF00206C032749009307A7
:1015A000C4005CC358C42322F90004C8EF00806B58
:1015B0006FE05FF584407DBFEFE23FF383A7418595
:1015C0002A8491C3829723040400EF00E068544406
:1015D00018489307C400D8C214C31CC85CC4EF00E9
:1015E00060686FE0DFF2EFE2BFEE2E89AA898937EB
:1015F000AA844845253B2A841DCDD0448145EFF07F
:10160000AFE4214623043401A3040400CA852285E3
:10161000EFF0AFF083A7018599C322858297EF0091
:10162000A063D8409307C40091045CC358C49CC015
:1016300004C8EF00206322856FE0DFECEFE2FFEAF1
:1016400083A741852A8491C3829723040400EF0075
:10165000A060544418489307C400D8C214C31CC8DF
:101660005CC4EF0020602285393D6FE05FEA03052E
:1016700085007D81828023980186938741C01387EE
:101680000708DCC39CC3A107E39DE7FE3D47238217
:10169000E18623A4018623AE018693874187DCC3BC
:1016A0009CC38280EFE27FE403A5C187EFF01FB205
:1016B0007D1593173500138541C03E9508411307EA
:1016C000C5FE210523A4E186EFE09FB36FE03FE470
:1016D000EFE2BFE15123839701872A89B1E703A590
:1016E000C187EFF0BFAE7D1513173500938741C05A
:1016F000BA9784439387818680439385C4FE6305AC
:10170000B4028CC383A7C1862382A18699C3228594
:10171000829783C741821305C4019385840093F7A0
:10172000F70F99E7EFE09FAF4A852D2B6FE03FDE83
:101730002D2BDDBFEFE27FDB2A84392B8347440367
:1017400093064401C19B93E71700230AF4028347E1
:10175000540313973700938741C0BA97D84314C3F3
:1017600018CCD4C35CC89387C1879443185C558F49
:1017700098C3CD296FE0BFD9EFE23FD72A84E9298A
:10178000184C544893074401D8C214C35CC81CCCFD
:101790008347540313973700938741C0BA97984300
:1017A000631AF7001387C1871C5C144393C7F7FFC4
:1017B000F58F1CC345296FE09FD5EFE21FD3692940
:1017C0009387018703D7070005072390E70059296E
:1017D0006FE0FFD3EFE27FD1412113870187835769
:1017E0000700FD17C207C1872310F700634BF00005
:1017F00023100700852983A7818691C3D13D6FE01F
:101800001FD18D21EDBFEFE25FCE03A48186A92118
:10181000AA84228595379147230AF4021305C4044C
:101820007D2C2285A9358547631BF5003C5C81EB47
:101830002285593326853D21613D6FE05FCD83A62A
:1018400041871307440123AAE186D8C293874187C1
:1018500054C81CCCC5B7EFE25FC92A8451054111B9
:1018600008CC48C80CD050D014D43A8658D493052C
:10187000300236853EC642C4EFF00FBD58541054B6
:101880004C5008507117B72600003A969386668030
:10189000952EB24722483726000048CC230BF4028D
:1018A000A30AF402232C04028147232204052324E3
:1018B000040523280402230A0402232C0406232EF1
:1018C00004060147A2861306468EA2851305C404AA
:1018D000C92A83A7018899C32285829701454101BE
:1018E0006FE0FFC2EFE27FC05049144D795718D91D
:1018F00054C21307450190C218CD58C9253DC93BB4
:101900006FE0FFC0EFE27FBE4111B2842E868545B5
:101910002A84368946C03AC63EC442C2EFF0FFC3AD
:10192000024892472247B2464A86A6852285253735
:1019300041016FE0DFBD03A581868280EFE25FB9E0
:1019400041112E89AA85054532C6B684BA893E8AD8
:10195000EFF07FC92A8411C92685EFF03F9D3246FA
:1019600009E92285EFF09FCD0144228541016FE016
:101970007FB9AA865288CE872687CA852285E13D0F
:10198000EDB7834745030547BD8B639EE702EFE252
:10199000DFB52A84D12483474403AA842285C19BCE
:1019A00093E72700230AF402C13B1305C404D92A94
:1019B00026854D2C83A78188014581C72285829782
:1019C00001456FE0DFB47D558280EFE21FB2411127
:1019D0002AC6592403A481862A8922855D37930467
:1019E000C404700081452685C92A2685012A4A85B6
:1019F000952CEFF0FFCD1858F9576314F700232802
:101A00000402014541016FE09FB0EFE21FAEEFE03D
:101A1000BFBB653F6FE0BFAF834745030947BD8B41
:101A20006390E704EFE27FAC2A843D245448184CCD
:101A300093074401AA84D8C214C31CCC5CC8130504
:101A4000C40489222685392C2285EFF0BFCE83A7D6
:101A50004188014581C72285829701456FE03FABF0
:101A60007D558280EFE27FA88346650305473317E3
:101A7000D70018DD0947A30AD502230AE502693F0A
:101A800083A7818699C3EFF0BFC401456FE03FA8EB
:101A90005449184D93074501D8C214C31CCD5CC9E5
:101AA0008280EFE29FA44111B2842E86A9452A8448
:101AB00036C63AC43EC2EFF05FAA9247B24622470A
:101AC000F99BA304F4009307440144CC14D02324CD
:101AD000040258D01CCC5CC841016FE05FA3EFE268
:101AE000DFA02A84952AAA8422855D3726859D2A2F
:101AF0002285EFF07FAC01456FE07FA1EFE2FF9E12
:101B00002A84992AAA8422856137834794002685EE
:101B1000F99BA304F400B92283A7C18599C3228548
:101B20008297EFE01FAA5C503E9508D435221387B8
:101B300001890328470037060080938701891346EF
:101B4000E6FF98436317F8029386C1889042050622
:101B500090C29306440154C358C894C31CCC834715
:101B6000940093E71700A304F400ED2801456FE00B
:101B70001F9A544B0C546385B6008D8EE376D6FCC9
:101B8000BA87C1B783479500858B95C7EFE2FF956C
:101B900083A781852A8491C382977D28AA84228580
:101BA000C53D2685C120834794000145F99BA304C8
:101BB000F4006FE0DF957D55828085476382F502F2
:101BC00063C5B7008DC10145828089476380F502F6
:101BD0008D47E39AF5FE8347950093E7270011A808
:101BE0005C511CC2CDB71C425CD1F1BF834795004C
:101BF000F59BA304F500C1BF93870189DCC39CC397
:101C0000828082801106719A2A8837C7ADDE13055B
:101C100006F0AA871307F7EE631EF600A167938705
:101C200007882322D6F02324B6F2232006F12324AA
:101C3000F6F0828098C39107C5B737F700E01C43E0
:101C4000B7060080D58F1CC3828037F700E01C43A5
:101C5000860785831CC38280216513050580731563
:101C600005308280731005308280EFE21F88138771
:101C7000018A18439387018A19E323ACA18823AE14
:101C8000B188054798C3553F6FE07F882A87814711
:101C900018436314A7003E8582808507D5BFB70728
:101CA000EFBE37E700E0938707083CC70145828015
:101CB000EFE2BF833785000013054514EFF04FC6F0
:101CC00001456FE0DF84EFE25F822A84FD5437999B
:101CD00000007D14631494006FE07F831305C98AAC
:101CE000EFF00FC4FDB7EFE2AFFE0041AA843799D1
:101CF0000000B7990000631494006FE0BF80930563
:101D0000C4FE1305098BEFF0AFC11C40638697003A
:101D10001385498BEFF0CFC00040F1BFEFE2EFFC3D
:101D20002E89EFF00F852A84EFF03FA98324090064
:101D3000639C2401EFF01FAAA14763C3870011E051
:101D4000214422856FE0AFFC138544FFEFF06F82E2
:101D50006353A4002A848440E1BFEFE28FF6054577
:101D6000EFF00FFDB7890000130945002A84CA85EA
:101D70001385893F6537AA85AA84378500001386B5
:101D8000893F13050540EFF0AFB926852D3F378514
:101D9000000013054544EFF0AFB84040B78900009C
:101DA000054A894A378B0000B78B0000378C00004A
:101DB000B78C0000378D00006315890001456FE086
:101DC000CFF30347940213854948930644FF214605
:101DD000A685EFF0EFB48347840213850C49BD8BD1
:101DE000638E47011305CC49638A570113858B4ADB
:101DF00091C711476396E70013054B4BEFF04FB2C5
:101E00004C4C93073002AE8603C706006306F70208
:101E10001050930740060848B295B386D540B38664
:101E2000F602585C5C50898D13050D4CB3D6C60282
:101E3000EFF00FAF004049B78506F9B7EFE24FE981
:101E400041110945EFF0CFEE9309450037890000B5
:101E50002A84CE8513058939EFF05FECAA85AA8420
:101E600037850000130689391305453AEFF04FAB6B
:101E70002685EFF05FE5378500001305053CEFF0A0
:101E80002FAA4040378A0000B78A0000378B000035
:101E900063968900014541016FE0CFE603570401D5
:101EA0001C44930644FF1309840036C63AC44A858D
:101EB0006306F902EFF09FDD2247B246AA8721466A
:101EC000A68513858A3DEFF0AFA54A85EFF0BFE107
:101ED00013054B1CEFF0CFA400405DBFEFF01FDBFC
:101EE0002247B246AA872146A68513058A3EEFF00F
:101EF0002FA3DDB7EFE2CFDD41111145EFF04FE346
:101F000093094500378900002A84CE851305C91D31
:101F1000EFF0DFE0AA85AA84378500001306C91D0B
:101F20001305451EEFF0CF9F2685EFF0DFD93785EB
:101F3000000013058520EFF0AF9E4040378A000077
:101F4000B78A0000378B0000639689000145410184
:101F50006FE04FDB1C4413098400930644FF1848CC
:101F60006309F9024A8536C63AC4EFF03FD22247E8
:101F7000B246AA872146A68513858A22EFF04F9A9A
:101F80004A85EFF05FD613054B1CEFF06F990040C8
:101F900065BF2146A68513050A24EFF06F98C5BFDB
:101FA000EFE20FD341110D45EFF08FD8B789000054
:101FB000130945002A84CA8513854933EFF01FD6DB
:101FC000AA85AA8437850000138649331305C533D3
:101FD000EFF00F952685EFF01FCF37850000130532
:101FE0000536EFF0EF934040B78900006316890093
:101FF000014541016FE00FD1930644FF13058400B2
:1020000036C6EFF0BFC8034834015C48B246AA8820
:1020100021472146A68513850938EFF06F900040CF
:10202000F1B7EFE2EFCA41111545EFF06FD0930918
:102030004500378900002A84CE8513054925EFF035
:10204000FFCDAA85AA84378500001306492513050C
:10205000C525EFF0EF8C2685EFF0FFC63785000031
:1020600013050528EFF0CF8B4040378A0000B78A70
:102070000000378B000063968900014541016FE045
:102080006FC803576401835744011044930644FF0B
:102090001309840036C63AC43EC24A856307C902A2
:1020A000EFF0DFBE92472247B2462A882146A68536
:1020B0001385CA29EFF0CF864A85EFF0DFC21305FA
:1020C0004B1CEFF0EF8500407DB7EFF03FBC92472F
:1020D0002247B2462A882146A68513054A2BEFF0EF
:1020E0002F84D5B7EFE2CFBE41111945EFF04FC4B1
:1020F00093094500378900002A84CE851305C92C31
:10210000EFF0DFC1AA85AA84378500001306C92C29
:102110001305852DEFF0CF802685EFF0DFBA3785E8
:1021200000001305452FEFE0BFFF4040378A000055
:10213000B78A0000378B0000639689000145410192
:102140006FE04FBC035784011C44930644FF1309FE
:10215000840036C63AC44A856306F902EFF01FB31D
:102160002247B246AA872146A6851385CA30EFE0EA
:102170003FFB4A85EFF03FB713054B1CEFE05FFADA
:1021800000405DBFEFF09FB02247B246AA872146CC
:10219000A68513050A32EFE0BFF8DDB7EFE24FB3D3
:1021A0005D712545EFF0CFB8A165130600052A84BF
:1021B00013094500938505DF0A85EF409008B7892C
:1021C0000000CA8513854917EFF05FB5AA85AA8478
:1021D00037850000138649171305C517EFE05FF434
:1021E0002685EFF05FAE378500001305451AEFE056
:1021F0003FF34040D149378A00006316890001450A
:1022000061616FE02FB01C44930644FF63E1F90263
:1022100098088A07BA9703A707FB8347040121465A
:10222000A68513058A1CEFE0BFEF0040F9B74647CB
:10223000EDB7EFE2EFA92945EFF08FAFB7890000C6
:10224000130945002A84CA851385894EEFF01FAD16
:10225000AA85AA84378500001386894E1305054F89
:10226000EFE01FEC2685EFF01FA637850000130571
:102270008551EFE0FFEA4040B7890000378A00004F
:10228000B78A0000631E8900EFE0AFB3AA853785E7
:10229000000013050557EFE0BFE801456FE08FA68A
:1022A0005C4C184C1385C953930644FF2146A68500
:1022B000EFE01FE78347D4FF13854A55858B99E3E9
:1022C00013050A56EFE0DFE500406DBFEFE24FA0D7
:1022D000378500001305C514EFE09FE403A4818A4D
:1022E000B7890000378A000083A7C18A6365F400BC
:1022F00001456FE02FA10440094693850916268504
:10230000EF40301619C55040A68513054A16EFE078
:102310003FE13104D1BFEFE2AF9B379500001305D9
:1023200005A1EFE0FFDF03A4818AB7990000379A87
:10233000000083A7C18A636BF40037850000130592
:10234000451CEFE0FFDD01456FE0CF9B04401946DF
:102350009385C9A22685EF40D01001E950409385AE
:10236000640013054AA3EFE0BFDB3104D9B705458C
:102370008280EFE2EF9579712A84AA959306000294
:10238000254783070400B38485406385D70A6383A8
:10239000E70A0145638B0410014913070002A546B3
:1023A000B307240183870700638AE7086388D70897
:1023B0006314990883A9818A83AAC18A379B000084
:1023C00063F0590903AA090019469305CBA2528567
:1023D000EF40300959E54A86A28513056A00EF40AF
:1023E000500841E14A9A83076A00A5EF83A9890052
:1023F000638809041306800281452800EFE0EF910D
:1024000013098100CA86A28701450147130800020B
:10241000A548294313062002130EC0058385070033
:102420006384050163961505631F9702A94763033B
:10243000F50469A80504B1B705099DB7E31C09F6C1
:10244000A287038707001377F7FD79E73795000028
:102450001305859F23800700A285EFE07FCC7D5583
:10246000A9A0B109B1BF23800700050785077DB783
:1024700063106504379500001305459DEFE05FCAC2
:102480000018B7940000832509001385449F1109A3
:10249000EFE01FC9E31989FE378500001305451CCD
:1024A000EFE01FC829452C00829945616FE08F85B8
:1024B000637E970005056392C504850705079CC2E6
:1024C000838507006381C5026364970069FD8DBF42
:1024D000838E17006396C5016394CE0085070507B8
:1024E00085070507F1BFE37397FE23800700050703
:1024F00085079106E36497F2D1BF9CC283850700EC
:102500006389050163871501E30297FC85070507C9
:10251000F5B7E36097FE5DBF850725B7EFD27FFA79
:102520008307050099E781450145EFF0DFDE6FD0B5
:10253000DFFC03AA818AAA8981440149379B0000F4
:10254000B79B000083A7C18A6369FA00EDD04A8671
:10255000A6854E85EFE06FFCD9BF03240A0019461B
:102560009305CBA22285EF40C06F21E14E85EF405D
:10257000206E19042A86A2854E85EF40806E15E5EF
:10258000631709002285EF40A06C2A89A284A687E0
:1025900022870386070001EE858F63D327013E89DA
:1025A000A2851385CBA3EFE0BFB7310A61BF8306D5
:1025B0000700FDD2E312D6FE85070507D9BFEFD28B
:1025C000DFF2EFF08FF901456FD07FF4EFD2FFF12A
:1025D000EFE0FFCA01456FD09FF3EFD21FF103A5D3
:1025E000418AEFE0CFC101456FD07FF2EFD2FFEF1C
:1025F000B7A700009387C79323A4F18AB7A7000069
:102600009387C7A823A6F18AB7A700009387C7A816
:1026100023A8F18AB7A700009387C7A893050021D4
:10262000054523AAF18A1384418AEFE09FE308C09D
:1026300019E937950000130505AFEFE07FAE7D5433
:1026400022856FD0DFECB725000037950000A94741
:102650002D479306004001469385C576130585B046
:10266000EFF0CFADAA840840B7950000814601463F
:10267000938505B1EFE08FAD0144F9D02685EFF0E9
:102680006FBE7DBFEFD27FE6EFF07FCE0DC5B79571
:1026900000009385C5AB138541C8EF40405AB795FC
:1026A00000009385C5AC138541C8EF4040571385A2
:1026B00041C86FD0DFE5B7950000938545ACE1BF19
:1026C000EFD2BFE22A84379500001305C5B2EFE0D0
:1026D0003FA5EFF03FFBAA85379500001306A41B2A
:1026E000130545B3EFE0DFA301456FD05FE2EFD202
:1026F000DFDF41112AC6EFD0DFFAB24511E9379585
:102700000000130505ADEFE0BFA141016FD03FE030
:1027100083A7418AAA841384418A83A7C720E386BA
:10272000A7FE93053014EFD0BFFF65F11C4003A551
:10273000C72009C9EFE0AF871C40814503A5C7202A
:10274000EFE06F8E00401306000581451305A41BC2
:10275000EFD0BFDCB72500002315042023269420EA
:102760009385A55D2685EFE00F8C45B7EFD2FFD4AA
:1027700083A7418A41119384418A03C747021367A3
:1027800017002382E70283A7C72091E7EFE0FF95B8
:1027900019C1EFF0DFF5EFF0FFEEEFE07F98379B28
:1027A0000000B79B0000B7990000378A0000B79A75
:1027B0000000379C0000B79C00009C408546130633
:1027C000F10003A5C720FD55EFE02F828547631A6E
:1027D000F5000309F100ED4780406319F90008D0C6
:1027E000E9BF8840FD55EFE02F99C1BF1C506392AF
:1027F000A7029307B0056315F90089471CD075BF80
:1028000023200402E30B09FAA547631BF9120149CF
:10281000CDA00947E398E7FE2320040293071004A4
:102820006314F90483556402C9D9FD15C205C18139
:102830002313B4029307A41B13070005B385E50215
:10284000130600053E859385A502A295EF40601F03
:10285000EF4000401375F50F2305A420A305A42025
:102860002285EFF0FFE591BF930720046316F9027C
:1028700083568402835764021387F6FF63DAE70006
:1028800085072313F4029307A41B835564026DB7D5
:102890008DD62313E402C5BF930740046310F902E9
:1028A0008347B42099DB138589B1EFE07F87984097
:1028B0008347B720FD17A305F72001B7930730041E
:1028C000E312F9F48347B4200347A420E3F7E7EECB
:1028D0003E948305A41B1385CAB1EFE07F84984022
:1028E0008347B7208507C1BF138589B1EFE05F83B8
:1028F000050980408347B420E348F9FE13054A1CCC
:10290000EFE01F82EFF0BFA685471304A41B6315F9
:10291000F5002285EFF09FC0EFF0DFD62286AA8572
:1029200013854CB3EFE0CFFF80401305A41BEF40AD
:1029300020321375F50F2305A420A305A420B5BDEF
:102940009307F0076305F900A1476315F90883476A
:10295000B420E38407E60346A420FD1793F7F70F9E
:102960007D161376F60F2305C420A305F42063F823
:10297000C7049385B71B1385A71B1D8EA2952295AF
:10298000EFE00FB59C4013850BB203C7A7203E971D
:10299000230D071A83C5B7209385A51BBE95EFE0CD
:1029A0002FF89C4003C4B7209C4083C7A720E3C6F0
:1029B00087E0138589B1EFE0AFF60504F5B713059D
:1029C0008BB2EFE0EFF59C4003C7A720BA97238DA9
:1029D000071AE5B335478347A4206305E900294773
:1029E0006313E910A1CF035984029147130DA41B6F
:1029F00063FE2709930DA41613060005EA856E856C
:102A0000EF40C00105CD1309A4024A851309090549
:102A100013060005CA85EF40C002E3982DFF130698
:102A2000000581456E85EFD05FAF0346A420EA859F
:102A30006E85EF40000195472314F402835784020A
:102A40002313F402EFF0BF9285476312F5029C4016
:102A500083C74702858B89C713054A1CEFE04FECFB
:102A600088408345A5201305A51BEFF09F90EFF04C
:102A70007FC1EFE0EFEA80401306000581451305B2
:102A8000A41BEFD09FA92315042005BB63010902F5
:102A90001305F9FF930700053305F502130600053A
:102AA000EA851305A5022295EF30507741D9930DA1
:102AB00000053305B9031306000581451305A5027A
:102AC0002295EFD09FA5035584020346A420EA85F2
:102AD0003305B5031305A5022295EF309076835791
:102AE0008402850791BF1307F0046374F700230580
:102AF00004200346B4208347A4206370F60893059E
:102B0000A61B1305B61BA2953386C7402295EFE09E
:102B10002F9C8C4083C7B5203387F500230D271BDE
:102B200003C74502058B01CB9387A71BBE951305F1
:102B30000C8BEFE0EFDE9C4003C4B7209C4083C7C2
:102B4000A7206346F40298408347A7208346B72016
:102B50008507850693F7F70FA305D7202305F720F0
:102B60009306F004E3FBF6C423150720B9B11385DF
:102B700089B1EFE0EFDA0504D1B7A297238D271BC7
:102B800083474402858BE1D3CA851385CAB1EFE040
:102B90002FD955BF7C4123280504232A05049C43D3
:102BA00081CBEFD29F949305850482976FD03F9697
:102BB00001458280EFD2DF9136898DCEAA8432849E
:102BC000B309D600294A83470400639C470183D791
:102BD000A40193F7070491C7FC40B54526859C479F
:102BE0008297FC408305040026859C470504829754
:102BF000E31B34FD4A856FD0FF90EFD21F8F93F710
:102C000005102A8499C7035785016155137707106A
:102C100049C713F7054019C7035784016155137756
:102C2000074025CF13F705049304000409E78354F4
:102C3000A40193F40404384893F5F50F231DB40060
:102C400039EFB1C768442981420541813105EFE080
:102C5000EFED70442A89310529824206418281457F
:102C60002320A900EFD05FFE232209008357A4018F
:102C7000232409002328240593E70710231DF400CB
:102C80007C4013060010C145DC43228582978357A0
:102C9000A4010145DD8C231D94006FD05F87E5DB27
:102CA00093E50510231DB400DDB70948AA876383A7
:102CB0000503EFD29F830D48638605030547639E96
:102CC000E504035785011377F7FD231CE500014553
:102CD0006FD0FF830357850113670702231CE500AC
:102CE00001458280328765D6504274458345C501CF
:102CF0002982A9824206C2064182C1826304D600AB
:102D00001D45F9F51443B4C75443F4C7E9D1F4435E
:102D1000BA853E85944282965DBF7C41DC438297B2
:102D200045BFEFD2EFFA3684A9CE8357A501AA8911
:102D3000328993F70710B6849DE37D5AA94A83A789
:102D400049044E85DC478297630945012300A900A9
:102D5000FD14050963035501FDF0058C1DA02449F0
:102D6000368A854AEFE05FEF83D7640003D74400DB
:102D70002A869444631AF70081EAEFE0BFEE330439
:102D8000444122856FD00FF898403E97034B0700CF
:102D900003A7C9048507C2072983C1834207239378
:102DA000F400418363E4E700239304006394560135
:102DB00023A404003285EFE0FFEA7D1A23006901B5
:102DC0000509E3110AFA65BF0347C501854763EFAB
:102DD000E7028357A50193F707108DCBEFD2EFF0F1
:102DE0002A842849EFE02FEA8357A401232804040A
:102DF0001306001093F7F7EF231DF4007C40C54540
:102E00002285DC43829701456FD06FF001458280B7
:102E1000EFD2AFED37370000130747B918D5373772
:102E200000001307A7BF58D537370000130787DC0A
:102E300018D937370000130727D258D93737000081
:102E4000130747BB18DD373700001307A7CA420630
:102E500058DD34C14182232A0500232005022322A4
:102E60000502EFD0BF886FD08FEA93F5F50F854745
:102E70006399F50AEFD2CFE520494111AA847D5923
:102E80008549FC402685DC4782972A8A630D250503
:102E9000EFE09FDC035744001C40BA9723804701B2
:102EA00083574400F8448507C2072983C18342073A
:102EB0002312F400418363E4E700231204008356E5
:102EC000640083574400639DD7008507C207C18310
:102ED0002313F4002324340163E4E70023130400E4
:102EE000EFE05FD879BF9C5095C3EFE0FFD6035762
:102EF000440083556400636EB700B305B7402EC627
:102F0000EFE05FD69C50B2452685829741016FD095
:102F10006FDFFC44998DA983C207C183B385B74095
:102F2000F9BF828011CEEFD24FDC7841B28783D5D2
:102F30000700184303562600029701456FD02FDD86
:102F40007D558280EFD26FDA138781D078432E8649
:102F5000AA851843138581D002976FD04FDBEFD23B
:102F6000CFD8138781D078432E86AA8558431385FE
:102F700081D002976FD0AFD9EFD22FD7138781D0EE
:102F80007843AA85138581D0184702976FD02FD830
:102F900015C611476394E602EFD22FD57C418355C5
:102FA000060041119C4736C632C482972246B2467B
:102FB0002311A600368541016FD06FD58146368535
:102FC00082800DC6B28711466392C602EFD2EFD15E
:102FD000784103D6270083D507005843411136C6F0
:102FE0000297B246410136856FD06FD28146368551
:102FF0008280EFD28FCF938781D04947D8CB3737A4
:103000000000130707F9D8DB37370000130727FC48
:1030100098DF37370000130747F2ECC3B0C3AA8527
:103020000D46138581D023A0070223A2070223A403
:10303000070223A6070223A80702D8DFEFD00FEB71
:1030400001456FD0CFCC3705002013050570828075
:1030500037150020130505708280EFD20FC9B7071E
:10306000002003A7071B9307803EC1563357F70282
:10307000B7E700E02386D7402387D740856623A0A3
:10308000D710916623A0D710B7F700E023A0070060
:1030900023A20700014690C78146D4C78146130684
:1030A000F7FF90CBD4CB3D4798C3EFD06FD5EFF06F
:1030B0009FF92A84EFF0DFF9AA852285EFE04F9F80
:1030C000379500001305C5BAEFE08F826FD02FC48B
:1030D00081478546130700023396F6006306A60073
:1030E0008507E39BE7FEFD573E858280EFD2EFBF69
:1030F000854513050002EF1080766FD04FC1EFD2E7
:10310000CFBE85452145EF1080756FD04FC0EFD2FF
:10311000CFBD85451145EF1080746FD04FBFEFD202
:10312000CFBC85454145EF1080736FD04FBEEFD2C5
:10313000CFBB854513050004EF1060726FD02FBD23
:10314000EFD2AFBAA565379500000146938545BB20
:103150001305C529EFF0FFE96FD06FBB9307400659
:1031600063ECA7009317450025651305C5C43E957C
:103170001841FD576313F70001458280EFD2EFB687
:10318000411113F5F50F32C6EFF05FFD19C58355F8
:10319000C50032460845EF10E04A41016FD02FB715
:1031A000EFD2AFB413F5F50FEFF05FFBAA8701453F
:1031B00091C783D5C7008847EF1020486FD02FB53F
:1031C000EFD2AFB2011113F5F50F3284EFF01FF912
:1031D0000DC55C412AC6829732455C45231AF10031
:1031E000C1473ECE8D473ECC09C41547631AE40063
:1031F00002CE08454C08EF10203805616FD02FB182
:1032000005476315E40091473ECEE5B76315F4002A
:1032100093078002D5BF89476315F40093078004A4
:10322000E5B791476314F400D147F9BF9947631498
:10323000F400F147D1BF9D47E31DF4FAE147E9B738
:10324000EFD20FA913F5F50FAE84B289368A3A8909
:10325000EFF0DFF0994739CD4845EFF07FE73D4784
:103260002A8499476368A704EFE01F9FB146B3061D
:10327000D402B7070020138707082A869387070818
:10328000369783160700639096024C43639D450171
:103290008355270063993501184763162701EFE02E
:1032A0007F9C814701A87D576389E6003285EFE066
:1032B0007F9B9D473E856FD0EFA431453305A40227
:1032C0003E95231095002322450123113501232427
:1032D00025013285E9B7EFD24FA113F5F50FEFF0D5
:1032E000FFE719471DC94845EFF09FDEBD472A8417
:1032F000194763E4A702EFE03F96B1473304F402B5
:10330000B7070020938707087D57A2978396070089
:103310006398E600EFE01F9501473A856FD02F9F35
:1033200041677D1798C323A2070023A40700DDB7D8
:10333000EFD20F9A011113F5F50F328AEFF01FE269
:10334000994721C185442A8463169A104845EFF0B5
:103350003FD83D47AA8499476365A702EFE0DF8F16
:10336000B14AB38754033709002013090908AA8911
:103370003E9903170900FD576319F700EFE09F8E90
:1033800099473E8505616FD0EF975C4082978545F0
:103390000545EF10C04C5C440D473AC42312F100C0
:1033A0003EC88357290002CA52CE638C4709C1C761
:1033B0000947638DE70808444C00EF10E01B1844F0
:1033C000B7170140938607C005456302D702094538
:1033D000630FF700938707400D45630AF700B7278F
:1033E00001409387078001456313F700114593F56A
:1033F000F40FEF10C0250808EF106011A567938740
:10340000C7BC8E04BE94D04037E700E093060005A9
:10341000B307C7002380D74093575600938707040C
:1034200085468A07B396C600BA9794C34E85EFE0E7
:103430007F838147B9B7930780023EC6A1473ECC40
:103440009DBF930780043EC656CCB5B791473EC694
:10345000C147F5B79947E3160AF24845EFF05FC751
:103460003D479947E36FA7F093173500256513058E
:10347000C5BC3E9558419357570093870706B394B0
:10348000E4008A0737E700E0BA9784C35DB70145D7
:103490008280EFD28F859C412041A14641111CC002
:1034A000B1472315F400DC412316040013F7F7009D
:1034B0006302D702A546631FD70005672312E40005
:1034C00013D747000D8B01C785466308D700231328
:1034D000040039A023120400E5B709672313E400B0
:1034E00099838D8B05476389E70081C70947638C02
:1034F000E7062314040029A0930700602314F400B6
:103500001848B747014093870780631AF70411658D
:1035100085451105EF10A03493070020B714014032
:103520002312F1000D49E1474C00138504803EC68B
:103530004AC4EF106004930700402312F1004C00CE
:103540009147138504803EC64AC4EF10E002084844
:10355000A285EF10C04508488545EF10C0520145CF
:1035600041016FC0DFFA9307004049BFEFC25FF629
:10357000B714002013848475930750035CC837196F
:103580000020B747014013060970938707807446EF
:103590001CC8A5679387072A7CC2B70700C0F58FB0
:1035A000C166A106716713070720D58F1165411108
:1035B00038C67CC68545B7070C00110518C01CC469
:1035C0002322040023160400EF106029B7190140DC
:1035D000930700202312F1000D4AE1474C001385A8
:1035E000098052C43EC6EF00307993070040231291
:1035F000F1004C009147138509803EC652C4EF008C
:10360000B077084893858475EF10603A084885457F
:10361000EF106047B795000093868475130630104D
:103620009385C5BA13050970EFF08FFE014541017E
:103630006FC05FEDEFC27FEB2041930500020848A9
:10364000EF10204A01C91C4803D547001375F50F38
:103650006FC0FFEB7D55EDBFEFC23FE924412E84E3
:10366000884893050004EF10C0477DD99C48420468
:1036700041802392870005456FC07FE9EFC2FFE6D6
:10368000C1473841638BF502C5476395F502544B3A
:10369000054693D75600938707063316D6008A0748
:1036A000B7E600E0B69790C30146084B9305505229
:1036B000EF10203F01456FC09FE5544B054693D75F
:1036C0005600938707043316D6008A07B7E600E052
:1036D000B69790C30546D1BF1D71A2CEA6CC82E697
:1036E00086E48AE28EE012FE16FC1AFA1EF82AF62A
:1036F0002EF432F236F03AEE3EEC42EA46E872E65A
:1037000076E47AE27EE073110134B7140020EFD042
:103710004FB393870470A043930550520848EF10AD
:10372000003D19C9854513850470EFF00FF4084872
:1037300093055052EF10E03FEFD0AFB37311013457
:103740007644E6443660A660166186617272E27263
:103750005273C2733275A275127682767267E2670F
:103760005268C268326EA26E126F826F256173005A
:1037700020307300203001A0EFC2BFD437240020D6
:103780007971930704A722F626F456EC5AEA5EE80C
:1037900062E607AB870007AC4700806387AA870112
:1037A00087AB4701846BB797000003A9073483A94F
:1037B0004734B79700004AF207A987334EF052EE1C
:1037C000AA84130B050C130404A74A8ACE8A530556
:1037D000842053748401EF10603FD379AB105305FC
:1037E0008420EF20F05B4A86CE862A8CAE8CEF20B8
:1037F000A01B635CA0004A86CE866285E685EF202A
:103800006031EF2070685304A52053859420D3F4D1
:103810007401EF10A03B53FAAA1053859420EF20B7
:1038200030585286D6862A8CAE8CEF20E017635C27
:10383000A0005286D6866285E685EF20A02DEF2077
:10384000B064D304A520C3772A919104D39717C0FD
:10385000C3F72991C207539717C042074183D98FF5
:1038600023AEF4FEE39564F7272E440127263401A6
:1038700004E800E0A274327412798279726AE26A12
:10388000526BC26B326C45616FC03FC73715014048
:103890001D7113050580054693050004A2CE82E63E
:1038A00086E48AE28EE012FE16FC1AFA1EF82AF668
:1038B0002EF432F236F03AEE3EEC42EA46E872E698
:1038C00076E47AE27EE037040010EF00B05713058B
:1038D0000420EF0050422DC19387C18B98433725B8
:1038E00000201305059B050798C3EFF0FFE81305BB
:1038F0000420EF00104137150140014693050004F4
:1039000013050580EF00105476443660A6601661FA
:1039100086617272E2725273C2733275A275127648
:1039200082767267E2675268C268326EA26E126F68
:10393000826F25617300203013050440EF00B03B17
:103940005DD99387018C9843372500201305058F97
:10395000050798C3EFF05FE21305044059BF371520
:1039600001405D711305058005469305000482E65C
:1039700086E48AE28EE012FE16FC1AFA1EF82AF697
:103980002EF432F236F03AEE3EEC42EA46E872E6C7
:1039900076E47AE27EE0EF00F04A9387818B9843E9
:1039A0000945050798C3EF00103521C50945EF000B
:1039B0005035371501400146930500041305058075
:1039C000EF0050483660A660166186617272E2723E
:1039D0005273C2733275A275127682767267E2678D
:1039E0005268C268326EA26E126F826F616173009C
:1039F00020301145EF0030304DDD11454DBFEFC295
:103A0000DFAE41119307A0142314F100280085476D
:103A10003EC623150100EF005046ED472800230461
:103A2000F100EF00904541016FC07FAEEFC2FFABE8
:103A300001118545114502C202C402C602C802CA6C
:103A400002CC02CEEF00B061854537050020EF00C3
:103A5000F06237140140930700032312F1004C0079
:103A60008D47130504803EC402C6EF00F030930773
:103A700000042312F1004C00C147130504803EC628
:103A8000EF00902FB1470C0801453EC802CA02CC96
:103A900002CEEF00A0760C084145EF002076854568
:103AA0000145EF00A07885454145EF002078854528
:103AB0000145EF00607A85454145EF00E079130646
:103AC0001032930530120145EF00C07B05616FC0D5
:103AD0001FA4EFC29FA179711306C002814548005F
:103AE000EFC0BFA385450945EF0090554800EF00A2
:103AF0007015B7770040938707423EC2B727002072
:103B00009387078F3EC4C1473EC6930700063EC851
:103B1000930700083ECC930700203ECE856793872D
:103B20000780370402403ED0930700023ED24C008B
:103B30008D67130504433ED402CA02D6EF00100D70
:103B40001305044305468945EF00F01305461305A8
:103B500004439145EF003013854513050443EF00FE
:103B6000501145616FC0BF9AEFC23F98797113063B
:103B700000028145080802C202C402C6EFC0FF99D4
:103B800085451145EF00B04D85452145EF00304D8D
:103B900085454145EF00B04C854513050020EF00F9
:103BA000104C854513050040EF00704B0D44930702
:103BB00000034C00371501402312F10022C4B71452
:103BC000014002C6EF00501BB1474C00138504C0F2
:103BD0002312F10022C402C6EF00101ABD474C00A8
:103BE000138504802312F10022C402C6EF00D0180E
:103BF0008547372401403ECA2302F102B70700047B
:103C00003ED40C08B7070800130504403ECE02C896
:103C100002CC02D07929130504408545E123130520
:103C2000044085460546854511238546094613050A
:103C30000440C145E529130504408545F92985451A
:103C400013050440D92145616FC07F8CEFC2FF8905
:103C500079711306C00281454800EFC01F8C85456D
:103C60000545EF00F03D37040240130584000D2D9B
:103C7000B72701409387C7443EC2B71700209387F8
:103C800007773EC4930700063EC8930700083ECC62
:103C9000930700103ECE930700403ED093070002EA
:103CA0003ED24C008D67130584003ED402C602CA82
:103CB00002D6A92F45616FC09F85EFC21F834111B6
:103CC0008545096502C202C423160100EF003039A0
:103CD0004800EF009048373401408567938777BBF1
:103CE0004C00130504403EC402C2EF00103B130514
:103CF000044093050002EF009049130504408545F8
:103D0000EF00304785450945EF0050374800EF0088
:103D1000D044370400404C0013050440EF00F03756
:103D20001305044093050002EF0070468545130516
:103D30000440EF00104441016FC06FFDEFC26FF807
:103D4000B707002083A5071B379500004111130515
:103D5000052E22E626E44AE24EE0EF20F0593795A0
:103D600000001305052FEF20D06A37970000872742
:103D7000C72BB7240020938704A737970000DCE304
:103D80008727072C37970000530400F09CE787270C
:103D9000472C37970000014BDCEB8727872C014C21
:103DA000938404A79CEFEFF09FC5EFF03FC8EFF0BE
:103DB0005FD2EFF07FDBEFF07FE9EFF01FF0B79716
:103DC000000087A4472BB797000003A9072D83A9FC
:103DD000472DB797000003AA872D83AAC72DB79751
:103DE000000007A9872BD3899420EF005057330791
:103DF0006541CD472A8463FEE70280EC537494004A
:103E000053058420EF20C0794A86CE862A8BAE8B5C
:103E1000EF10F04463540500D38439215A8552864B
:103E2000D686DE85EF105038228B6354A000D30471
:103E30002921B30784411307703E6373F70293058A
:103E4000803EB355B40283A6018C03A7818B03A6E1
:103E5000C18B379500001305C530228CEF20D04967
:103E60001305401FEFD07FBA49B7B71702409843F8
:103E7000B706FFF841111367170098C3D8433706F8
:103E80000200758FD8C39843B706F7FEFD16758FED
:103E900098C39843B706FCFFFD16758F98C3D843A7
:103EA000B70681FFFD16758FD8C39843B70600EC9F
:103EB000FD16758F98C33707FF0098C723A6070222
:103EC00002C402C69843C166558F98C3B716024014
:103ED00005679C42F18F3EC6A24785073EC4B247A4
:103EE00081E7A247E397E7FEB71702409C43139789
:103EF000E7006356070685473EC632478547631E7F
:103F0000F704B7170240D843B706C1FFFD16D8C360
:103F1000D843D8C3D84313670740D8C3D843758F55
:103F2000D8C3D843C166558FD8C39843B70600019C
:103F3000558F98C3984393166700E3DD06FED84378
:103F4000B7160240719BD8C3D84313672700D8C364
:103F50002147DC42B18BE39EE7FE4101828002C62D
:103F600069BF01A001A001A001A001A001A001A0C2
:103F700001A001A001A001A001A001A001A001A039
:103F800001A001A001A001A001A001A001A001A029
:103F900001A001A001A001A001A001A001A001A019
:103FA00001A001A001A001A001A001A001A001A009
:103FB00001A001A001A001A001A001A001A001A0F9
:103FC00001A001A001A001A001A001A001A001A0E9
:103FD00001A001A001A001A001A001A001A001A0D9
:103FE00001A001A001A001A001A001A001A001A0C9
:103FF00001A001A001A001A001A001A001A001A0B9
:1040000001A001A001A001A001A001A001A001A0A8
:1040100001A001A001A001A001A001A001A001A098
:104020007390123497D1FF1F9381C19817C100205C
:10403000130141FD17650000130545A797C5FF1F34
:10404000938545FC1386818163FAC50083220500B0
:1040500023A0550011059105E3EAC5FE1385818172
:1040600097E5FF1F938545A36377B50023200500DF
:104070001105E36DB5FEFD42739002BCFD427390E5
:104080004280B78200009382028073A0023097C200
:10409000FFFF9382A2FA93E2320073905230EFF066
:1040A000DFDC97C2FFFF9382625F7390123473006C
:1040B00020305C413707F1E01307F7EF944D7D8F17
:1040C0009C41D58FD44DD58FD441A206D58FD98FA1
:1040D0005CC11C4537F7F1FF1307D77FD4457D8FAF
:1040E0009C49D58F94458606D58FD98F1CC55C55C4
:1040F000370710FF7D177D8F83C74501FD1793F7A5
:10410000F70FD207D98F5CD582801C4589C593E70C
:1041100017001CC58280F99BEDBF1C4589C593E73C
:1041200007101CC5828093F7F7EFE5BFA54763F73B
:10413000B7048D47138765FF3307F7020328C500CF
:104140009D47B397E70093C7F7FFB3F70701B3960F
:10415000E600DD8E54C5994763E3C70495477D1695
:104160003306F6025859FD47B397C70093C7F7FFC8
:10417000F98F3396C5005D8E50D982800D47338705
:10418000E502032805019D47B397E70093C7F7FFB2
:10419000B3F70701B396E600DD8E14C96DBFB147D2
:1041A00063E2C702954765163306F6021859FD47C4
:1041B000B397C70093C7F7FFF98F3396C5005D8E9D
:1041C00010D9828095474D163306F6025855FD47A3
:1041D000B397C70093C7F7FFF98FB395C500DD8D7F
:1041E0004CD582801C4591C537071000D98F1CC55E
:1041F00082803707F0FF7D17F98FD5BFB776004073
:10420000056783A7064079173317A7001347F7FF01
:10421000D0417D8F9C41D18F9045D18FD045D18F9A
:10422000B397A700D98F23A0F640828085473395A6
:10423000A70089C937770040832707405D8D232079
:10424000A7408280B777004003A707401345F5FFDA
:10425000798D23A0A740828085673395A70089C9FF
:1042600037770040832707405D8D2320A740828059
:10427000B777004003A707401345F5FF798D23A0CA
:10428000A7408280A147631BF500A205B7770040D5
:1042900093870742D18D3E950CC18280C205FDB740
:1042A0001C4141677917F98F1CC123200500232287
:1042B000050023240500B7070240232605001387C5
:1042C00087006317E500D8431367F700D8C38280DF
:1042D0001387C7016316E500D8431367070FFDB7BF
:1042E000138707036318E500D8438566938606F0B5
:1042F000558FE9BF138747046315E500D843BD66B2
:10430000C5BF138787056316E500D843B7060F00BE
:10431000C5B71387C7066316E500D843B706F00094
:10432000C1BF138707086316E500D843B706000F1F
:10433000C1B7138787406319E50003A74740136798
:10434000F70023A2E74082801387C7416317E50087
:1043500003A747401367070FEDB793870743631B16
:10436000F500B707024003A747408566938606F02D
:10437000558FC1BFB7070240138747446316E50056
:1043800003A74740BD66EDB7138787456317E50070
:1043900003A74740B7060F00E1BF1387C74663175F
:1043A000E50003A74740B706F000D9B713870748D1
:1043B0006317E50003A74740B706000F55BF1387F3
:1043C00007496319E50003A7474D1367F70023AAC0
:1043D000E74C82801387074A6317E50003A7474D20
:1043E0001367070FEDB71387074B6319E50003A7A2
:1043F000474D8566938606F0558FD1BF1387074CCE
:10440000E319E5FC03A7474DBD66FDB71C41617785
:104410003D0794517D8F9C45D58F9449D58FD449C4
:10442000D58F944DD58FD44DD58FD451D58F9455EC
:10443000D58FD98F1CC1DC455CC19C411CC5DC41BA
:104440005CC582802320050023220500232405006B
:104450002326050023280500232A0500232C050018
:10446000232E050023200502232205022324050212
:1044700082801C4189C593E717001CC18280416777
:104480007917F98FDDBF1C4101C6DD8D0CC182801B
:1044900093C5F5FFFD8DDDBF9317350063DA070087
:1044A000B707024083A707407D8D3335A000828087
:1044B0009317250063D70700B707024083A7074D6E
:1044C000E5B7B70702409C43C5B79317350063D7DC
:1044D0000700B707024023A2A74082809317250058
:1044E00063D70700B707024023AAA74C8280B7070B
:1044F0000240C8C38280EFB25FFFEFF0FFF96FC0E8
:104500000F81EFB29FFEEFF05FFC6FC04F8058410C
:10451000032805004C4537060140930706403E97A7
:104520009346F8FFB1C583250640F58D2320B6409C
:10453000D043F18ED4C31443B3E6060114C318412B
:1045400090479346F7FF758E90C7D047F18ED4C73A
:10455000144541466399C6009447D98E94C7D44701
:10456000558FD8C78280B6979443558F98C3828061
:104570001C43F58F1CC382809C4513F7070113F879
:10458000F70001C7D8413368E80083D5050013F769
:10459000F50F39C318418146854E3D4F930F800278
:1045A00093028004214E3396DE00B3F8C5006311F8
:1045B00016039398260033131F011343F3FF337739
:1045C000E300B318180133E7E800639FF70550C90B
:1045D0008506E39AC6FD18C11307F00F6375B7048B
:1045E00054412146854E3D4F930F80029302800433
:1045F000414EB398CE0033F715016392E8021317CA
:10460000260001173313EF001343F3FFB376D300F3
:104610003317E800D98E639DF701232A150105069B
:10462000E319C6FD54C18280E39457FA10C94DB70F
:10463000E39757FE23281501DDB708456D8D333507
:10464000A000828019C20CC982804CC9828013F7F5
:10465000C50F93F73500B7050140BA9594458A0711
:104660003D473317F7001347F7FF758F98C59845F7
:104670003315F500598D88C582809387418C94430A
:104680000347050089E683472500920731A8944334
:1046900005466391C604834725000346150092072B
:1046A0006314D60093E707F8B7E600E093F7F70F37
:1046B000BA962380F6408546935757003397E60015
:1046C0005441ADC6938707048A07B7E600E0B69762
:1046D00098C382808C4389466393D5028346150034
:1046E000834725006365D6008A06B69779BF93860F
:1046F000E6038A06B69793F7F70F920765B79043DC
:104700008D46631ED60083461500834725006364EB
:10471000D6008606D9BF9386C6078606E1BF9443B6
:104720009147E39AF6F88347150085B79387070604
:1047300061BF371702405C439146B18B6385D70058
:10474000A1466386D706B7177A00938707201CC156
:10475000371602405C423707002013070714918385
:10476000BD8BBA9783C607001C41B3D7D7005CC185
:104770005442A1829D8ABA9683C60600B3D6D7005A
:1047800014C55442AD829D8A369703470700B3D7BC
:10479000E7005CC558423983937637001387418020
:1047A000369703470700B3D7E7021CC982805C43F2
:1047B00054434167C983F98E37F7FF1F0327C7703A
:1047C000BD8B89071316170163480600454601474C
:1047D0006392C702C94739A809476389E7023D4781
:1047E0006388E70241476388E702454601476393D0
:1047F000C700C14785E6B746024083A60680C18A46
:104800008DC6B7167A009386062025A00147D9B732
:104810000547B547C5B70147BD47E9BFB7160240D1
:10482000D4421396E600E35E06FCB7163D0093867D
:104830000690B387D7021CC101DF1C41858301BFED
:1048400099C5371702405C4B5D8D48CB8280B71706
:104850000240D84B1345F5FF798DC8CB828099C5AE
:10486000371702401C4F5D8D08CF8280B71702407A
:10487000984F1345F5FF798D88CF828099C53717FA
:1048800002405C4F5D8D48CF8280B7170240D84F01
:104890001345F5FF798DC8CF8280835705003737E0
:1048A0000140930607C0C207C1836300D504B70661
:1048B0000040630CD502938606406308D502B71604
:1048C0000040138606806302C502938606C0630E0D
:1048D000D50013070740630AE500375701409306E8
:1048E00007C06304D5006317E50003D7250093F7DD
:1048F000F7F8D98F37170040630DE500130707401D
:104900006309E50093F7F7CF03D76500C207C183BA
:10491000D98F2310F50083D745002316F50283D7DE
:1049200005002314F502B7370140138707C0630E53
:10493000E50093870740630AF500B75701401387E6
:1049400007C06304E5006316F50083C785002318DC
:10495000F5028547231AF5008280FD572312F500E2
:10496000231005002313050023110500230405006F
:1049700082808357050091C593E717002310F50047
:104980008280C207C183F99BC207C183C5BF835719
:104990004500C207C18393F7F7F8C207C18323120A
:1049A000F50083574500DD8D2312B5008280EFB2FC
:1049B000DFB383560501F577FD17F58F83D66500C4
:1049C00003D7C5007971D58F2318F5008356C5002C
:1049D000FD779387379FF58F83D645002A842EC6AF
:1049E000D58F83D68500D58F83D6A500D58F231686
:1049F000F50083574501C207C18393F7F7CFD98FDD
:104A0000231AF5006808EFF0DFD2B747014093871B
:104A10000780B245631DF404A2578356C40065475E
:104A2000B387E702C206C186984163D4060406072D
:104A30000356C4004206B3D7E70213074006418677
:104A4000B3D6E702B3F7E7029206635606028E0773
:104A500093872703B3D7E70213F77700B367D7002D
:104A6000C207C1832314F40045616FB05FAA925757
:104A70006DB70A0775BF920793872703B3D7E7027D
:104A8000BD8BD58FF1BF81C98357C5000967D98F09
:104A90002316F50082800357C500F977FD17F98FBB
:104AA000C5BF13F7F50F85471583B395B700631995
:104AB000F7009307C500984301CED98D8CC382803F
:104AC000894693074501E318D7FE93070501E5B72B
:104AD00093C5F5FFF98DDDB793F5F51F2312B500EA
:104AE0008280035505006D8D3335A000828013F759
:104AF000F50F85461583B397B6006313D7020357A6
:104B0000C500F98F0357050001454207418381CB5A
:104B10000545A181B315B5006D8F3335E000828066
:104B200089466315D70003570501E1BF03574501C7
:104B3000C9BFA1818547B397B70093C7F7FFC207E5
:104B4000C1832310F5008280B7F700E023A207009D
:104B50009387818C9843050798C37300203003A581
:104B6000818C8280EFB2DF96B7440140AE893289F2
:104B7000014493840480634524014A856FB09F9863
:104B8000930500042685EFF0DFF57DD9B387890012
:104B90008385070026850504C205C181EFF0DFF398
:104BA000D9BF138781801C43B7260020938646A96E
:104BB0003E95636BD500B70601209386068063E5BA
:104BC000A60008C33E858280FD57EDBFD30705E0F0
:104BD0000111B716493F1397170006CE938686FD3D
:104BE000058363DBE602B706807F6347D700537512
:104BF000A508F240056182802800A9200D8985471B
:104C00006304F5028947B26522656307F5020DC1A9
:104C1000E5245315A520F1BFD30500F00145EF00B1
:104C2000D030F24005618280B2652265F124D1B7AF
:104C30000545EF00902F75BF0545EF00102F531568
:104C4000A52045BFD30705E0011122CC3717493F06
:104C50001394170026CA06CE4AC8130787FD05809D
:104C6000AA846355870E37D71640130737BE3E898F
:104C700063448704174700008727476D3717C93FEC
:104C80004198130707FD6353F022D377F508630FAC
:104C9000E40C9747000007A7A76BD3F6E708054584
:104CA000D3F7D70894E0D3F7E708DCE0F24062449A
:104CB000D244424905618280B7174943938707F878
:104CC00063DF870CB707807F635CF4081356744179
:104CD0001306A6F7931776011D8CD30704F0174728
:104CE00000008726A768530600F0D39707C08D46BB
:104CF00053F707D0D3F7E7083AE2D3F7D710D397A3
:104D000007C053F707D0D3F7E7083AE4D3F7D71033
:104D1000D3A7C7A03EE691C7D326C7A093B6160077
:104D20008506974700009387A76C0947A68548002A
:104D30002126E35D09F69860DC603305A040531737
:104D4000E720D397F72098E0DCE08DB7F24062448B
:104D500088E023220500D244424901450561828052
:104D6000D377A5080145DCE09CE089B797470000B0
:104D700007A7475ED3F7E7089747000007A7C75D77
:104D8000F24062444249D3F6E7080545D3F7D70815
:104D900094E0D3F7E708DCE0D24405618280EF00BD
:104DA000F0229747000087A7A75B9747000087A6D8
:104DB000E75AC376D5789747000007A76759974702
:104DC000000087A7A758FD47539506C0D37605D0A6
:104DD0004BF5F650D3F7E61063C7A7049307F5FF2A
:104DE000139727005377F508974700009387475894
:104DF000BA979443137704F0D30707E06309D70207
:104E00009CC0538707F05375E5085375F508C8E053
:104E1000E35E09E8D317E7205315A5203305A0402A
:104E20009CE0C8E061B55377F508D30707E013D7D6
:104E300077015D841377F70F3307E440A146E3D190
:104E4000E6FC9747000007A6E7504BF7C650974788
:104E5000000087A76750E5465375E5084BF5C65037
:104E6000C7F7F6505376F708D30706E013D7770154
:104E70001377F70F198C63C6860090E05305E7207F
:104E800049B79747000007A6E74D4BF5C67097470F
:104E9000000087A7674D5377A7084BF7C670C7F781
:104EA000F6705377F508D30707E099BFD377F5007D
:104EB0006300E4029747000007A78749D3F6E7009D
:104EC0007D55D3F7D70894E0D3F7E700DCE0F9BBD2
:104ED0009747000007A70748D3F7E7009747000068
:104EE00007A787477D55D3F6E700D3F7D70894E0A7
:104EF000D3F7E700DCE05DBB530705E0B7060032FF
:104F000093171700858363DFD706D31705C0638027
:104F10000712D376A5109747000087A7E77F97472A
:104F2000000007A5277F9747000007A0277F974726
:104F3000000007A6E77E43F5A6789747000007A77D
:104F4000677E9747000087A7277E43F5A60043F5B5
:104F5000A66043F5A670C3F7A678D3F7D71053071A
:104F600007F09747000007A5A77AD375B7109747B2
:104F7000000007A7E73EC7F7F658C7F7E67853756E
:104F8000F5088280D376A5109746000007A6C6785C
:104F90009746000007A706789746000087A706787F
:104FA0009746000007A0C67743F7E66097460000E3
:104FB00007A546779746000007A60677B7A6993E4D
:104FC00093869699C377D778C3F7D700C3F7D7509E
:104FD000C3F7D760D3F7D710E3D3F6F8B706483F47
:104FE00063CEF602B70600FFB697538607F09746E2
:104FF000000007A5E6715375C508530707F0D37580
:10500000B7109747000007A7A73547F7E660C7F72F
:10501000F658D377F7085375F50882809747000054
:1050200007A5876E9747000007A6476EF9B7974711
:10503000000007A5E76D82802171131827003ACA86
:1050400017470000130747724297232C811A232A1F
:1050500091192328A119328432CE232E111A232A22
:10506000911A2328211B2326311B2324411B232291
:10507000511B2320611B232E7119232C81192326F8
:10508000B119272E8116272C9116272A2117272898
:1050900031172726411727245117272261177158E6
:1050A0002EC83EC22A86832C0700138DF6FF634963
:1050B00004639307D4FF93D4F7419D88BE9493D79C
:1050C0003440138B17003EC493173B003ECCA247DD
:1050D0006245F2453387AC01B387A7411308170037
:1050E000338AA5403E988818634307029245139778
:1050F0002700D30700F02E9763C507001843D37726
:1051000007D011058507272EF5FEE39107FF939D34
:105110002C0063C40C0493182D009C1813854800C0
:10512000939D2C00BE985C0A130801113383B701CC
:1051300032954687B287D30700F0634A0D00946327
:10514000186391077117C3F7E678E39AA7FE272043
:10515000F80011089108E31E68FC9387FCFF93890F
:105160008DFF13992700930A01027C08BE9DB38727
:105170003A013EC68A069747000087A4675E9747B4
:10518000000007A4275E9747000007A967589747C4
:10519000000007ABA75C9747000087AA271D974729
:1051A000000087A9E71B330CD6009C12B70600400D
:1051B000E6891384F6FF3E99939429009C12A697E2
:1051C00007A507FB635F300333858900930E011148
:1051D0000A057695568311A07285D37765111461FF
:1051E0001103130EC5FFD39707C0D3F707D04BF7B2
:1051F000575153F5D700D31707C0232EF3FEE39D75
:10520000AEFC528532C05925530AA520537595101E
:10521000E9234B7585A00246531B05C0537A0BD07A
:10522000537A4509635F400D9387F9FF8A07981207
:10523000BA9703A307EC214533054541335EA340EC
:105240003315AE003303A3401D453305454123A06C
:1052500067ECB35BA340729B6342700DD30700F011
:10526000D327FAA063890712138EF9FF634E9E01BC
:10527000B38789008A07D69701478843F117498F7A
:10528000E39DB7FF63160730832709EC639D072E64
:10529000B2470547F117C84305076DDD938719002D
:1052A0003E8EB388E90022473305FD002295330383
:1052B000F70012470A038A073A93180A0A05B30E41
:1052C000F7009C183E9583270300530700F0D3F79F
:1052D00007D05CE1634D0D002A87B28719A01C63DB
:1052E00071179463910743F7F670E39A87FF27A03D
:1052F000EE00050E1103910E1105E3D6C8FDC68917
:1053000065BD63160A269387F9FF8A079812BA9734
:1053100003A307EC935B8340E35270F5050B6355E1
:10532000303D025E63130E208547638EF900130F34
:105330004102032E0F0013851700110F63190E1E73
:10534000AA87E398A9FE635340038547630EFA36A4
:105350008947631DFA009387F9FF8A079812BA9765
:1053600003A507EC1375F50323A0A7EC8947E39782
:10537000FBEE537A4909E3030EEE530529215285CA
:1053800032C02923537AAA08D30700F00246D32754
:10539000FAA0E39B07ECE247724753054A213385A5
:1053A000E740ED219747000087A647FCD387A6A0DA
:1053B000638E07329747000007A7473A5377E510F7
:1053C000138E19009C1213162E00338797003E96F9
:1053D000D31707C0210AD3F707D0CBF6D750D397FE
:1053E00007C0D39606C02320D7EC2320F6EC530544
:1053F0002921528572C05929024E63450E1C93180B
:105400002E00130F0111B3051F0133871A01AE8659
:105410009747000007A7873411A032871C43F11675
:105420001306C7FFD3F707D0D3F7A7105375E510BE
:10543000DCE2E394EAFE1308010C4285014697473B
:10544000000007A6673163C20C04974600009386EC
:10545000262E2E875307C620D30700F0814729A0A8
:10546000634BF60098629106146385071107C3F732
:10547000E678E3D7FCFE1CE1050611059387C5FF1E
:10548000630FBF00BE85E3D20CFCD30700F0050616
:105490001105272EF5FE9387C5FFE315BFFE524782
:1054A000894763C0E718C298D30700F0634AE01247
:1054B00019C305A0BE8807A708009387C8FFD3F7C4
:1054C000E700E31918FF63840B00D397F720C24766
:1054D0009CE38320C11B0324811B13757B00832461
:1054E000411B0329011B8329C11A032A811A832A1C
:1054F000411A032B011A832BC119032C8119832C08
:105500004119032D0119832DC1180724C1178724C0
:1055100081170729411787290117072AC116872AEA
:105520008116072B411639618280054581478A071C
:105530009812130F0010BA97330ECF4123A0C7ED76
:1055400063553503931725003305F700032505EC54
:10555000D697338F9A00130EF00F11A088433305AE
:10556000AE4088C39107E39BE7FF054EE9BBD387B5
:1055700049A1814BE38407CE050B894BE34330DB24
:10558000537A4909E1B9938719003E8EBE8821BB41
:1055900093172E009812BA9783A707EC611AE39825
:1055A00007E493972900E117D697F117D8437D1E9A
:1055B000611A65DF53052921528572C0C12C024E44
:1055C000E35F0EE25247894763CDE704D30700F05B
:1055D0006340E002E31F07EEE38B0BEEFDB5BE88F0
:1055E00007A708009387C8FFD3F7E700E31918FF60
:1055F0000E675377F70863930B10C2479CE3635F12
:10560000C001D80185471C63850711075377F70050
:10561000E35BFEFE63840B005317E720C247D8E329
:105620004DBD52478D47E316F7EA635DC00F131770
:105630002E009412BA961308010C9307C7FF87A691
:1056400006F6C29711A0B6879C639386C7FF53F7EF
:10565000D700D3F7E70898E3D3F7D700D306E720BE
:10566000DCE3E312F8FE854763DEC70B93172E00D9
:1056700094123697F117872607F63307F80011A022
:1056800036871C639306C7FF53F7D700D3F7E708A5
:1056900018E3D3F7D700D306E7205CE3E312D8FE84
:1056A000D30700F091073E98072708007118D3F739
:1056B000E700E31B07FF8E661E67639A0B04C24771
:1056C00094E3D8E39CE731B59387F9FF8A079812F2
:1056D000BA9703A507EC1375F50723A0A7EC79B1DA
:1056E000A1473ECC02C4E5B2014EB1B9D31705C003
:1056F000981226974E8E2320F7ECD5B9D397F72032
:10570000C2479CE3E34FC0EF5317E72001BFC247F6
:10571000D396D6205317E720D397F72094E3D8E306
:105720009CE745BBD30700F079B7D30705E0B70680
:1057300000321397170005836355D700531705C030
:1057400049C7D38707F0174700008726E7021747A6
:1057500000000720A70253F7F7101747000087271C
:105760006701174700000726A701538507F0C37795
:10577000F768174700008726E7005375E510C3F761
:10578000E700C3F7E760C3F7E76801ED17470000DC
:10579000872587FFC377F758538707F043F5A7702E
:1057A0008280D377F51017470000872667BB17471D
:1057B00000000726A7FDC7F7D578C7F7E758437558
:1057C000C578D38707F053F5A7088280D30705E093
:1057D00086078583538507F08280D30605E0594606
:1057E00013971600058393577701938717F8B685AB
:1057F0006341F60863C40704370880001307F8FF05
:105800003357F7403375D700530605E00DC51745EC
:105810000000872725F8D377F500530700F05315CC
:10582000F7A011C963D60600B357F840B385D70077
:105830001346F7FF6D8E530506F0828097470000F0
:1058400087A747F5D377F500530700F0530605E027
:10585000D317F7A0EDD3530607E0E3DE06FC5306AB
:1058600005E071DB9747000087A787F2538607E0C2
:10587000D9B7B707807F530605E0E36EF7FAD37711
:10588000A500538607E0530506F08280530705E024
:10589000931717008583B9C33706807F63F9C70262
:1058A000B376C7009DEE9747000087A7E7EED37752
:1058B000F510D177938707CB538707E06346F50848
:1058C0009357774193F7F70FBA869D1729A8D37797
:1058D000A500D38707E0538507F08280D30705E052
:1058E000DDBFBA86DD83011106CE22E6AA97130634
:1058F000E00F634CF600634DF002295663D1C706F2
:10590000B1679387073563DEA7069747000007A4B2
:1059100067E853058420D30507F08D28D3778510D9
:10592000F24032640561D38707E0538507F0828037
:10593000370780807D17758FDE07D98FF24032647C
:10594000538507F005618280530707F097470000F1
:1059500087A7C7E4D377F710D38707E0ADBF370732
:1059600080807D17E507F98EDE07D58F538707F016
:10597000174700008727C7E2D377F710D38707E0E0
:1059800075BF9747000007A467E161B7D30705E03B
:10599000D38605E0370700801346F7FFF18F758F38
:1059A000D98F538507F08280F3272000B7071000B6
:1059B00013D74501FD1713D846011377F77F9308D6
:1059C000F07F33F3B7002A8EF58FFD81B28E137806
:1059D000F87FFD82630A1703630018031DEBB368A9
:1059E000A300631408005D8E39CA63870804638AC4
:1059F000D5020545A1E18280B3E8C700E38008FE37
:105A000073601800795582803365A30075F9630CC3
:105A1000E802631408005D8E69DEE39CD5FCE34A6E
:105A2000E8FC63480701E3E667FC6303F302637F76
:105A3000F30081E57D558280F5DE054582800145D4
:105A4000E39908FA82805D8E69DA5DBF0145828044
:105A5000E3E1CEFB0145E370DEFBE5F1E1BFF327B7
:105A60002000B707100013D74501FD1713D84601D2
:105A70001377F77F9308F07F33F3B7002A8EF58F03
:105A8000FD81B28E1378F87FFD82630F1703630DDB
:105A9000180121E3B368A300631008025D8E09EECC
:105AA0000145639F08008280B3E8C700E38308FED6
:105AB0007360180009458280638F08026383D502F2
:105AC0000545F5D17D5582803365A30075F16307E7
:105AD000E802631408005D8E65D6E393D5FEE341CA
