:100000006F40602713000000130000001300000081
:100010001300000013000000130000001300000094
:100020001300000013000000130000001300000084
:08003000130000007300100032
:10003800000000000000000048380000BC38000044
:1000480000000000BC4100000000000000000000AB
:10005800BE410000C0410000000000000000000098
:10006800944D000000000000540300000000000050
:10007800C6410000C8410000CA410000CC41000050
:10008800CE410000D0410000D2410000D441000020
:10009800D6410000D8410000DA410000163B0000BC
:1000A800DE410000E0410000E2410000E4410000C0
:1000B800E6410000E8410000EA410000EC41000090
:1000C800EE410000F0410000F2410000F441000060
:1000D800F6410000F8410000FA410000FC41000030
:1000E800FE410000004200000242000004420000FD
:1000F80006420000084200000A4200000C420000CC
:100108000E420000AE370000124200001442000008
:1001180016420000184200001A4200001C4200006B
:100128001E4200002042000022420000244200003B
:1001380026420000284200002A4200002C4200000B
:100148002E420000304200003242000034420000DB
:100158003642000038420000443A00003C420000A9
:100168003E4200004042000042420000444200007B
:1001780046420000484200004A4200004C4200004B
:100188004E4200005042000052420000544200001B
:1001980056420000584200005A4200005C420000EB
:1001A8005E420000604200006242000064420000BB
:1001B80066420000684200006A4200006C4200008B
:1001C8006E4200007042000072420000744200005B
:1001D8000000000000000000000000000000000017
:1001E8000000000000000000000000000000000007
:0801F8000000000000000000FF
:1002000097020120938202E0938202E0739002340D
:100210000321050022457310053079A8197102E009
:1002200006E20AE40EE612E816EA1AEC1EEE22F0E6
:1002300026F22AF42EF632F836FA3AFC3EFEC2E0F6
:10024000C6E2CAE4CEE6D2E8D6EADAECDEEEE2F0C6
:10025000E6F2EAF4EEF6F2F8F6FAFAFCFEFE1971AE
:100260002320250006C006C216CAF322003093F2EE
:100270008200638402009302000816C412C81ACCDC
:100280001ECE22D026D22AD42ED632D836DA3ADC66
:100290003EDEC2C0C6C2CAC4CEC6D2C8D6CADACC36
:1002A000DECEE2D0E6D2EAD4EED6F2D8F6DAFADC46
:1002B000FEDE03A1050009A002457310153492402B
:1002C0003785000013050580732005302245732013
:1002D00005304242D2426243F243025492542255C4
:1002E000B2554256D2566257F257064896482649AA
:1002F000B649464AD64A664BF64B065C965C265D86
:10030000B65D465ED65E665FF65F0961026092602A
:100310002261B2614262D2626263F26302749274D9
:100320002275B2754276D2766277F2770668966861
:100330002669B669466AD66A666BF66B067C967C59
:10034000267DB67D467ED67E667FF67F0961730088
:1003500020300000197102E006E20AE40EE612E81D
:1003600016EA1AEC1EEE22F026F22AF42EF632F8E5
:1003700036FA3AFC3EFEC2E0C6E2CAE4CEE6D2E875
:10038000D6EADAECDEEEE2F0E6F2EAF4EEF6F2F8C5
:10039000F6FAFAFCFEFE197116CA9302000816C49A
:1003A0009302000273A0428006C212C81ACC1ECE6D
:1003B00022D026D22AD42ED632D836DA3ADC3EDE05
:1003C000C2C0C6C2CAC4CEC6D2C8D6CADACCDECE75
:1003D000E2D0E6D2EAD4EED6F2D8F6DAFADCFEDEE5
:1003E00073110134EF00E065EF107013EF006068E7
:1003F0007311013413848189032904006304090201
:1004000023200400732510342AC01384018904407A
:1004100023A0240013844189044003A10400024561
:10042000731015349240B78200009382028073A04B
:100430000230A24273A002304242D2426243F243EF
:10044000025492542255B2554256D2566257F25730
:10045000064896482649B649464AD64A664BF64B60
:10046000065C965C265DB65D465ED65E665FF65FB0
:100470000961026092602261B2614262D26262638B
:10048000F263027492742275B2754276D276627704
:10049000F277066896682669B669466AD66A666B18
:1004A000F66B067C967C267DB67D467ED67E667F84
:1004B000F67F0961730020300000397101436EC678
:1004C00019A0397141536AC866CA62CC5ECE19A0C0
:1004D000397101535AD056D252D44ED64AD826DA60
:1004E00022DC06DE33016140828241114AC026C20D
:1004F00022C406C68282B24D4101024D924C224C6A
:10050000B24B4101024B924A224AB249410102498F
:1005100092442244B240410182803D432A87637362
:10052000C3029377F700BDEFADE5937606FF3D8AF2
:10053000BA960CC34CC30CC74CC74107E36BD7FE3C
:1005400011E28280B306C3408A06970200009696A5
:100550006780A6002307B700A306B7002306B700ED
:10056000A305B7002305B700A304B7002304B70011
:10057000A303B7002303B700A302B7002302B70009
:10058000A301B7002301B700A300B7002300B70001
:10059000828093F5F50F93968500D58D939605018E
:1005A000D58D61B7939627009702000096968682B4
:1005B000E78086FA9680C1171D8F3E96E374C3F8D4
:1005C000A5B703A581808280EFF23FF293878180F7
:1005D0009843050798C3EF10C0363C45FD173CC54E
:1005E00089E77C413CC5EF10803AEF10A06605B763
:1005F00001458280014582800145828001458280DB
:10060000EFF2BFEE2964A9641304C4899384848A39
:1006100063639400EDBD1C4011048297D5BFEFF2D7
:10062000DFEC2964A9641304848A9384048B6363D4
:100630009400F1BD1C4011048297D5BFEFF2FFEA90
:10064000F93FEF30B00EE1B5EFF23FEAB705000039
:1006500037850000D1471547930600200146938552
:10066000C563130545C3EF10202EEF10604545B557
:10067000EFF2BFE7EF10806BEF20902BEF003031EF
:10068000EF10C064EF00307FC137EF10C0643D242D
:10069000EF1040010145A5BDEFF23FE5D13F014517
:1006A000BDB5EFF2FFE2AA89EF10A02919C1EF1042
:1006B00080112545EF00D06744411304450063963F
:1006C0008400EF100028014919A8138944FF21462E
:1006D000CE854A85EF00206701E9EF10802619C119
:1006E000EF1000104A8539BD8440D1BF09E57D5522
:1006F00082807D5529BDEFF25FDF2A842E85328905
:10070000AE8445377DF522852686A545EF00F06449
:100710000145231C2401230E0400231D0400D9BF1E
:10072000EFF2BFDC8357850141112A84C18B8DEB29
:100730001C558DC32EC68297AA84B24501CD2A8648
:1007400037850000A2851305C5C3EF00701D2685FF
:10075000410175BB8357840193E70701231CF40013
:1007600083578401A18B91C78357A401E554A18BC2
:10077000F9FF5C548DC322858297AA840DE58357C7
:10078000A40193E78700231DF4008347C401850774
:10079000230EF4006DBF85679387F7F0FD8D231D51
:1007A000B4008144E9BFE957E313F5FAC9BF8347B1
:1007B000C5018DCBEFF27FD3FD1793F7F70F230E13
:1007C000F5002A84014789EF1C5989E70147231D59
:1007D000040039A082972A8775D9E957E309F5FE05
:1007E0003A8535B37D573A858280EFF21FD00347B3
:1007F000C50109E77D551D29014521A05C5999C313
:10080000829731B36955C5BFEFF23FCE0347C501AB
:1008100009E77D552129014521A01C5D99C38297D7
:10082000FDB16955C5BF0CD101458280EFF25FCAA9
:1008300093894186854A83A7418663863705EF10F1
:10084000E04E83A741862A8A638D370303A441863D
:100850005C4018401309C4FE5CC398C340C000C08C
:10086000EF0070767C5099C34A8582974A85EF00E5
:100870001060631B55014A85EF001054EF0050765D
:100880005285EF10604BBDB9EF0090755285EF10A7
:10089000A04A4848EF00303F4A85EF00305A61BF18
:1008A000EFF2BFC413840194130904011C4091C3E7
:1008B00082971104E31C24FF953FEDB7EFF2FFC2CE
:1008C00037160000B7850000930800023D489307E3
:1008D00000201387019581461306068A938545C734
:1008E0001385018CEF10C0021385018CEF10401DA1
:1008F00039B9EFF29FBF41112A842E8532C62EC42A
:10090000EF10000E3246A24519C68547630DF6006A
:1009100001454101EDBE5840938745011CC398CD68
:100920005CC0C0C9F5B71C406388870083C6550307
:1009300003C7170263FAE600D4431387450198C240
:1009400094CDD8C3DCC9E9B79C43F9BFEFF2FFB936
:100950004111B2842E8689452A8436C6EF00F03FC5
:10096000B246930744011CCC5CC8231E9400A30428
:10097000D4000145410161BEEFF29FB583A7018517
:1009800041112EC62A8491C38297EF10203A8357D3
:10099000C401AA8991CFFD17231EF400EF10C039BE
:1009A00083A7C184014591CB22858297014531A05F
:1009B000B24791E7EF10403879554101A1B6EF00F9
:1009C00050782328050203469400AA85AA841305BB
:1009D00044010537B247635CF0001389C40470001A
:1009E00081454A85EF1020234A85EF10E0164E8599
:1009F000EF108034EF00D04D88585DD17DBFEFF20D
:100A0000DFAE83A781842A8491C38297EF100032DE
:100A1000AA84484893074401630EF5003115EF108E
:100A2000600505442685EF10203119C0EF00504ABB
:100A30000145F1BC8357C4018507231EF40001441E
:100A4000D5B7EFF29FAA4111EF10402E13874181D5
:100A500083470700850793F7F70F2300F70083A765
:100A6000C18081C72AC682973245EF10E02C410130
:100A700079BCEFF29FA74111EF10402B1387418102
:100A800083470700FD1793F7F70F2300F70083A7AD
:100A9000018181C72AC682973245EF10E0294101C2
:100AA000BDB403C541818280937808044111639EDF
:100AB0000800A168938808E293730801638B030020
:100AC0001378E8FF930E000219A8A1689388C8D78D
:100AD000E5B713731800930E0003E30503FE1373C9
:100AE0002800630F0306635806023306C0409302D2
:100AF000D0020A8E814F294F6396E6073373D602E0
:100B00003356D602469303430300850F050EA30F09
:100B10006EFE7DF215A0137348009302B0026317B6
:100B2000030093728800B3325000960279F2930664
:100B300000032300D100854FFE8663D3FF00BE86ED
:100B400013781801158F631308046385020063533B
:100B5000E0007D172A86B308E5001303000221A8F0
:100B60008142E9B71373F600118269BF6374B6005E
:100B70002300660005063388C840E34900FF3A8633
:100B80006353070001467D173295118F6388020079
:100B90006374B500230055007D17050563870302C4
:100BA000AA96130800031DA86374B6002300D6019B
:100BB00005063388C840E34900FF3A8663530700BF
:100BC00001467D173295118FE1BF2A86B308E500F3
:100BD000CDB76374B5002300050105053386A64033
:100BE000E3C9CFFEFD56FD1F6383DF0099E7AA87A7
:100BF0003306E5001308000205A06378B50033064C
:100C0000F101034606002300C5000505E9BF63F4B2
:100C1000B700238007018507B306F640E349D0FEFD
:100C20006353070001473A9541018280EFF2FF8B41
:100C30002A84853D09C523AC81806FF05F8DEF006C
:100C4000505075D900D9D5BF0D47AA876376C70024
:100C50009377350091C7AA873E966397C70682802F
:100C600093F7F50F13978700D98F139707015D8FBF
:100C7000B308C500AA87BD463388F84063EB060376
:100C800093574600C156B386D7029207AA970D48DC
:100C900036963383C700BE86B308D3406362180319
:100CA00013572600F156B306D7020A07BA973696AD
:100CB00065B798C3D8C398C7C10723AEE7FE6DBF19
:100CC000910623AEE6FEC9BF8507A38FB7FE71B7B5
:100CD00063F3A504B386C500637FD5029345F6FF91
:100CE0008147FD176393F50082803387F600030880
:100CF00007003387C7002A9723000701DDB7338732
:100D0000F500830607003307F50085072300D700A9
:100D1000E317F6FE82808147E5BF0DC6AA878505E9
:100D20000387F5FF85079306F6FFA38FE7FE09EB20
:100D30003E9685076393C7008280A38F07FED5BFC9
:100D40003686F1FE828001476314E600814705A0E4
:100D5000B307E50083860700B387E50083C7070074
:100D6000B387F640E207E18799E30507F1FE3E8588
:100D70008280AA870387070001E73385A740828026
:100D80008507CDBFEFF2EFF32E89B30B250141119B
:100D90002A8CB68563F5AB001349F5FFFD5BC1698D
:100DA000378A00006284930AB002130B0002FD1917
:100DB000130A8AE139A813075002638AE7026374B1
:100DC00074012300F40013051400B2841386140088
:100DD0002A8483070600E5F363060900637474310F
:100DE000230004003305844141016FF00FF10148F5
:100DF0001307D002930630021305000331A0639E4F
:100E000057011368480026868307160093041600CE
:100E1000E397E7FE13680801FDB763956701136860
:100E20008800D5B76395D70013680802E9BF6395BA
:100E3000A70013681800C1BF138707FDA54663E626
:100E4000E6040147A546294539A03307A7028504D2
:100E50003E97130707FD83870400138607FDE3F61B
:100E6000C6FE038604009306E002FD57631FD60406
:100E700083871400254693861400138507FD636756
:100E8000A60A8147254529433DA09306A0027D5728
:100E9000E399D7FC9841930426009105E35307FC9E
:100EA0003307E040136808016DBFB387670285060A
:100EB000B297938707FD03860600930806FDE37645
:100EC00015FF63D307008147B684838604001306A9
:100ED0008006014593F8B6FF6395C80013F5F60F39
:100EE000850403860400930690066305D60663C74F
:100EF000C60693068005630CD61C63C5C60493071B
:100F00005002630FF61A63767401930750022300B0
:100F1000F4008387040013051400638E071A6374BA
:100F20007501A300F400130524004DB51306A002BB
:100F30006397C7009C4193862400910559B7B684F6
:100F4000814761B7930630066302D60893064006D0
:100F5000E31BD6FA13682800A94699A09306300728
:100F60006306D60C63C5C6029306F0066307D61661
:100F700093060007E319D6F8FD566315D7001368EA
:100F800018002147938C4500C14690411DA8930647
:100F90005007E303D6FC93088007C146E31516F714
:100FA0001306C006938C4500E301C5FE13068006B8
:100FB000E31DC5FC904193752800639205123376BA
:100FC0003601DE852285CD34E68509B51378080122
:100FD00063160802BA879306000231A06374740195
:100FE0002300D4000504FD17E34AF0FE9307F7FF42
:100FF0006343E00005473387E740050793874500D3
:101000006375740194412300D400130514002297E2
:1010100013060002B306A7406344D000BE857DB32B
:10102000637475012300C5000505EDB783AC0500A9
:10103000138D450063930C00D28C66853EC63AC47E
:1010400042C2053BB247AA86124822476355F000C8
:1010500063D3A700BE8613780801631F0800BA8710
:101060001306000239A0637474012300C400050450
:10107000BA877D17E3C9F6FE814763C1D702B687F9
:1010800063D3060081473305F4002A971306000254
:10109000B307A74063C0F602EA850DBB3306F40030
:1010A00063787601B385FC00838505002300B600D4
:1010B0008507E1B7637475012300C5000505C9BF45
:1010C000637474012300C4001305140001B3136892
:1010D0000804C146F1B5FD14D5B9A146D1B5420603
:1010E0004186C5B5A38F0BFEF5B903A5C1818280EA
:1010F000EFF2AFBF03A9C181EFF0AFDA11CD1384D6
:10110000C181AA84084019C1EFF06FEA9305300449
:101110002685EFF0EFE004C04A856FF04FBF828074
:10112000397126CA2ED232D436D62A865410930567
:10113000F007138501B53EDA36C606CE22CC3AD882
:1011400042DC46DE8131AA8603A5C18109E9138507
:1011500001B5F137F2406244D24421618280268693
:101160008354A5011384C18193E70404231DF50072
:101170009307F00763F4D7009306F007138601B5D1
:101180008145EFF06FE81C40239D9700E1B7EFF237
:10119000CFB537850000130505D9593737850000CD
:1011A0001305C5D9B53F3787000037850000130701
:1011B00007DC8D4605468D451305C5DC953737851B
:1011C00000001305C5DEA93F6FF06FB431C9A166F9
:1011D0001377F50F9386C6C711C7BA9603C50600E5
:1011E00005058280C167938707F0E98F89CB218548
:1011F0001377F50F36970345070025058280B7075B
:10120000FF00E98F89CB41859377F50FB69703C52A
:101210000700450582806181369503450500650517
:10122000828003A741825C41BA976306F50283D6A8
:10123000270095E283A60182638FF6009386818260
:1012400090426313F60088C2D44354C1DC43B30612
:10125000E540BA9794C71045B307C7006300F5028D
:1012600083D6270081EE938681828C426393A5000A
:101270009CC25441D4C35C413E9710C78280EFF2B8
:10128000CFA683A5018337850000130545E3493DBB
:1012900083A5C18337850000130585E4513583A5F7
:1012A000C182378500001305C5E59D3D6FF02FA66F
:1012B000EFF2AFA313F7C5FFE1462E8663F1E60612
:1012C00093073500F19B930687FE63EAF6041D8FB2
:1012D000130687FE23A8C1828966511713844182B1
:1012E000938606EAD8C394C323A407001CC0BA9708
:1012F00023A0F182C966938606EAB785000094C3ED
:10130000D8C398C781460546938545EF138501BD2F
:10131000EFF0CFE3184023A4E1826FF04F9FAA853E
:10132000378500001305C5EFE53BC5BFEFF2EF9B26
:1013300039C503A70183130435007198138901830C
:101340008144636A870EB1476373F4003144FD55ED
:10135000138501BDEFF04FE283A7818283A541820F
:101360008328090026853386B740B38688401388D2
:1013700081826368D600138501BDEFF04FE8814498
:101380005DA8B384C50003D7240003AE440061EB1D
:101390003307CE40930F47FF63E38F0C138FC18356
:1013A000938EC1821303840183260F0083A30E0052
:1013B0001389C1839382C18263E26F081307C4005B
:1013C0003297896E3383E500938E0EEA2322C301A0
:1013D0002324C3002320D3010546D8C02391C40091
:1013E00003264300B108630416012E9618C613871E
:1013F000C60022972320E90063F4E30023A0E20063
:101400000967130707EA2390E400639B970083A60C
:101410000182014703D627000DEE19C32320F800EF
:10142000138501BDEFF0AFDD83A78183B10481C7D0
:10143000A2852685829726856FF06F8D05463697A3
:101440002391C4002320EF00E3FCE3FA23A0EE0085
:1014500045BFE384D7FCDC430547AE9765BF728682
:1014600009BFEFF28F883306B5024111328532C6CB
:10147000753D2A8409C532468145EFF0EFFC22858F
:1014800041016FF0CF8845C5EFF28F8483A7418378
:101490002A8491C3829783A741821389418263661C
:1014A000F40883A701826372F408FD55138501BD1A
:1014B000EFF08FCC835764FF930944FF81CB035730
:1014C00044FF8967938707EA6301F70237850000C5
:1014D000130585EAB131835644FF035664FF37850F
:1014E0000000CE85130545EC25398967938707EA07
:1014F000231AF4FE938781829843231B04FE63F42E
:10150000E90023A037011387C1831C43832684FF8E
:101510004E85958F83260900B386D940B6971CC3A4
:101520000933138501BDEFF08FCD6FE0BFFD8280E1
:10153000B7070020938607000147938707002146DD
:101540008C426396A500131547003E9582800507DF
:10155000C106E317C7FE01458280EFE27FF72A84C8
:101560002E85AE89328AE9372A89B12C8324490035
:10157000930749006390F404A52493E909F8230430
:1015800034012146D2852285EFF02FF983A701840B
:1015900099C322858297EF0060790327490093075A
:1015A000C4005CC358C42322F90004C8EF00C0780B
:1015B0006FE05FF584407DBFEFE23FF383A7418496
:1015C0002A8491C3829723040400EF0020765444B8
:1015D00018489307C400D8C214C31CC85CC4EF00E9
:1015E000A0756FE0DFF2EFE2BFEE2E89AA8989379E
:1015F000AA844845253B2A841DCDD0448145EFF07F
:10160000AFE4214623043401A3040400CA852285E3
:10161000EFF0AFF083A7018499C322858297EF0092
:10162000E070D8409307C40091045CC358C49CC0C8
:1016300004C8EF00607022856FE0DFECEFE2FFEAA4
:1016400083A741842A8491C3829723040400EF0076
:10165000E06D544418489307C400D8C214C31CC892
:101660005CC4EF00606D2285393D6FE05FEA0305E1
:1016700085007D81828023900186938701BF138737
:101680000708DCC39CC3A107E39DE7FE3D47238A0F
:10169000E18423AC018423A6018693874186DCC3C1
:1016A0009CC38280EFE27FE403A5C186EFF01FB206
:1016B0007D1593173500138501BF3E95084113072B
:1016C000C5FE210523ACE184EFE09FB36FE03FE46A
:1016D000EFE2BFE1EF008065839701862A89B1E7D9
:1016E00003A5C186EFF09FAE7D15131735009387D4
:1016F00001BFBA9784439387818580439385C4FE55
:101700006305B4028CC383A7C185238AA18499C3CE
:101710002285829783C741811305C4019385840084
:1017200093F7F70F81EBEFE07FAF4A85EF00C060E2
:101730006FE0FFDDEF00A060CDBFEFE21FDB2A848A
:10174000EF00C05E8347440393064401C19B93E7C7
:101750001700230AF4028347540313973700938733
:1017600001BFBA97D84314C318CCD4C35CC89387BD
:10177000C1869443185C558F98C3EF00E05B6FE01F
:101780001FD9EFE29FD62A84EF00405A184C5448E4
:1017900093074401D8C214C35CC81CCC83475403CC
:1017A00013973700938701BFBA979843631AF700DE
:1017B0001387C1861C5C144393C7F7FFF58F1CC3C6
:1017C000A52B6FE0DFD4EFE25FD28D2393870186F4
:1017D00003D7070005072390E700B92B6FE03FD33D
:1017E000EFE2BFD0A1231387018683570700FD17BF
:1017F000C207C1872310F700634BF00023100700D6
:10180000252B83A7818591C3E1356FE05FD02D2320
:10181000EDBFEFE29FCD03A48185092BAA84228529
:101820008D379147230AF4021305C4043926228513
:101830003D3D8547631BF5003C5C81EB2285AD3B5C
:101840002685DD2971356FE09FCC83A6418613077D
:10185000440123A2E186D8C29387418654C81CCC98
:10186000C5B7EFE29FC82A845105411108CC48C88A
:101870000CD050D014D43A8658D493053002368513
:101880003EC642C4EFF04FBC585410544C50085060
:101890007117B72600003A96938626813529B247FC
:1018A00022483726000048CC230BF402A30AF40296
:1018B000232C040281472322040523240405232822
:1018C0000402230A0402232C0406232E04060147E3
:1018D000A2861306068FA2851305C4040D2483A7D0
:1018E000018799C322858297014541016FE03FC27C
:1018F000EFE2BFBF5049144D795718D954C21307AE
:10190000450190C218CD58C90D3DD9336FE03FC095
:10191000EFE2BFBD4111B2842E8685452A84368907
:1019200046C03AC63EC442C2EFF03FC302489247A7
:101930002247B2464A86A6852285253741016FE0B7
:101940001FBD03A581858280EFE29FB841112E89DA
:10195000AA85054532C6B684BA893E8AEFF0BFC86B
:101960002A8411C92685EFF07F9C324609E9228539
:10197000EFF0DFCC0144228541016FE0BFB8AA86B9
:101980005288CE872687CA852285E13DEDB7EFE2F2
:10199000DFB5692E83A781850546AA8603C747035D
:1019A0003D8B631CC702D04B984F6308E60258C2B8
:1019B00010C303C65703938647010E06138701BF62
:1019C00094CF3297504314C290CF54C3D8CBAD2696
:1019D000EFF01FD001456FE09FB33685B12EDDBF1C
:1019E000834745030547BD8B639FE702EFE2FFAFE7
:1019F0002A842D2E83474403AA842285C19B93E722
:101A00002700230AF402EFF0DFD71305C404C92A24
:101A100026851D2683A78187014581C72285829758
:101A200001456FE0DFAE7D558280EFE21FAC4111D2
:101A30002AC6ED2C03A481852A8922855537930473
:101A4000C404700081452685F922268531224A8505
:101A5000E524EFF0FFC71858F9576314F70023285F
:101A60000402014541016FE09FAAEFE21FA8753F04
:101A70006FE0FFA9834745030947BD8B6390E704E7
:101A8000EFE2BFA62A845D245448184C9307440112
:101A9000AA84D8C214C31CCC5CC81305C404892210
:101AA0002685592C2285EFF05FC983A74187014520
:101AB00081C72285829701456FE07FA57D55828091
:101AC000EFE2BFA28346650305473317D70018DD51
:101AD0000947A30AD502230AE502693F83A7818546
:101AE00099C3EFF0FFBE01456FE07FA25449184D46
:101AF00093074501D8C214C31CCD5CC98280EFE2B4
:101B0000DF9E4111B2842E86A9452A8436C63AC486
:101B10003EC2EFF09FA49247B2462247F99BA3042E
:101B2000F4009307440144CC14D02324040258D079
:101B30001CCC5CC841016FE09F9DEFE21F9B2A8493
:101B4000F522AA8422855D372685FD222285EFF0C5
:101B5000BFA601456FE0BF9BEFE23F992A84F922BF
:101B6000AA8422856137834794002685F99BA304C4
:101B7000F400D92283A7C18499C322858297EFE01C
:101B80005FA45C503E9508D45522138781880328B2
:101B9000470037060080938781881346E6FF984305
:101BA0006317F8029386C1879042050690C2930698
:101BB000440154C358C894C31CCC8347940093E792
:101BC0001700A304F4008D2A01456FE05F94544B85
:101BD0000C546385B6008D8EE376D6FCBA87C1B708
:101BE00083479500858B95C7EFE23F9083A781845B
:101BF0002A8491C382971D2AAA842285C53D268501
:101C0000252A834794000145F99BA304F4006FE063
:101C10001F907D55828085476382F50263C5B700BA
:101C20008DC10145828089476380F5028D47E39A23
:101C3000F5FE8347950093E7270011A85C511CC26D
:101C4000CDB71C425CD1F1BF83479500F59BA3043F
:101C5000F500C1BFEFE2FF86EFE0BF962A8CF920C6
:101C6000B70900802A8A9384818893C9E9FF8D4B44
:101C70008040631694005285C1206FE01F88484859
:101C80001309C4FE3305AC40E3E7A9FE83A701882E
:101C900099C34A8582974A85EFF05FE51C44484422
:101CA0008297EFE01F9283A741882A8C99C34A85C7
:101CB0008297834754FF13F7E70FA30AE4FE8D8B47
:101CC000E39877FB4A85EFF03FE95DB7938781881A
:101CD000DCC39CC3828082801106719A2A8837C730
:101CE000ADDE130506F0AA871307F7EE631EF600B4
:101CF000A167938707882322D6F02324B6F22320F6
:101D000006F12324F6F0828098C39107C5B737F710
:101D100000E01C43B7060080D58F1CC3828037F7D4
:101D200000E01C43860785831CC382802165130560
:101D30000580731505308280731005308280EFE2D4
:101D4000CFFA1387818918439387818919E323A8E0
:101D5000A18823AAB188054798C3553F6FE02FFBA0
:101D60002A87814718436314A7003E858280850730
:101D7000D5BFB707EFBE37E700E0938707083CC73A
:101D800001458280EFE26FF637850000130585F389
:101D9000EFF00FB901456FE08FF7EFE20FF52A84FE
:101DA000FD54378900007D14631494006FE02FF612
:101DB0001305096AEFF0CFB6FDB7EFE26FF100410E
:101DC000AA8437890000B7890000631494006FE08B
:101DD0006FF39305C4FE1305496AEFF06FB41C401E
:101DE000638697001385896AEFF08FB30040F1BFD7
:101DF000EFE2AFEF2E89EFE0DFF72A84EFF0BF9C30
:101E000083240900639C2401EFF09F9DA14763C3D5
:101E1000870011E0214422856FE06FEF138544FFB6
:101E2000EFE03FF56353A4002A848440E1BFEFE272
:101E30004FE90545EFF0CFEFB789000013094500E2
:101E40002A84CA851385C91E6537AA85AA84378561
:101E500000001386C91E1305451FEFF06FAC2685E1
:101E6000EFF0BFF33785000013058523EFF04FAB8C
:101E70004040B7890000054A894A378B0000B78B7C
:101E80000000378C0000B78C0000378D0000631510
:101E9000890001456FE06FE60347940213858927A7
:101EA000930644FF2146A685EFF08FA7834784025F
:101EB00013854C28BD8B638E470113050C29638A5B
:101EC00057011385CB2991C711476396E700130586
:101ED0008B2AEFF0EFA44C4C93073002AE8603C779
:101EE00006006306F7021050930740060848B295B3
:101EF000B386D540B386F602585C5C50898D1305D5
:101F00004D2BB3D6C602EFF0AFA1004049B785060E
:101F1000F9B7EFE2EFDB41110945EFF06FE193090B
:101F20004500378900002A84CE851305C918EFF0D3
:101F30003FECAA85AA84378500001306C91813054B
:101F40008519EFF0EF9D2685EFF03FE5378500001E
:101F50001305451BEFF0CF9C4040378A0000B78A3D
:101F60000000378B000063968900014541016FE056
:101F70006FD9035704011C44930644FF13098400DE
:101F800036C63AC44A856306F902EFF07FDD224780
:101F9000B246AA872146A6851385CA1CEFF04F9842
:101FA0004A85EFF09FE113058BFBEFF06F97004040
:101FB0005DBFEFF0FFDA2247B246AA872146A68529
:101FC0001305CA1DEFF0CF95DDB7EFE26FD04111D9
:101FD0001145EFF0EFD593094500378900002A84B9
:101FE000CE85130509FDEFF0BFE0AA85AA843785E9
:101FF0000000130609FD130585FDEFF06F9226859D
:10200000EFF0BFD9378500001305C5FFEFF04F9102
:102010004040378A0000B78A0000378B0000639683
:102020008900014541016FE0EFCD1C441309840094
:10203000930644FF18486309F9024A8536C63AC434
:10204000EFF01FD22247B246AA872146A685138504
:10205000CA01EFF0EF8C4A85EFF03FD613058BFBFA
:10206000EFF00F8C004065BF2146A68513054A039B
:10207000EFF00F8BC5BFEFE2AFC541110D45EFF09B
:102080002FCBB7890000130945002A84CA85138520
:102090008912EFF0FFD5AA85AA8437850000138640
:1020A000891213050513EFF0AF872685EFF0FFCEF9
:1020B0003785000013054515EFF08F864040B7893E
:1020C000000063168900014541016FE0AFC393062C
:1020D00044FF1305840036C6EFF09FC8034834015F
:1020E0005C48B246AA8821472146A6851385491730
:1020F000EFF00F830040F1B7EFE28FBD41111545BE
:10210000EFF00FC393094500378900002A84CE857C
:1021100013058904EFF0DFCDAA85AA843785000076
:102120001306890413050505EFE09FFF2685EFF0F0
:10213000DFC63785000013054507EFE07FFE40400E
:10214000378A0000B78A0000378B00006396890049
:10215000014541016FE00FBB035764018357440100
:102160001044930644FF1309840036C63AC43EC2A5
:102170004A856307C902EFF0BFBE92472247B246C5
:102180002A882146A68513850A09EFE07FF94A854A
:10219000EFF0BFC213058BFBEFE09FF800407DB767
:1021A000EFF01FBC92472247B2462A882146A685F7
:1021B00013058A0AEFE0DFF6D5B7EFE26FB1411100
:1021C0001945EFF0EFB693094500378900002A84DE
:1021D000CE851305090CEFF0BFC1AA85AA84378507
:1021E00000001306090C1305C50CEFE07FF32685EC
:1021F000EFF0BFBA378500001305850EEFE05FF200
:102200004040378A0000B78A0000378B0000639691
:102210008900014541016FE0EFAE035784011C4482
:10222000930644FF1309840036C63AC44A85630600
:10223000F902EFF0FFB22247B246AA872146A685EF
:1022400013850A10EFE0DFED4A85EFF01FB71305A5
:102250008BFBEFE0FFEC00405DBFEFF07FB022476B
:10226000B246AA872146A68513054A11EFE05FEB27
:10227000DDB7EFE2EFA55D712545EFF06FABA1652E
:10228000130600052A8413094500938545BE0A8577
:10229000EF50F002B7890000CA85138589F6EFF088
:1022A0003FB5AA85AA8437850000138689F61305F1
:1022B00005F7EFE0FFE62685EFF03FAE378500003B
:1022C000130585F9EFE0DFE54040D149378A00008A
:1022D00063168900014561616FE0CFA21C4493063B
:1022E00044FF63E1F90298088A07BA9703A707FB3E
:1022F000834704012146A6851305CAFBEFE05FE290
:102300000040F9B74647EDB7EFE28F9C2945EFF063
:102310002FA2B7890000130945002A84CA851385B6
:10232000C92DEFF0FFACAA85AA843785000013867B
:10233000C92D1305452EEFE0BFDE2685EFF0FFA582
:10234000378500001305C530EFE09FDD4040B789B9
:102350000000378A0000B78A0000631E8900EFE0A2
:102360004FA6AA853785000013054536EFE05FDBF1
:1023700001456FE02F995C4C184C13850933930687
:1023800044FF2146A685EFE0BFD98347D4FF1385DC
:102390008A34858B99E313054A35EFE07FD80040F6
:1023A0006DBFEFE2EF9237850000130505F4EFE013
:1023B0003FD703A4018AB7890000378A000083A7AA
:1023C000418A6365F40001456FE0CF9304400946FC
:1023D000938549F52685EF50207E19C55040A68586
:1023E00013058AF5EFE0DFD33104D1BFEFE24F8E62
:1023F0003795000013054580EFE09FD203A4018AC2
:10240000B7990000379A000083A7418A636BF400F4
:1024100037850000130585FBEFE09FD001456FE095
:102420006F8E04401946938509822685EF50C07847
:1024300001E950409385640013058A82EFE05FCE86
:102440003104D9B705458280EFE28F8879712A84FB
:10245000AA9593060002254783070400B3848540AC
:102460006385D70A6383E70A0145638B041001493A
:1024700013070002A546B307240183870700638A78
:10248000E7086388D7086314990883A9018A83AA97
:10249000418A379B000063F0590903AA09001946D5
:1024A00093050B825285EF50207159E54A86A2852B
:1024B00013056A00EF50407041E14A9A83076A00B1
:1024C000A5EF83A98900638809041306800281456A
:1024D0002800EFE08F8413098100CA86A287014596
:1024E000014713080002A548294313062002130ED2
:1024F000C005838507006384050163961505631F86
:102500009702A9476303F50469A80504B1B7050953
:102510009DB7E31C09F6A287038707001377F7FD31
:1025200079E7378500001305C57E23800700A28563
:10253000EFE01FBF7D55A9A0B109B1BF23800700FF
:10254000050785077DB7631065043785000013050F
:10255000857CEFE0FFBC0018B784000083250900EC
:102560001385847E1109EFE0BFBBE31989FE37852F
:102570000000130585FBEFE0BFBA29452C008299C6
:1025800045616FD03FF8637E970005056392C504EF
:10259000850705079CC2838507006381C5026364C4
:1025A000970069FD8DBF838E17006396C501639404
:1025B000CE008507050785070507F1BFE37397FE82
:1025C00023800700050785079106E36497F2D1BFD2
:1025D0009CC2838507006389050163871501E302B7
:1025E00097FC85070507F5B7E36097FE5DBF850794
:1025F00025B7EFD21FED8307050099E78145014517
:10260000EFF0DFDE6FD07FEF03AA018AAA89814451
:102610000149379B0000B79B000083A7418A63698B
:10262000FA00EDD04A86A6854E85EFE00FEFD9BFC0
:1026300003240A00194693050B822285EF50C057E8
:1026400021E14E85EF50205619042A86A2854E8539
:10265000EF50805615E5631709002285EF50A0540E
:102660002A89A284A68722870386070001EE858F28
:1026700063D327013E89A28513850B83EFE05FAA10
:10268000310A61BF83060700FDD2E312D6FE85073B
:102690000507D9BFEFD27FE5EFF06FF901456FD0A5
:1026A0001FE7EFD29FE4EFE09FBD01456FD03FE60B
:1026B000EFD2BFE303A5C189EFE06FB401456FD04E
:1026C0001FE5EFD29FE2B79700009387877423A09E
:1026D000F18AB7A700009387878923A2F18AB7A759
:1026E00000009387878923A4F18AB7A70000938706
:1026F000878993050021054523A6F18A1384C189A2
:10270000EFE03FD608C019E9379500001305458E64
:10271000EFE01FA17D5422856FD07FDFB735000029
:1027200037950000A9472D47930600400146938541
:1027300025841305C58FEFF02FA1AA840840B79513
:1027400000008146014693854590EFE02FA00144AB
:10275000F9D02685EFF0CFB67DBFEFD21FD9EFF0CD
:102760007FCE0DC5B79500009385058B138501C7F6
:10277000EF504042B79500009385058C138501C743
:10278000EF50403F138501C76FD07FD8B795000049
:102790009385858BE1BFEFD25FD52A843795000002
:1027A00013050592EFE0DF97EFF03FFBAA85379521
:1027B00000001306A41B13058592EFE07F960145E8
:1027C0006FD0FFD4EFD27FD241112AC6EFD07FED78
:1027D000B24511E9379500001305458CEFE05F9491
:1027E00041016FD0DFD283A7C189AA841384C18934
:1027F00083A7C720E386A7FE93053014EFD05FF2CE
:1028000065F11C4003A5C72009C9EFD05FFA1C4041
:10281000814503A5C720EFE00F81004013060005A6
:1028200081451305A41BEFD05FCFB725000023150A
:102830000420232694209385056B2685EFD0BFFEC8
:1028400045B7EFD29FC783A7C18941119384C1893E
:1028500003C74702136717002382E70283A7C72035
:1028600091E7EFE09F8819C1EFF0DFF5EFF0FFEEA1
:10287000EFE01F8B379B0000B79B0000B79900006B
:10288000378A0000B79A0000378C0000B79C000020
:102890009C4085461306F10003A5C720FD55EFD0E7
:1028A000DFF48547631AF5000309F100ED47804026
:1028B0006319F90008D0E9BF8840FD55EFE0CF8BE0
:1028C000C1BF1C506392A7029307B0056315F900BE
:1028D00089471CD075BF23200402E30B09FAA547E2
:1028E000631BF9120149CDA00947E398E7FE2320B5
:1028F0000402930710046314F90483556402C9D9D0
:10290000FD15C205C1812313B4029307A41B13074D
:102910000005B385E502130600053E859385A502F3
:10292000A295EF50C019EF5000281375F50F23053D
:10293000A420A305A4202285EFF0FFE591BF930713
:1029400020046316F90283568402835764021387B6
:10295000F6FF63DAE70085072313F4029307A41B4D
:10296000835564026DB78DD62313E402C5BF930768
:1029700040046310F9028347B42099DB1385C990A2
:10298000EFE00FFA98408347B720FD17A305F72023
:1029900001B793073004E312F9F48347B4200347E7
:1029A000A420E3F7E7EE3E948305A41B13850A9168
:1029B000EFE00FF798408347B7208507C1BF138525
:1029C000C990EFE0EFF5050980408347B420E34864
:1029D000F9FE13058AFBEFE0AFF4EFF0BFA68547E1
:1029E0001304A41B6315F5002285EFF09FC0EFF0E0
:1029F000DFD62286AA8513858C92EFE06FF28040A5
:102A00001305A41BEF50201A1375F50F2305A420FE
:102A1000A305A420B5BD9307F0076305F900A147FE
:102A20006315F9088347B420E38407E60346A4202E
:102A3000FD1793F7F70F7D161376F60F2305C420C5
:102A4000A305F42063F8C7049385B71B1385A71B60
:102A50001D8EA2952295EFE0AFA79C4013854B9168
:102A600003C7A7203E97230D071A83C5B720938578
:102A7000A51BBE95EFE0CFEA9C4003C4B7209C4065
:102A800083C7A720E3C687E01385C990EFE04FE92D
:102A90000504F5B71305CB91EFE08FE89C4003C721
:102AA000A720BA97238D071AE5B335478347A4209B
:102AB0006305E90029476313E910A1CF0359840294
:102AC0009147130DA41B63FE2709930DA41613064B
:102AD0000005EA856E85EF40307C05CD1309A40220
:102AE0004A851309090513060005CA85EF40307DA4
:102AF000E3982DFF1306000581456E85EFD0FFA1F9
:102B00000346A420EA856E85EF40707B9547231429
:102B1000F402835784022313F402EFF0BF92854737
:102B20006312F5029C4083C74702858B89C7130552
:102B30008AFBEFE0EFDE88408345A5201305A51B47
:102B4000EFF09F90EFF07FC1EFE08FDD8040130644
:102B5000000581451305A41BEFD03F9C23150420DD
:102B600005BB630109021305F9FF9307000533054F
:102B7000F50213060005EA851305A5022295EF402C
:102B8000B07141D9930D00053305B9031306000553
:102B900081451305A5022295EFD03F980355840285
:102BA0000346A420EA853305B5031305A502229543
:102BB000EF40F07083578402850791BF1307F0043C
:102BC0006374F700230504200346B4208347A42040
:102BD0006370F6089305A61B1305B61BA2953386F2
:102BE000C7402295EFE0CF8E8C4083C7B520338756
:102BF000F500230D271B03C74502058B01CB9387E7
:102C0000A71BBE9513054C6AEFE08FD19C4003C40F
:102C1000B7209C4083C7A7206346F40298408347AF
:102C2000A7208346B7208507850693F7F70FA305EE
:102C3000D7202305F7209306F004E3FBF6C4231501
:102C40000720B9B11385C990EFE08FCD0504D1B746
:102C5000A297238D271B83474402858BE1D3CA8526
:102C600013850A91EFE0CFCB55BF7C4123280504A3
:102C7000232A05049C4381CBEFD23F87930585042B
:102C800082976FD0DF8801458280EFD27F843689BA
:102C90008DCEAA843284B309D600294A8347040022
:102CA000639C470183D7A40193F7070491C7FC40B5
:102CB000B54526859C478297FC4083050400268500
:102CC0009C4705048297E31B34FD4A856FD09F83A0
:102CD000EFD2BF8193F705102A8499C70357850166
:102CE00061551377071049C713F7054019C70357F4
:102CF000840161551377074025CF13F7050493042A
:102D0000000409E78354A40193F40404384893F5BC
:102D1000F50F231DB40039EFB1C76844298142057E
:102D200041813105EFE08FE070442A893105298225
:102D30004206418281452320A900EFD0FFF02322E3
:102D400009008357A401232409002328240593E7BD
:102D50000710231DF4007C4013060010C145DC431E
:102D6000228582978357A4010145DD8C231D9400A1
:102D70006FD0EFF9E5DB93E50510231DB400DDB757
:102D80000948AA8763830503EFD22FF60D486386AF
:102D900005030547639EE504035785011377F7FD97
:102DA000231CE50001456FD08FF60357850113679B
:102DB0000702231CE50001458280328765D6504218
:102DC00074458345C5012982A9824206C206418213
:102DD000C1826304D6001D45F9F51443B4C75443BA
:102DE000F4C7E9D1F443BA853E85944282965DBF2B
:102DF0007C41DC43829745BFEFD28FED3684A9CE6C
:102E00008357A501AA89328993F70710B6849DE3F9
:102E10007D5AA94A83A749044E85DC4782976309F6
:102E200045012300A900FD14050963035501FDF0C8
:102E3000058C1DA02449368A854AEFE03FEF83D7F1
:102E4000640003D744002A869444631AF70081EA99
:102E5000EFE09FEE3304444122856FD0AFEA984003
:102E60003E97034B070003A7C9048507C2072983C0
:102E7000C18342072393F400418363E4E700239373
:102E800004006394560123A404003285EFE0DFEAD6
:102E90007D1A230069010509E3110AFA65BF03479A
:102EA000C501854763EFE7028357A50193F7071034
:102EB0008DCBEFD28FE32A842849EFE0CFDC835714
:102EC000A401232804041306001093F7F7EF231D31
:102ED000F4007C40C5452285DC43829701456FD0D4
:102EE0000FE301458280EFD24FE037370000130730
:102EF000A7C618D537370000130707CD58D5373781
:102F000000001307E7E918D937370000130787DFF8
:102F100058D9373700001307A7C818DD3737000026
:102F2000130707D8420658DD34C14182232A050021
:102F30002320050223220502EFD04FFB6FD02FDDA7
:102F400093F5F50F85476399F50AEFD26FD82049BD
:102F50004111AA847D598549FC402685DC4782972A
:102F60002A8A630D2505EFE07FDC035744001C40EF
:102F7000BA972380470183574400F8448507C20766
:102F80002983C18342072312F400418363E4E700ED
:102F9000231204008356640083574400639DD700C6
:102FA0008507C207C1832313F4002324340163E49B
:102FB000E70023130400EFE03FD879BF9C5095C38E
:102FC000EFE0DFD60357440083556400636EB7001B
:102FD000B305B7402EC6EFE03FD69C50B2452685DC
:102FE000829741016FD00FD2FC44998DA983C2070B
:102FF000C183B385B740F9BF828011CEEFD2EFCE47
:103000007841B28783D507001843035626000297FC
:1030100001456FD0CFCF7D558280EFD20FCD138782
:1030200041CF78432E86AA851843138541CF029756
:103030006FD0EFCDEFD26FCB138741CF78432E8681
:10304000AA855843138541CF02976FD04FCCEFD25A
:10305000CFC9138741CF7843AA85138541CF18473D
:1030600002976FD0CFCA15C611476394E602EFD21C
:10307000CFC77C418355060041119C4736C632C4F8
:1030800082972246B2462311A600368541016FD0B1
:103090000FC88146368582800DC6B287114663927D
:1030A000C602EFD28FC4784103D6270083D507002C
:1030B0005843411136C60297B246410136856FD05A
:1030C0000FC5814636858280EFD22FC2938741CFCC
:1030D0004947D8CB3737000013076706D8DB3737A7
:1030E00000001307870998DF373700001307A7FF91
:1030F000ECC3B0C3AA850D46138541CF23A00702B8
:1031000023A2070223A4070223A6070223A807027B
:10311000D8DFEFD0AFDD01456FD06FBF370500209E
:103120001305C5688280371500201305C5688280A5
:10313000EFD2AFBBB707002003A707159307803E68
:10314000C1563357F702B7E700E02386D7402387FD
:10315000D740856623A0D710916623A0D710B7F774
:1031600000E023A0070023A20700014690C7814684
:10317000D4C781461306F7FF90CBD4CB3D4798C305
:10318000EFD00FC8EFF09FF92A84EFF0DFF9AA859E
:103190002285EFE0EF91379500001305059AEFD0F7
:1031A0003FF56FD0CFB681478546130700023396AF
:1031B000F6006306A6008507E39BE7FEFD573E8504
:1031C0008280EFD28FB2854513050002EF10900E7A
:1031D0006FD0EFB3EFD26FB185452145EF10900D61
:1031E0006FD0EFB2EFD26FB085451145EF10900C64
:1031F0006FD0EFB1EFD26FAF85454145EF10900B27
:103200006FD0EFB0EFD26FAE854513050004EF101D
:10321000700A6FD0CFAFEFD24FADA56537950000E4
:1032200001469385859A13050509EFF0FFE96FD0F4
:103230000FAE9307400663ECA70093174500256582
:10324000130505A43E951841FD576313F70001458A
:103250008280EFD28FA9411113F5F50F32C6EFF03E
:103260005FFD19C58355C50032460845EF10E06281
:1032700041016FD0CFA9EFD24FA713F5F50FEFF0B3
:103280005FFBAA87014591C783D5C7008847EF1028
:1032900020606FD0CFA7EFD24FA5011113F5F50F26
:1032A0003284EFF01FF90DC55C412AC68297324582
:1032B0005C45231AF100C1473ECE8D473ECC09C480
:1032C0001547631AE40002CE08454C08EF10205061
:1032D00005616FD0CFA305476315E40091473ECE4B
:1032E000E5B76315F40093078002D5BF89476315DE
:1032F000F40093078004E5B791476314F400D147C5
:10330000F9BF99476314F400F147D1BF9D47E31D0E
:10331000F4FAE147E9B7EFD2AF9B13F5F50FAE84AE
:10332000B289368A3A89EFF0DFF0994739CD4845BE
:10333000EFF07FE73D472A8499476368A704EFE0F1
:10334000FF9EB146B306D402B707002013870708D3
:103350002A8693870708369783160700639096029C
:103360004C43639D450183552700639935011847F8
:1033700063162701EFE05F9C814701A87D576389B1
:10338000E6003285EFE05F9B9D473E856FD08F97CB
:1033900031453305A4023E952310950023224501B3
:1033A00023113501232425013285E9B7EFD2EF93AC
:1033B00013F5F50FEFF0FFE719471DC94845EFF08A
:1033C0009FDEBD472A84194763E4A702EFE01F96FA
:1033D000B1473304F402B7070020938707087D57ED
:1033E000A297839607006398E600EFE0FF940147F9
:1033F0003A856FD0CF9141677D1798C323A207000C
:1034000023A40700DDB7EFD2AF8C011113F5F50F40
:10341000328AEFF01FE2994721C185442A8463165E
:103420009A104845EFF03FD83D47AA849947636515
:10343000A702EFE0BF8FB14AB387540337090020DA
:1034400013090908AA893E9903170900FD57631952
:10345000F700EFE07F8E99473E8505616FD08F8A38
:103460005C40829785450545EF10C0645C440D477C
:103470003AC42312F1003EC88357290002CA52CE33
:10348000638C4709C1C70947638DE70808444C00AE
:10349000EF10E0331844B7170140938607C0054585
:1034A0006302D7020945630FF700938707400D4574
:1034B000630AF700B727014093870780014563132C
:1034C000F700114593F5F40FEF10C03D0808EF1019
:1034D0006029A5679387079C8E04BE94D04037E788
:1034E00000E093060005B307C7002380D740935739
:1034F00056009387070485468A07B396C600BA9795
:1035000094C34E85EFE05F838147B9B7930780028C
:103510003EC6A1473ECC9DBF930780043EC656CC15
:10352000B5B791473EC6C147F5B79947E3160AF2CA
:103530004845EFF05FC73D479947E36FA7F0931702
:10354000350025651305059C3E9558419357570056
:1035500093870706B394E4008A0737E700E0BA9739
:1035600084C35DB701458280EFC23FF89C41204192
:10357000A14641111CC0B1472315F400DC412316BC
:10358000040013F7F7006302D702A546631FD700B4
:1035900005672312E40013D747000D8B01C785464A
:1035A0006308D7002313040039A023120400E5B7F1
:1035B00009672313E40099838D8B05476389E7002E
:1035C00081C70947638CE7062314040029A09307E9
:1035D00000602314F4001848B74701409387078020
:1035E000631AF704116585451105EF10A04C930788
:1035F0000020B71401402312F1000D49E1474C00AF
:10360000138504803EC64AC4EF10601C9307004037
:103610002312F1004C009147138504803EC64AC432
:10362000EF10E01A0848A285EF10C05D08488545F4
:10363000EF10C06A014541016FC07FED9307004064
:1036400049BFEFC2FFE8B71400201384446E93070C
:1036500050035CC837190020B74701401306C968FA
:103660009387078074461CC8A567938747097CC267
:10367000B70700C0F58FC166A10671671307072061
:10368000D58F1165411138C67CC68545B7070C003A
:10369000110518C01CC42322040023160400EF10D7
:1036A0006041B7190140930700202312F1000D4A31
:1036B000E1474C001385098052C43EC6EF1020112B
:1036C000930700402312F1004C00914713850980B5
:1036D0003EC652C4EF10A00F08489385446EEF1009
:1036E000605208488545EF10605FB79500009386EB
:1036F000446E130630109385059A1305C968EFF0E0
:103700008FFE014541016FC0FFDFEFC21FDE204188
:10371000930500020848EF10806101C91C4803D5D9
:1037200047001375F50F6FC09FDE7D55EDBFEFC2EB
:10373000DFDB24412E84884893050004EF10205FCE
:103740007DD99C48420441802392870005456FC083
:103750001FDCEFC29FD9C1473841638BF502C547D3
:103760006395F502544B054693D756009387070699
:103770003316D6008A07B7E600E0B69790C3014635
:10378000084B93055052EF10205701456FC03FD8AA
:10379000544B054693D75600938707043316D6003B
:1037A0008A07B7E600E0B69790C30546D1BF1D7102
:1037B000A2CEA6CC82E686E48AE28EE012FE16FC59
:1037C0001AFA1EF82AF62EF432F236F03AEE3EECF1
:1037D00042EA46E872E676E47AE27EE0731101346A
:1037E000B7140020EFD0EFA59387C468A0439305DA
:1037F00050520848EF10605419C985451385C468B4
:10380000EFF00FF4084893055052EF104057EFD0F7
:103810004FA6731101347644E6443660A660166103
:1038200086617272E2725273C2733275A275127639
:1038300082767267E2675268C268326EA26E126F59
:10384000826F2561730020305D7182E686E48AE232
:103850008EE012FE16FC1AFA1EF82AF62EF432F248
:1038600036F03AEE3EEC42EA46E872E676E47AE278
:103870007EE073110134EFD0CF9C37950000130523
:10388000450BEFD0FF89EFD0CF9E73110134366026
:10389000A660166186617272E2725273C2733275EB
:1038A000A275127682767267E2675268C268326EDB
:1038B000A26E126F826F6161730020305D7182E6CB
:1038C00086E48AE28EE012FE16FC1AFA1EF82AF648
:1038D0002EF432F236F03AEE3EEC42EA46E872E678
:1038E00076E47AE27EE073110134EFD08F9537955C
:1038F00000001305850AEFD0BF82EFD08F977311B8
:1039000001343660A660166186617272E27252738B
:10391000C2733275A275127682767267E267526858
:10392000C268326EA26E126F826F616173002030C6
:10393000EFC23FB93724002079719307C45F22F6A4
:1039400026F456EC5AEA5EE862E607AB870007AC5D
:103950004700806387AA870187AB4701846BB797CD
:10396000000003A9871683A9C716B79700004AF27B
:1039700007A907164EF052EEAA84130B051813047C
:10398000C45F4A8ACE8A5305842053748401EF10A1
:10399000A047D379AB1053058420EF3030484A86D6
:1039A000CE862A8CAE8CEF209022635CA0004A86E3
:1039B000CE866285E685EF30A01DEF30B05453040B
:1039C000A52053859420D3F47401EF10E04353FAFB
:1039D000AA1053859420EF3070445286D6862A8CE4
:1039E000AE8CEF20D01E635CA0005286D686628526
:1039F000E685EF30E019EF30F050D304A520C3770F
:103A00002A919104D39717C0C3F72991C2075397FE
:103A100017C042074183D98F23AEF4FEE39564F7C4
:103A2000272E44012726340104E800E0A2743274F2
:103A300012798279726AE26A526BC26B326C4561AA
:103A40006FC0BFAB371501401D71130505800546DA
:103A500093050004A2CE82E686E48AE28EE012FE9E
:103A600016FC1AFA1EF82AF62EF432F236F03AEE66
:103A70003EEC42EA46E872E676E47AE27EE037041B
:103A80000010EF00906113050420EF00304C2DC1B1
:103A90009387418B9843372500201305C5FF050701
:103AA00098C3EFF0FFE813050420EF00F04A371544
:103AB000014001469305000413050580EF00F05D09
:103AC00076443660A660166186617272E272527345
:103AD000C2733275A275127682767267E267526897
:103AE000C268326EA26E126F826F25617300203041
:103AF00013050440EF0090455DD99387818B98436F
:103B0000372500201305C5E7050798C3EFF05FE2EE
:103B10001305044059BF371501405D711305058039
:103B200005469305000482E686E48AE28EE012FEF2
:103B300016FC1AFA1EF82AF62EF432F236F03AEE95
:103B40003EEC42EA46E872E676E47AE27EE0EF0096
:103B5000D0549387018B98430945050798C3EF001C
:103B6000F03E21C50945EF00303F371501400146C1
:103B70009305000413050580EF0030523660A660FF
:103B8000166186617272E2725273C2733275A275E7
:103B9000127682767267E2675268C268326EA26EEF
:103BA000126F826F6161730020301145EF00103A8F
:103BB0004DDD11454DBFEFC25F9341119307A01436
:103BC0002314F100280085473EC623150100EF00AD
:103BD0003050ED4728002304F100EF00704F410101
:103BE0006FC0FF92EFC27F9001118545114502C25F
:103BF00002C402C602C802CA02CC02CEEF00906B19
:103C0000854537050020EF00D06C3714014093073D
:103C100000032312F1004C008D47130504803EC4BD
:103C200002C6EF00D03A930700042312F1004C00C3
:103C3000C147130504803EC6EF007039B1470C0838
:103C400001453EC802CA02CC02CEEF0090000C082B
:103C50004145EF00100085450145EF009002854584
:103C60004145EF00100285450145EF0050048545B0
:103C70004145EF00D0031306103293053012014581
:103C8000EF00B00505616FC09F88EFC21F86797194
:103C90001306C00281454800EFC03F8885450945AD
:103CA000EF00705F4800EF00501FB7770040938728
:103CB00007423EC2B72700209387C7E73EC4C147EB
:103CC0003EC69307000C3EC8930700083ECC9307FE
:103CD00000203ECE856793870780370402403ED0A0
:103CE000930700023ED24C008D67130504433ED477
:103CF00002CA02D6EF00F0161305044305468945B3
:103D0000EF00D01D0546130504439145EF00101D3B
:103D1000854513050443EF00301B45616FC02FFF3D
:103D2000EFC2AFFC7971130600028145080802C298
:103D300002C402C6EFC06FFE85451145EF009057E3
:103D400085452145EF00105785454145EF009056C8
:103D5000854513050020EF00F0558545130500400B
:103D6000EF0050550D44930700034C0037150140F8
:103D70002312F10022C4B714014002C6EF0030251F
:103D8000B1474C00138504C02312F10022C402C6BF
:103D9000EF00F023BD474C00138504802312F1008F
:103DA00022C402C6EF00B0228547372401403ECA34
:103DB0002302F102B70700043ED40C08B70708003D
:103DC000130504403ECE02C802CC02D0352B1305A9
:103DD000044085459D2513050440854605468545D7
:103DE0004D238546094613050440C145592B13054B
:103DF00004408545B52B8545130504409523456151
:103E00006FC0EFF0EFC26FEE79711306C00281450B
:103E10004800EFC08FF085450545EF00D0473704D7
:103E2000024013058400C12DB72701409387C74482
:103E30003EC2B71700209387C76F3EC49307000C9C
:103E40003EC8930700083ECC930700103ECE930770
:103E500000403ED0930700023ED24C008D67130510
:103E600084003ED402C602CA02D6EF00807F4561BC
:103E70006FC0EFE9EFC26FE741118545096502C2E6
:103E800002C423160100EF00F0424800EF00505238
:103E9000373401409307B05D4C00130504403EC425
:103EA00002C2EF00F0441305044093050002EF0046
:103EB0007053130504408545EF00105185450945B1
:103EC000EF0030414800EF00B04E370400404C0096
:103ED00013050440EF00D041130504409305000290
:103EE000EF005050854513050440EF00F04D4101AF
:103EF0006FC0EFE1EFC26FDF5375A5002A84EF308A
:103F0000E071B797000003A6071583A64715EF20B9
:103F1000C062B797000003A6871583A6C715EF10E8
:103F2000704CEF30207E48E06FC06FDEB707002096
:103F300083A50715379500001D711305850F86CEE3
:103F4000A2CCA6CACAC8CEC6DAC2DEC062DE6ADAAF
:103F50006ED822F626F44AF24EF052EE56ECD2C457
:103F600066DCEFD0EF9B3795000013058510EFD08E
:103F70002F9B379700008727870D3724002037971E
:103F800000009307C45F0727C70D37970000DCE3E5
:103F9000DCEB8727070E98E7B79400009CEFEFF063
:103FA0009FC1EFF03FC4EFF05FCEEFF07FD7EFF0AF
:103FB0007FE5EFF03FECB797000003A8C70E83A79B
:103FC000870E37990000B79900003EC4B7970000EC
:103FD00003AB070F83AB470FB797000007AA070D86
:103FE000B797000007A4440C8729890C07A9C90CBE
:103FF000D30400F087AA470E014D014C814D42C603
:10400000EFC02FDCB30685414D472A8A6372D7047F
:10401000B72700209387C75F84EFD3F4240153852B
:104020009420EF30A05F2246B2462A8CAE8CEF205F
:1040300060456354050007A9C90C62855A86DE866F
:10404000E685EF20C038528C6354A00053094A2102
:104050003307AA419306300663F9E602530584202C
:104060001305C45FEFF01FE95374340153878AA02E
:1040700009C7379700008729470D87A7440C528D41
:104080005307F4A019C38729890C3307BA41930653
:10409000703E63F3E6029305803EB355BA0203A770
:1040A000018B83A6818B03A6418B379500001305F6
:1040B0004512D28DEFD0CF861545EFD01F9B89B723
:1040C000B71702409843B706FFF84111136717006E
:1040D00098C3D84337060200758FD8C39843B706F4
:1040E000F7FEFD16758F98C39843B706FCFFFD16C3
:1040F000758F98C3D843B70681FFFD16758FD8C357
:104100009843B70600ECFD16758F98C33707FF007C
:1041100098C723A6070202C402C69843C166558FFA
:1041200098C3B716024005679C42F18F3EC6A2476E
:1041300085073EC4B24781E7A247E397E7FEB7177A
:1041400002409C431397E7006356070685473EC627
:1041500032478547631EF704B7170240D843B706B6
:10416000C1FFFD16D8C3D843D8C3D843136707404F
:10417000D8C3D843758FD8C3D843C166558FD8C329
:104180009843B7060001558F98C39843931667006C
:10419000E3DD06FED843B7160240719BD8C3D8436F
:1041A00013672700D8C32147DC42B18BE39EE7FEAB
:1041B0004101828002C669BF01A001A001A001A047
:1041C00001A001A001A001A001A001A001A001A0E7
:1041D00001A001A001A001A001A001A001A001A0D7
:1041E00001A001A001A001A001A001A001A001A0C7
:1041F00001A001A001A001A001A001A001A001A0B7
:1042000001A001A001A001A001A001A001A001A0A6
:1042100001A001A001A001A001A001A001A001A096
:1042200001A001A001A001A001A001A001A001A086
:1042300001A001A001A001A001A001A001A001A076
:1042400001A001A001A001A001A001A001A001A066
:1042500001A001A001A001A001A001A001A001A056
:1042600001A001A001A001A001A001A001A001A046
:1042700001A001A001A07390123497C1FF1F938188
:10428000616D17C100201301E1D717550000130518
:10429000A56297C5FF1F9385E5D61386818063FAD3
:1042A000C5008322050023A0550011059105E3EA0E
:1042B000C5FE1385818097E5FF1F9385653663777B
:1042C000B500232005001105E36DB5FEFD42739096
:1042D00002BCFD4273904280B7820000938202804C
:1042E00073A0023097C2FFFF938242D593E232005F
:1042F00073905230EFF0DFDC97C2FFFF9382023AF7
:1043000073901234730020305C413707F1E01307DB
:10431000F7EF944D7D8F9C41D58FD44DD58FD441EF
:10432000A206D58FD98F5CC11C4537F7F1FF130763
:10433000D77FD4457D8F9C49D58F94458606D58FF0
:10434000D98F1CC55C55370710FF7D177D8F83C73C
:104350004501FD1793F7F70FD207D98F5CD58280FF
:104360001C4589C593E717001CC58280F99BEDBFEA
:104370001C4589C593E707101CC5828093F7F7EFAA
:10438000E5BFA54763F7B7048D47138765FF33077C
:10439000F7020328C5009D47B397E70093C7F7FFCF
:1043A000B3F70701B396E600DD8E54C5994763E382
:1043B000C70495477D163306F6025859FD47B39753
:1043C000C70093C7F7FFF98F3396C5005D8E50D9AC
:1043D00082800D473387E502032805019D47B39787
:1043E000E70093C7F7FFB3F70701B396E600DD8E4A
:1043F00014C96DBFB14763E2C7029547651633061E
:10440000F6021859FD47B397C70093C7F7FFF98F16
:104410003396C5005D8E10D9828095474D163306C0
:10442000F6025855FD47B397C70093C7F7FFF98FBA
:10443000B395C500DD8D4CD582801C4591C53707ED
:104440001000D98F1CC582803707F0FF7D17F98FC8
:10445000D5BFB7760040056783A7064079173317A5
:10446000A7001347F7FFD0417D8F9C41D18F904526
:10447000D18FD045D18FB397A700D98F23A0F64015
:10448000828085473395A70089C937770040832705
:1044900007405D8D2320A7408280B777004003A7A7
:1044A00007401345F5FF798D23A0A74082808567DB
:1044B0003395A70089C937770040832707405D8D72
:1044C0002320A7408280B777004003A70740134509
:1044D000F5FF798D23A0A7408280A147631BF500DB
:1044E000A205B777004093870742D18D3E950CC156
:1044F0008280C205FDB71C4141677917F98F1CC145
:10450000232005002322050023240500B7070240CD
:1045100023260500138787006317E500D843136738
:10452000F700D8C382801387C7016316E500D8431C
:104530001367070FFDB7138707036318E500D84318
:104540008566938606F0558FE9BF13874704631588
:10455000E500D843BD66C5BF138787056316E50030
:10456000D843B7060F00C5B71387C7066316E50023
:10457000D843B706F000C1BF138707086316E500EC
:10458000D843B706000FC1B7138787406319E5000A
:1045900003A747401367F70023A2E74082801387F1
:1045A000C7416317E50003A747401367070FEDB73F
:1045B00093870743631BF500B707024003A74740F3
:1045C0008566938606F0558FC1BFB70702401387F3
:1045D00047446316E50003A74740BD66EDB7138760
:1045E00087456317E50003A74740B7060F00E1BF03
:1045F0001387C7466317E50003A74740B706F000D7
:10460000D9B7138707486317E50003A74740B706E4
:10461000000F55BF138707496319E50003A7474DEE
:104620001367F70023AAE74C82801387074A6317B2
:10463000E50003A7474D1367070FEDB71387074B37
:104640006319E50003A7474D8566938606F0558FED
:10465000D1BF1387074CE319E5FC03A7474DBD669F
:10466000FDB71C4161773D0794517D8F9C45D58FE7
:104670009449D58FD449D58F944DD58FD44DD58FAE
:10468000D451D58F9455D58FD98F1CC1DC455CC1D1
:104690009C411CC5DC415CC582802320050023228F
:1046A0000500232405002326050023280500232ACE
:1046B0000500232C0500232E0500232005022322BC
:1046C00005022324050282801C4189C593E7170057
:1046D0001CC1828041677917F98FDDBF1C4101C67B
:1046E000DD8D0CC1828093C5F5FFFD8DDDBF931775
:1046F000350063DA0700B707024083A707407D8DC6
:104700003335A00082809317250063D70700B707D1
:10471000024083A7074DE5B7B70702409C43C5B7E2
:104720009317350063D70700B707024023A2A740BD
:1047300082809317250063D70700B707024023AA9A
:10474000A74C8280B7070240C8C38280EFB2FFD96E
:10475000EFF0FFF96FB0BFDBEFB23FD9EFF05FFCD6
:104760006FB0FFDA5841032805004C453706014079
:10477000930706403E979346F8FFB1C58325064050
:10478000F58D2320B640D043F18ED4C31443B3E655
:10479000060114C3184190479346F7FF758E90C7E2
:1047A000D047F18ED4C7144541466399C60094475B
:1047B000D98E94C7D447558FD8C78280B697944373
:1047C000558F98C382801C43F58F1CC382809C4503
:1047D00013F7070113F8F70001C7D8413368E80061
:1047E00083D5050013F7F50F39C318418146854E6F
:1047F0003D4F930F800293028004214E3396DE00DA
:10480000B3F8C500631116039398260033131F01F4
:104810001343F3FF3377E300B318180133E7E800DD
:10482000639FF70550C98506E39AC6FD18C11307B3
:10483000F00F6375B70454412146854E3D4F930FE9
:10484000800293028004414EB398CE0033F71501E5
:104850006392E8021317260001173313EF00134386
:10486000F3FFB376D3003317E800D98E639DF701C9
:10487000232A15010506E319C6FD54C18280E3947D
:1048800057FA10C94DB7E39757FE23281501DDB736
:1048900008456D8D3335A000828019C20CC9828015
:1048A0004CC9828013F7C50F93F73500B705014057
:1048B000BA9594458A073D473317F7001347F7FF2A
:1048C000758F98C598453315F500598D88C5828038
:1048D0009387C18B94430347050089E683472500EE
:1048E000920731A8944305466391C6048347250087
:1048F0000346150092076314D60093E707F8B7E65E
:1049000000E093F7F70FBA962380F6408546935759
:1049100057003397E6005441ADC6938707048A07D2
:10492000B7E600E0B69798C382808C4389466393CC
:10493000D50283461500834725006365D6008A06A5
:10494000B69779BF9386E6038A06B69793F7F70F73
:10495000920765B790438D46631ED60083461500C7
:10496000834725006364D6008606D9BF9386C607B1
:104970008606E1BF94439147E39AF6F88347150012
:1049800085B79387070661BF371702405C4391469E
:10499000B18B6385D700A1466386D706B7177A0027
:1049A000938707201CC1371602405C42370700205E
:1049B000130707149183BD8BBA9783C607001C4168
:1049C000B3D7D7005CC15442A1829D8ABA9683C6F0
:1049D0000600B3D6D70014C55442AD829D8A3697DF
:1049E00003470700B3D7E7005CC558423983937685
:1049F000370013874180369703470700B3D7E70294
:104A00001CC982805C4354434167C983F98E37F7E0
:104A1000FF1F0327C770BD8B890713161701634853
:104A20000600454601476392C702C94739A80947AE
:104A30006389E7023D476388E70241476388E702ED
:104A4000454601476393C700C14785E6B746024024
:104A500083A60680C18A8DC6B7167A009386062083
:104A600025A00147D9B70547B547C5B70147BD4799
:104A7000E9BFB7160240D4421396E600E35E06FC97
:104A8000B7163D0093860690B387D7021CC101DF9D
:104A90001C41858301BF99C5371702405C4B5D8D72
:104AA00048CB8280B7170240D84B1345F5FF798D6C
:104AB000C8CB828099C5371702401C4F5D8D08CF47
:104AC0008280B7170240984F1345F5FF798D88CF44
:104AD000828099C5371702405C4F5D8D48CF828038
:104AE000B7170240D84F1345F5FF798DC8CF8280A4
:104AF0008357050037370140930607C0C207C183BB
:104B00006300D504B7060040630CD50293860640C7
:104B10006308D502B7160040138606806302C502FB
:104B2000938606C0630ED50013070740630AE500AD
:104B300037570140930607C06304D5006317E500AB
:104B400003D7250093F7F7F8D98F37170040630D87
:104B5000E500130707406309E50093F7F7CF03D794
:104B60006500C207C183D98F2310F50083D74500A4
:104B70002316F50283D705002314F502B737014049
:104B8000138707C0630EE50093870740630AF500AB
:104B9000B7570140138707C06304E5006316F500AB
:104BA00083C785002318F5028547231AF500828004
:104BB000FD572312F50023100500231305002311D0
:104BC00005002304050082808357050091C593E703
:104BD00017002310F5008280C207C183F99BC2072A
:104BE000C183C5BF83574500C207C18393F7F7F858
:104BF000C207C1832312F50083574500DD8D2312C0
:104C0000B5008280EFB27F8E83560501F577FD17E0
:104C1000F58F83D6650003D7C5007971D58F23182A
:104C2000F5008356C500FD779387379FF58F83D6B0
:104C300045002A842EC6D58F83D68500D58F83D68E
:104C4000A500D58F2316F50083574501C207C18300
:104C500093F7F7CFD98F231AF5006808EFF0DFD26A
:104C6000B747014093870780B245631DF404A257FC
:104C70008356C4006547B387E702C206C1869841E0
:104C800063D4060406070356C4004206B3D7E702FE
:104C9000130740064186B3D6E702B3F7E702920650
:104CA000635606028E0793872703B3D7E70213F7ED
:104CB0007700B367D700C207C1832314F4004561AE
:104CC0006FB0FF8492576DB70A0775BF920793873D
:104CD0002703B3D7E702BD8BD58FF1BF81C98357B7
:104CE000C5000967D98F2316F50082800357C500D8
:104CF000F977FD17F98FC5BF13F7F50F85471583B2
:104D0000B395B7006319F7009307C500984301CE28
:104D1000D98D8CC38280894693074501E318D7FE5D
:104D200093070501E5B793C5F5FFF98DDDB7035589
:104D300005006D8D3335A000828013F7F50F854691
:104D40001583B397B6006313D7020357C500F98FD5
:104D50000357050001454207418381CB0545A181E9
:104D6000B315B5006D8F3335E00082808946631539
:104D7000D70003570501E1BF03574501C9BFA18112
:104D80008547B397B70093C7F7FFC207C1832310C6
:104D9000F50082805D7182E686E48AE28EE012FE92
:104DA00016FC1AFA1EF82AF62EF432F236F03AEE13
:104DB0003EEC42EA46E872E676E47AE27EE073117F
:104DC0000134EFB01FC8B7F700E023A20700EFB02F
:104DD000AFFFEFB01FCA731101343660A6601661D1
:104DE00086617272E2725273C2733275A275127664
:104DF00082767267E2675268C268326EA26E126F84
:104E0000826F616173002030D30705E00111B7168E
:104E1000493F1397170006CE938686FD058363DB13
:104E2000E602B706807F6347D7005375A508F240B6
:104E3000056182802800A9200D8985476304F50259
:104E40008947B26522656307F5020DC1E524531554
:104E5000A520F1BFD30500F00145EF00D030F240AE
:104E600005618280B2652265F124D1B70545EF0066
:104E7000902F75BF0545EF00102F5315A52045BF96
:104E8000D30705E0011122CC3717493F13941700CF
:104E900026CA06CE4AC8130787FD0580AA84635533
:104EA000870E37D71640130737BE3E896344870401
:104EB000174700008727072C3717C93F419813076A
:104EC00007FD6353F022D377F508630FE40C97478F
:104ED000000007A7672AD3F6E7080545D3F7D708E8
:104EE00094E0D3F7E708DCE0F2406244D244424960
:104EF00005618280B7174943938707F863DF870C02
:104F0000B707807F635CF408135674411306A6F755
:104F1000931776011D8CD30704F0174700008726EE
:104F20006727530600F0D39707C08D4653F707D085
:104F3000D3F7E7083AE2D3F7D710D39707C053F770
:104F400007D0D3F7E7083AE4D3F7D710D3A7C7A021
:104F50003EE691C7D326C7A093B6160085069747AD
:104F600000009387672B0947A68548002126E35D4B
:104F700009F69860DC603305A0405317E720D3970B
:104F8000F72098E0DCE08DB7F240624488E023220D
:104F90000500D2444249014505618280D377A508C6
:104FA0000145DCE09CE089B79747000007A7071D93
:104FB000D3F7E7089747000007A7871CF240624431
:104FC0004249D3F6E7080545D3F7D70894E0D3F76D
:104FD000E708DCE0D24405618280EF00F0229747C9
:104FE000000087A7671A9747000087A6A719C3760E
:104FF000D5789747000007A727189747000087A78D
:105000006717FD47539506C0D37605D04BF5F6508C
:10501000D3F7E61063C7A7049307F5FF139727009C
:105020005377F5089747000093870717BA9794437B
:10503000137704F0D30707E06309D7029CC05387B6
:1050400007F05375E5085375F508C8E0E35E09E815
:10505000D317E7205315A5203305A0409CE0C8E0F6
:1050600061B55377F508D30707E013D777015D845F
:105070001377F70F3307E440A146E3D1E6FC9747E7
:10508000000007A6A70F4BF7C6509747000087A759
:10509000270FE5465375E5084BF5C650C7F7F650A0
:1050A0005376F708D30706E013D777011377F70F86
:1050B000198C63C6860090E05305E72049B79747EF
:1050C000000007A6A70C4BF5C6709747000087A7FE
:1050D000270C5377A7084BF7C670C7F7F6705377BE
:1050E000F508D30707E099BFD377F5006300E40222
:1050F0009747000007A74708D3F6E7007D55D3F789
:10510000D70894E0D3F7E700DCE0F9BB974700004D
:1051100007A7C706D3F7E7009747000007A747068A
:105120007D55D3F6E700D3F7D70894E0D3F7E7002F
:10513000DCE05DBB530705E0B706003293171700AC
:10514000858363DFD706D31705C063800712D37644
:10515000A5109747000087A7A73E9747000007A51F
:10516000E73D9747000007A0E73D9747000007A6E7
:10517000A73D43F5A6789747000007A7273D974727
:10518000000087A7E73C43F5A60043F5A66043F57A
:10519000A670C3F7A678D3F7D710530707F0974741
:1051A000000007A56739D375B7109747000007A718
:1051B000A7FDC7F7F658C7F7E6785375F50882805C
:1051C000D376A5109746000007A6863797460000BD
:1051D00007A7C6369746000087A7C6369746000041
:1051E00007A0863643F7E6609746000007A5063617
:1051F0009746000007A6C635B7A6993E93869699AE
:10520000C377D778C3F7D700C3F7D750C3F7D760B2
:10521000D3F7D710E3D3F6F8B706483F63CEF602CC
:10522000B70600FFB697538607F09746000007A51C
:10523000A6305375C508530707F0D375B7109747C5
:10524000000007A767F447F7E660C7F7F658D3777B
:10525000F7085375F50882809747000007A5472D8A
:105260009747000007A6072DF9B79747000007A545
:10527000A72C82802171131827003ACA1747000013
:10528000130707314297232C811A232A91192328C7
:10529000A119328432CE232E111A232A911A2328DF
:1052A000211B2326311B2324411B2322511B232096
:1052B000611B232E7119232C81192326B119272E46
:1052C0008116272C9116272A2117272831172726E0
:1052D0004117272451172722611771582EC83EC243
:1052E0002A86832C0700138DF6FF63490463930716
:1052F000D4FF93D4F7419D88BE9493D73440138B49
:1053000017003EC493173B003ECCA2476245F245CE
:105310003387AC01B387A74113081700338AA54030
:105320003E98881863430702924513972700D307D6
:1053300000F02E9763C507001843D37707D01105F7
:105340008507272EF5FEE39107FF939D2C0063C48C
:105350000C0493182D009C1813854800939D2C0075
:10536000BE985C0A130801113383B7013295468752
:10537000B287D30700F0634A0D0094631863910766
:105380007117C3F7E678E39AA7FE2720F800110803
:105390009108E31E68FC9387FCFF93898DFF1399A6
:1053A0002700930A01027C08BE9DB3873A013EC6DE
:1053B0008A069747000087A4271D9747000007A487
:1053C000E71C9747000007A927179747000007AB7E
:1053D000671B9747000087AAE7DB9747000087A96C
:1053E000A7DA330CD6009C12B7060040E689138476
:1053F000F6FF3E99939429009C12A69707A507FBF8
:10540000635F300333858900930E01110A05769599
:10541000568311A07285D377651114611103130EA1
:10542000C5FFD39707C0D3F707D04BF7575153F5B4
:10543000D700D31707C0232EF3FEE39DAEFC5285A1
:1054400032C05925530AA52053759510E9234B7591
:1054500085A00246531B05C0537A0BD0537A4509E9
:10546000635F400D9387F9FF8A079812BA9703A3E9
:1054700007EC214533054541335EA3403315AE00AB
:105480003303A3401D453305454123A067ECB35BBF
:10549000A340729B6342700DD30700F0D327FAA09C
:1054A00063890712138EF9FF634E9E01B38789004B
:1054B0008A07D69701478843F117498FE39DB7FFC5
:1054C00063160730832709EC639D072EB247054713
:1054D000F117C84305076DDD938719003E8EB38829
:1054E000E90022473305FD0022953303F7001247F8
:1054F0000A038A073A93180A0A05B30EF7009C18A4
:105500003E9583270300530700F0D3F707D05CE1F3
:10551000634D0D002A87B28719A01C63711794632D
:10552000910743F7F670E39A87FF27A0EE00050E78
:105530001103910E1105E3D6C8FDC68965BD63163A
:105540000A269387F9FF8A079812BA9703A307ECF4
:10555000935B8340E35270F5050B6355303D025E6B
:1055600063130E208547638EF900130F4102032E4B
:105570000F0013851700110F63190E1EAA87E398F9
:10558000A9FE635340038547630EFA368947631DBE
:10559000FA009387F9FF8A079812BA9703A507ECD8
:1055A0001375F50323A0A7EC8947E397FBEE537A25
:1055B0004909E3030EEE53052921528532C0292300
:1055C000537AAA08D30700F00246D327FAA0E39B38
:1055D00007ECE247724753054A213385E740ED2146
:1055E0009747000087A607BBD387A6A0638E073224
:1055F0009747000007A707F95377E510138E1900A6
:105600009C1213162E00338797003E96D31707C0BF
:10561000210AD3F707D0CBF6D750D39707C0D3963C
:1056200006C02320D7EC2320F6EC53052921528510
:1056300072C05929024E63450E1C93182E00130F99
:105640000111B3051F0133871A01AE869747000089
:1056500007A747F311A032871C43F1161306C7FFB3
:10566000D3F707D0D3F7A7105375E510DCE2E39426
:10567000EAFE1308010C428501469747000007A681
:1056800027F063C20C04974600009386E6EC2E8751
:105690005307C620D30700F0814729A0634BF600CB
:1056A00098629106146385071107C3F7E678E3D77C
:1056B000FCFE1CE1050611059387C5FF630FBF00C3
:1056C000BE85E3D20CFCD30700F005061105272E9A
:1056D000F5FE9387C5FFE315BFFE5247894763C0B8
:1056E000E718C298D30700F0634AE01219C305A077
:1056F000BE8807A708009387C8FFD3F7E700E31920
:1057000018FF63840B00D397F720C2479CE38320E4
:10571000C11B0324811B13757B008324411B0329B8
:10572000011B8329C11A032A811A832A411A032BD8
:10573000011A832BC119032C8119832C4119032DC4
:105740000119832DC1180724C11787248117072940
:10575000411787290117072AC116872A8116072BA7
:10576000411639618280054581478A079812130FD7
:105770000010BA97330ECF4123A0C7ED6355350310
:10578000931725003305F700032505ECD697338FD3
:105790009A00130EF00F11A088433305AE4088C362
:1057A0009107E39BE7FF054EE9BBD38749A1814BF6
:1057B000E38407CE050B894BE34330DB537A490979
:1057C000E1B9938719003E8EBE8821BB93172E0046
:1057D0009812BA9783A707EC611AE39807E49397A6
:1057E0002900E117D697F117D8437D1E611A65DFAE
:1057F00053052921528572C0C12C024EE35F0EE28F
:105800005247894763CDE704D30700F06340E002C5
:10581000E31F07EEE38B0BEEFDB5BE8807A708007C
:105820009387C8FFD3F7E700E31918FF0E67537794
:10583000F70863930B10C2479CE3635FC001D80174
:1058400085471C63850711075377F700E35BFEFE6E
:1058500063840B005317E720C247D8E34DBD52477E
:105860008D47E316F7EA635DC00F13172E009412FD
:10587000BA961308010C9307C7FF87A606F6C297CE
:1058800011A0B6879C639386C7FF53F7D700D3F761
:10589000E70898E3D3F7D700D306E720DCE3E31269
:1058A000F8FE854763DEC70B93172E0094123697D8
:1058B000F117872607F63307F80011A036871C6317
:1058C0009306C7FF53F7D700D3F7E70818E3D3F7DA
:1058D000D700D306E7205CE3E312D8FED30700F03D
:1058E00091073E98072708007118D3F7E700E31BDC
:1058F00007FF8E661E67639A0B04C24794E3D8E3E2
:105900009CE731B59387F9FF8A079812BA9703A5E8
:1059100007EC1375F50723A0A7EC79B1A1473ECC9E
:1059200002C4E5B2014EB1B9D31705C0981226974B
:105930004E8E2320F7ECD5B9D397F720C2479CE3CE
:10594000E34FC0EF5317E72001BFC247D396D620DD
:105950005317E720D397F72094E3D8E39CE745BBA0
:10596000D30700F079B7D30705E0B70600321397E5
:10597000170005836355D700531705C049C7D38760
:1059800007F0174700008726A7C117470000072028
:1059900067C153F7F71017470000872727C017473D
:1059A0000000072667C0538507F0C377F7681747DD
:1059B00000008726A7BF5375E510C3F7E700C3F7BC
:1059C000E760C3F7E76801ED17470000872547BE8A
:1059D000C377F758538707F043F5A7708280D377D2
:1059E000F510173700008726277A1747000007268B
:1059F00067BCC7F7D578C7F7E7584375C578D3872D
:105A000007F053F5A7088280D30705E08607858352
:105A1000538507F08280D30605E059461397160098
:105A2000058393577701938717F8B6856341F60886
:105A300063C40704370880001307F8FF3357F740A3
:105A40003375D700530605E00DC5174500008727BD
:105A5000E5B6D377F500530700F05315F7A011C949
:105A600063D60600B357F840B385D7001346F7FF57
:105A70006D8E530506F082809747000087A707B414
:105A8000D377F500530700F0530605E0D317F7A0CE
:105A9000EDD3530607E0E3DE06FC530605E071DBB9
:105AA0009747000087A747B1538607E0D9B7B707E4
:105AB000807F530605E0E36EF7FAD377A50053869F
:105AC00007E0530506F08280530705E0931717009F
:105AD0008583B9C33706807F63F9C702B376C700F1
