:100000006F30707E1300000013000000130000002A
:100010001300000013000000130000001300000094
:100020001300000013000000130000001300000084
:08003000130000007300100032
:10003800000000000000000086370000A63700001E
:10004800000000002C3F000000000000000000003D
:100058002E3F0000303F00000000000000000000BC
:10006800323F000000000000D00200000000000045
:10007800363F0000383F00003A3F00003C3F000098
:100088003E3F0000403F0000323300005A3300007A
:1000980082330000AA330000D23300007839000010
:1000A8004E3F0000503F0000523F0000543F000008
:1000B800563F0000583F00005A3F00005C3F0000D8
:1000C8005E3F0000603F0000623F0000FA3300001E
:1000D800663F0000683F00006A3F00006C3F000078
:1000E8006E3F0000703F0000723F0000743F000048
:1000F800763F0000783F00007A3F00007C3F000018
:100108007E3F00003C370000823F0000843F000033
:1001180072340000883F00008A3F00008C3F0000D6
:100128008E3F0000903F0000923F0000943F000087
:10013800963F0000983F00009A3F00009C3F000057
:100148009E3F0000A03F0000A23F0000A43F000027
:10015800A63F0000A83F0000F6380000AC3F0000B2
:10016800AE3F0000B03F0000B23F0000B43F0000C7
:10017800B63F0000B83F0000BA3F0000BC3F000097
:10018800BE3F0000C03F0000C23F0000C43F000067
:10019800C63F0000C83F0000CA3F0000CC3F000037
:1001A800CE3F0000D03F0000D23F0000D43F000007
:1001B800D63F0000D83F0000DA3F0000DC3F0000D7
:1001C800DE3F0000E03F0000E23F0000E43F0000A7
:1001D8000000000000000000000000000000000017
:1001E8000000000000000000000000000000000007
:0801F8000000000000000000FF
:1002000097020120938202E0938202E0739002340D
:1002100003210500224573100530B1A81971232070
:10022000250006C006C216CAF322003093F28200EF
:10023000638402009302000816C412C81ACC1ECEB2
:1002400022D026D22AD42ED632D836DA3ADC3EDE76
:10025000C2C0C6C2CAC4CEC6D2C8D6CADACCDECEE6
:10026000E2D0E6D2EAD4EED6F2D8F6DAFADCFEDE56
:1002700003A1050009A0024573101534924037858B
:1002800000001305058073200530224573200530DA
:100290004242D2426243F243025492542255B25532
:1002A0004256D2566257F257064896482649B649F2
:1002B000464AD64A664BF64B065C965C265DB65DB2
:1002C000465ED65E665FF65F09617300203000000F
:1002D000197116CA9302000816C49302000273A093
:1002E000428006C212C81ACC1ECE22D026D22AD4F0
:1002F0002ED632D836DA3ADC3EDEC2C0C6C2CAC416
:10030000CEC6D2C8D6CADACCDECEE2D0E6D2EAD4A5
:10031000EED6F2D8F6DAFADCFEDE73110134CD2B1C
:10032000EF10A07AEF00C061731101341384018AC9
:1003300003290400630409022320040073251034F8
:100340002AC013848189044023A024001384C18916
:10035000044003A104000245731015349240B78293
:1003600000009382028073A00230A24273A0023088
:100370004242D2426243F243025492542255B25551
:100380004256D2566257F257064896482649B64911
:10039000464AD64A664BF64B065C965C265DB65DD1
:1003A000465ED65E665FF65F09617300203000002E
:1003B000397101436EC619A0397141536AC866CAC2
:1003C00062CC5ECE19A0397101535AD056D252D4A4
:1003D0004ED64AD826DA22DC06DE3301614082821C
:1003E00041114AC026C222C406C68282B24D4101D2
:1003F000024D924C224CB24B4101024B924A224A8E
:10040000B2494101024992442244B24041018280F2
:100410003D432A876373C3029377F700BDEFADE5D1
:10042000937606FF3D8ABA960CC34CC30CC74CC7E3
:100430004107E36BD7FE11E28280B306C3408A0610
:100440009702000096966780A6002307B700A306D0
:10045000B7002306B700A305B7002305B700A30420
:10046000B7002304B700A303B7002303B700A30218
:10047000B7002302B700A301B7002301B700A30010
:10048000B7002300B700828093F5F50F939685009F
:10049000D58D93960501D58D61B793962700970268
:1004A000000096968682E78086FA9680C1171D8F97
:1004B0003E96E374C3F8A5B703A581818280014508
:1004C0008280014582800145828001458280EFF271
:1004D0003FF12964A9641304444D9384044E63637B
:1004E00094000DB71C4011048297D5BFEFF25FEF67
:1004F0002964A9641304044E9384844E63639400B6
:1005000011B71C4011048297D5BFEFF27FEDF93F80
:10051000EF30207FC5BDEFF2BFECB7050000379587
:100520000000D14715479306002001469385A5504A
:1005300013050583EF10602DEF10C03AE1B5EFF21F
:100540003FEAEF106059EF205019EF003031EF1003
:10055000A052EF00307FC137EF10A0523D24EF10C2
:100560004001014545B5EFF2BFE7D13F014559BD17
:10057000EFF27FE5AA89EF10E02819C1EF10C01053
:100580002545EF00D067444113044500639684007D
:10059000EF104027014919A8138944FF2146CE8551
:1005A0004A85EF00206701E9EF10C02519C1EF105F
:1005B000400F4A8599B58440D1BF09E57D558280B9
:1005C0007D5589B5EFF2DFE12A842E853289AE842C
:1005D00045377DF522852686A545EF00F064014567
:1005E000231C2401230E0400231D0400D9BFEFF2B5
:1005F0003FDF8357850141112A84C18B8DEB1C5548
:100600008DC32EC68297AA84B24501CD2A8637951E
:100610000000A28513058583EF00701D268541012A
:10062000D5B38357840193E70701231CF400835754
:100630008401A18B91C78357A401E554A18BF9FFD5
:100640005C548DC322858297AA840DE58357A4014B
:1006500093E78700231DF4008347C4018507230E19
:10066000F4006DBF85679387F7F0FD8D231DB400FF
:100670008144E9BFE957E313F5FAC9BF8347C501D0
:100680008DCBEFF2FFD5FD1793F7F70F230EF50093
:100690002A84014789EF1C5989E70147231D04007B
:1006A00039A082972A8775D9E957E309F5FE3A857B
:1006B00091BB7D573A858280EFF29FD20347C501F7
:1006C00009E77D551D29014521A05C5999C38297F1
:1006D00015BB6955C5BFEFF2BFD00347C50109E798
:1006E0007D552129014521A01C5D99C3829719BB25
:1006F0006955C5BF0CD101458280EFF2DFCC9389EB
:100700004187854A83A7418763863705EF10C03C40
:1007100083A741872A8A638D370303A441875C40FE
:1007200018401309C4FE5CC398C340C000C0EF006A
:10073000B0757C5099C34A8582974A85EF00106056
:10074000631B55014A85EF001054EF0090755285E8
:10075000EF1040395DB1EF00D0745285EF10803852
:100760004848EF00303F4A85EF00305A61BFEFF252
:100770003FC713844195130904011C4091C382971C
:100780001104E31C24FF953FEDB7EFF27FC5370658
:100790000000B7950000930800023D489307002031
:1007A0001387419681461306E67693850587138560
:1007B000418DEF1000021385418DEF10A01299B109
:1007C000EFF21FC241112A842E8532C62EC4EF10CB
:1007D00020083246A24519C68547630DF60001453B
:1007E00041010DB15840938745011CC398CD5CC0B1
:1007F000C0C9F5B71C406388870083C6550303C78B
:10080000170263FAE600D4431387450198C294CDDA
:10081000D8C3DCC9E9B79C43F9BFEFF27FBC4111F3
:10082000B2842E8689452A8436C6EF00F03FB24650
:10083000930744011CCC5CC8231E9400A304D4007D
:1008400001454101C1B6EFF21FB883A701864111EE
:100850002EC62A8491C38297EF1000288357C401C3
:10086000AA8991CFFD17231EF400EF10A02783A7BC
:10087000C185014591CB22858297014531A0B247C0
:1008800091E7EF1020267955410185BEEF00907762
:100890002328050203469400AA85AA84130544016F
:1008A0000537B247635CF0001389C40470008145CA
:1008B0004A85EF1080184A85EF10400C4E85EF10E6
:1008C0006022EF00D04D88585DD17DBFEFF25FB15F
:1008D00083A781852A8491C38297EF10E01FAA84A1
:1008E000484893074401630EF5003115EF00D07AB4
:1008F00005442685EF10001F19C0EF00504A01453E
:1009000011B68357C4018507231EF4000144D5B7EF
:10091000EFF21FAD4111EF10201C13874182834776
:100920000700850793F7F70F2300F70083A7C1811E
:1009300081C72AC682973245EF10C01A4101D9B447
:10094000EFF21FAA4111EF1020191387418283474C
:100950000700FD1793F7F70F2300F70083A7018225
:1009600081C72AC682973245EF10C017410159BC92
:1009700003C541828280937808044111639E080078
:10098000A5689388C8A193730801638B030013784B
:10099000E8FF930E000219A8A56893888897E5B729
:1009A00013731800930E0003E30503FE137328006E
:1009B000630F0306635806023306C0409302D00259
:1009C0000A8E814F294F6396E6073373D60233565A
:1009D000D602469303430300850F050EA30F6EFE58
:1009E0007DF215A0137348009302B0026317030051
:1009F00093728800B3325000960279F29306000396
:100A00002300D100854FFE8663D3FF00BE86137896
:100A10001801158F63130804638502006353E00017
:100A20007D172A86B308E5001303000221A881423E
:100A3000E9B71373F600118269BF6374B60023002F
:100A4000660005063388C840E34900FF3A866353D1
:100A5000070001467D173295118F63880200637489
:100A6000B500230055007D17050563870302AA968C
:100A7000130800031DA86374B6002300D601050601
:100A80003388C840E34900FF3A86635307000146B4
:100A90007D173295118FE1BF2A86B308E500CDB7E7
:100AA0006374B5002300050105053386A640E3C93C
:100AB000CFFEFD56FD1F6383DF0099E7AA8733064B
:100AC000E5001308000205A06378B5003306F101C4
:100AD000034606002300C5000505E9BF63F4B7001F
:100AE000238007018507B306F640E349D0FE635330
:100AF000070001473A9541018280EFF27F8E2A84F8
:100B0000853D09C523A481826FF0DF8FEF00904FF0
:100B100075D900D9D5BF0D47AA876376C7009377EB
:100B2000350091C7AA873E966397C706828093F7E0
:100B3000F50F13978700D98F139707015D8FB308BF
:100B4000C500AA87BD463388F84063EB0603935778
:100B50004600C156B386D7029207AA970D4836962B
:100B60003383C700BE86B308D340636218031357AC
:100B70002600F156B306D7020A07BA97369665B72C
:100B800098C3D8C398C7C10723AEE7FE6DBF9106CF
:100B900023AEE6FEC9BF8507A38FB7FE71B763F327
:100BA000A504B386C500637FD5029345F6FF814750
:100BB000FD176393F50082803387F6000308070072
:100BC0003387C7002A9723000701DDB73387F50075
:100BD000830607003307F50085072300D700E317D6
:100BE000F6FE82808147E5BF0DC6AA87850503878B
:100BF000F5FF85079306F6FFA38FE7FE09EB3E9608
:100C000085076393C7008280A38F07FED5BF368612
:100C1000F1FE828001476314E600814705A0B30717
:100C2000E50083860700B387E50083C70700B38725
:100C3000F640E207E18799E30507F1FE3E858280F1
:100C4000AA870387070001E73385A74082808507CD
:100C5000CDBFEFF26FF62E89B30B250141112A8C1F
:100C6000B68563F5AB001349F5FFFD5BC169379AA3
:100C700000006284930AB002130B0002FD19130AEC
:100C80004AA139A813075002638AE702637474010A
:100C90002300F40013051400B284138614002A8480
:100CA00083070600E5F363060900637474312300CB
:100CB00004003305844141016FF08FF301481307AD
:100CC000D002930630021305000331A0639E570142
:100CD0001368480026868307160093041600E397DE
:100CE000E7FE13680801FDB7639567011368880084
:100CF000D5B76395D70013680802E9BF6395A700CD
:100D000013681800C1BF138707FDA54663E6E60414
:100D10000147A546294539A03307A70285043E9718
:100D2000130707FD83870400138607FDE3F6C6FE5D
:100D3000038604009306E002FD57631FD6048387F1
:100D40001400254693861400138507FD6367A60AE1
:100D50008147254529433DA09306A0027D57E3998D
:100D6000D7FC9841930426009105E35307FC330711
:100D7000E040136808016DBFB38767028506B2972C
:100D8000938707FD03860600930806FDE37615FFAB
:100D900063D307008147B684838604001306800668
:100DA000014593F8B6FF6395C80013F5F60F850467
:100DB00003860400930690066305D60663C7C6063D
:100DC00093068005630CD61C63C5C60493075002C6
:100DD000630FF61A63767401930750022300F40040
:100DE0008387040013051400638E071A637475016A
:100DF000A300F400130524004DB51306A002639769
:100E0000C7009C4193862400910559B7B684814759
:100E100061B7930630066302D60893064006E31BCB
:100E2000D6FA13682800A94699A0930630076306EE
:100E3000D60C63C5C6029306F0066307D616930662
:100E40000007E319D6F8FD566315D700136818009C
:100E50002147938C4500C14690411DA89306500739
:100E6000E303D6FC93088007C146E31516F7130683
:100E7000C006938C4500E301C5FE13068006E31D02
:100E8000C5FC9041937528006392051233763601B4
:100E9000DE852285CD34E68509B513780801631611
:100EA0000802BA879306000231A06374740123001C
:100EB000D4000504FD17E34AF0FE9307F7FF6343F0
:100EC000E00005473387E7400507938745006375D2
:100ED000740194412300D4001305140022971306D3
:100EE0000002B306A7406344D000BE857DB363749F
:100EF00075012300C5000505EDB783AC0500138D12
:100F0000450063930C00D28C66853EC63AC442C24B
:100F1000053BB247AA86124822476355F00063D3C7
:100F2000A700BE8613780801631F0800BA8713065E
:100F3000000239A0637474012300C4000504BA8759
:100F40007D17E3C9F6FE814763C1D702B68763D335
:100F5000060081473305F4002A9713060002B30701
:100F6000A74063C0F602EA850DBB3306F400637840
:100F70007601B385FC00838505002300B600850754
:100F8000E1B7637475012300C5000505C9BF63742B
:100F900074012300C4001305140001B3136808048E
:100FA000C146F1B5FD14D5B9A146D1B54206418679
:100FB000C5B5A38F0BFEF5B903A5C1828280EFF200
:100FC0002FC203A9C182EFF0AFDA11CD1384C18221
:100FD000AA84084019C1EFF06FEA93053004268512
:100FE000EFF0EFE004C04A856FF0CFC18280397125
:100FF00026CA2ED232D436D62A8654109305F0074C
:10100000138541B63EDA36C606CE22CC3AD842DC4B
:1010100046DE8131AA8603A5C18209E9138541B65E
:10102000F137F2406244D2442161828026868354A3
:10103000A5011384C18293E70404231DF5009307DF
:10104000F00763F4D7009306F007138641B6814595
:10105000EFF06FE81C40239D9700E1B7EFF24FB827
:10106000379500001305C5985937379500001305CB
:101070008599B53F37970000379500001307C79B48
:101080008D4605468D451305859C9537379500009F
:101090001305859EA93F6FF0EFB631C9A56613779A
:1010A000F50F9386868711C7BA9603C50600050516
:1010B0008280C167938707F0E98F89CB21851377F9
:1010C000F50F36970345070025058280B707FF0017
:1010D000E98F89CB41859377F50FB69703C5070054
:1010E000450582806181369503450500650582804E
:1010F00003A741835C41BA976306F50283D62700B4
:1011000095E283A60183638FF600938681839042E4
:101110006313F60088C2D44354C1DC43B306E540F0
:10112000BA9794C71045B307C7006300F50283D68A
:10113000270081EE938681838C426393A5009CC235
:101140005441D4C35C413E9710C78280EFF24FA94F
:1011500083A5018437950000130505A3493D83A5A8
:10116000C18437950000130545A4513583A5C1837B
:1011700037950000130585A59D3D6FF0AFA8EFF2F0
:101180002FA613F7C5FFE1462E8663F1E606930707
:101190003500F19B930687FE63EAF6041D8F130664
:1011A00087FE23A0C18489665117138441839386E7
:1011B00006EAD8C394C323A407001CC0BA9723A887
:1011C000F182C966938606EAB795000094C3D8C336
:1011D00098C781460546938505AF138541BEEFF05C
:1011E000CFE3184023ACE1826FF0CFA1AA853795F9
:1011F0000000130585AFE53BC5BFEFF26F9E39C513
:1012000003A7018413043500719813890184814474
:10121000636A870EB1476373F4003144FD5513854B
:1012200041BEEFF04FE283A7818383A541838328EA
:10123000090026853386B740B386884013888183AA
:101240006368D600138541BEEFF04FE881445DA886
:10125000B384C50003D7240003AE440061EB330719
:10126000CE40930F47FF63E38F0C138FC184938E9F
:10127000C1831303840183260F0083A30E00138907
:10128000C1849382C18363E26F081307C40032975D
:10129000896E3383E500938E0EEA2322C301232453
:1012A000C3002320D3010546D8C02391C4000326E0
:1012B0004300B108630416012E9618C61387C600B2
:1012C00022972320E90063F4E30023A0E2000967EA
:1012D000130707EA2390E400639B970083A601832A
:1012E000014703D627000DEE19C32320F80013850C
:1012F00041BEEFF0AFDD83A78184B10481C7A28531
:101300002685829726856FF0EF8F054636972391C5
:10131000C4002320EF00E3FCE3FA23A0EE0045BF66
:10132000E384D7FCDC430547AE9765BF728609BFEF
:10133000EFF20F8B3306B5024111328532C6753D8F
:101340002A8409C532468145EFF0EFFC2285410130
:101350006FF04F8B45C5EFF20F8783A741842A8436
:1013600091C3829783A74183138941836366F408FD
:1013700083A701836372F408FD55138541BEEFF026
:101380008FCC835764FF930944FF81CB035744FFFD
:101390008967938707EA6301F70237950000130511
:1013A00045AAB131835644FF035664FF37950000C8
:1013B000CE85130505AC25398967938707EA231A7B
:1013C000F4FE938781839843231B04FE63F4E900B2
:1013D00023A037011387C1841C43832684FF4E85D5
:1013E000958F83260900B386D940B6971CC309336D
:1013F000138541BEEFF08FCD6FF02F808280B7074D
:1014000000209386070001479387070021468C42FE
:101410006396A500131547003E9582800507C10617
:10142000E317C7FE01458280EFE2FFF92A842E858B
:10143000AE89328AE9372A89812C832449009307AF
:1014400049006390F404B12C93E909F823043401B2
:101450002146D2852285EFF02FF983A7018599C314
:1014600022858297EF004067032749009307C40055
:101470005CC358C42322F90004C8EF00A0666FE0E3
:10148000DFF784407DBFEFE2BFF583A741852A8463
:1014900091C3829723040400EF0000645444184869
:1014A0009307C400D8C214C31CC85CC4EF00806397
:1014B0006FE05FF5EFE23FF12E89AA898937AA84B0
:1014C0004845253B2A841DCDD0448145EFF0AFE44B
:1014D000214623043401A3040400CA852285EFF0C9
:1014E000AFF083A7018599C322858297EF00C05E84
:1014F000D8409307C40091045CC358C49CC004C87E
:10150000EF00405E22856FE05FEFEFE27FED83A7A3
:1015100041852A8491C3829723040400EF00C05BB5
:10152000544418489307C400D8C214C31CC85CC4F0
:10153000EF00405B2285393D6FE0DFEC030585005D
:101540007D81828023980186938741C01387070895
:10155000DCC39CC3A107E39DE7FE3D472382E186F0
:1015600023A4018623AE018693874187DCC39CC3F5
:101570008280EFE2FFE603A5C187EFF01FB27D1581
:1015800093173500138541C03E9508411307C5FEEA
:10159000210523A4E186EFE0BFC66FE0BFE6EFE2DE
:1015A0003FE41D2B839701872A89B1E703A5C187F3
:1015B000EFF0BFAE7D1513173500938741C0BA9782
:1015C00084439387818680439385C4FE6305B40278
:1015D0008CC383A7C1862382A18699C32285829763
:1015E00083C741821305C4019385840093F7F70FE5
:1015F00099E7EFE0BFC24A85F5216FE0BFE0F52132
:10160000DDBFEFE2FFDD2A84C1298347440393064F
:101610004401C19B93E71700230AF4028347540354
:1016200013973700938741C0BA97D84314C318CC97
:10163000D4C35CC89387C1879443185C558F98C303
:1016400055216FE03FDCEFE2BFD92A847121184CAD
:10165000544893074401D8C214C35CC81CCC8347C8
:10166000540313973700938741C0BA979843631A7E
:10167000F7001387C1871C5C144393C7F7FFF58FEE
:101680001CC38D216FE01FD8EFE29FD5B121938756
:10169000018703D7070005072390E700A1216FE02A
:1016A0007FD6EFE2FFD30D29138701878357070009
:1016B000FD17C207C1872310F700634BF00023100A
:1016C00007000D2183A7818691C3D13D6FE09FD391
:1016D0001129EDBFEFE2DFD003A48186F52EAA84A5
:1016E000228595379147230AF4021305C404852CFB
:1016F0002285A9358547631BF5003C5C81EB22857B
:1017000059332685C526613D6FE0DFCF83A641872B
:101710001307440123AAE186D8C29387418754C89E
:101720001CCCC5B7EFE2DFCB2A845105411108CCB0
:1017300048C80CD050D014D43A8658D493053002FF
:1017400036853EC642C4EFF00FBD585410544C507D
:1017500008507117B71600003A969386466D1D26FD
:10176000B24722483716000048CC230BF402A30AE4
:10177000F402232C040281472322040523240405B8
:1017800023280402230A0402232C0406232E040621
:101790000147A2861306267BA2851305C4045122A5
:1017A00083A7018899C322858297014541016FE093
:1017B0007FC5EFE2FFC25049144D795718D954C282
:1017C0001307450190C218CD58C9253DC93B6FE0AC
:1017D0007FC3EFE2FFC04111B2842E8685452A8483
:1017E000368946C03AC63EC442C2EFF0FFC3024843
:1017F00092472247B2464A86A6852285253741016F
:101800006FE05FC003A581868280EFE2DFBB4111FC
:101810002E89AA85054532C6B684BA893E8AEFF07C
:101820007FC92A8411C92685EFF03F9D324609E918
:101830002285EFF09FCD0144228541016FE0FFBB7F
:10184000AA865288CE872687CA852285E13DEDB7D4
:10185000834745030547BD8B639EE702EFE25FB810
:101860002A849D2C83474403AA842285C19B93E745
:101870002700230AF402C13B1305C4046122268514
:10188000952483A78188014581C7228582970145D8
:101890006FE05FB77D558280834745030947BD8B65
:1018A0006390E704EFE2DFB32A843D245448184CE8
:1018B00093074401AA84D8C214C31CCC5CC8130586
:1018C000C40489222685392C2285EFF09FD383A773
:1018D0004188014581C72285829701456FE09FB20B
:1018E0007D558280EFE2DFAF8346650305473317FE
:1018F000D70018DD0947A30AD502230AE502693F8C
:1019000083A7818699C3EFF09FC901456FE09FAF20
:101910005449184D93074501D8C214C31CCD5CC966
:101920008280EFE2FFAB4111B2842E86A9452A8462
:1019300036C63AC43EC2EFF03FAF9247B2462247A6
:10194000F99BA304F4009307440144CC14D023244E
:10195000040258D01CCC5CC841016FE0BFAAEFE282
:101960003FA82A84952AAA8422855D3726859D2A48
:101970002285EFF05FB101456FE0DFA8EFE25FA6DF
:101980002A84992AAA842285613783479400268570
:10199000F99BA304F400B92283A7C18599C32285CA
:1019A0008297EFE07FB15C503E9508D435221387D3
:1019B0000189032847003706008093870189134671
:1019C000E6FF98436317F8029386C18890420506A4
:1019D00090C29306440154C358C894C31CCC834797
:1019E000940093E71700A304F400ED2801456FE08D
:1019F0007FA1544B0C546385B6008D8EE376D6FCE4
:101A0000BA87C1B783479500858B95C7EFE25F9D85
:101A100083A781852A8491C382977D28AA84228501
:101A2000C53D2685C120834794000145F99BA30449
:101A3000F4006FE03F9D7D55828085476382F5020B
:101A400063C5B7008DC10145828089476380F50277
:101A50008D47E39AF5FE8347950093E7270011A889
:101A60005C511CC2CDB71C425CD1F1BF83479500CD
:101A7000F59BA304F500C1BF93870189DCC39CC318
:101A8000828082801106719A2A8837C7ADDE1305DD
:101A900006F8AA871307F7EE631EF600A16793877F
:101AA00007882322D6F82324B6FA232006F9232414
:101AB000F6F8828098C39107C5B737F700E01C435A
:101AC000B7060080D58F1CC3828037F700E01C4327
:101AD000860785831CC382802165130505807315E5
:101AE00005308280731005308280EFE27F8F13878C
:101AF000018A18439387018A19E323ACA18823AE96
:101B0000B188054798C3553F6FE0DF8F2A8781472B
:101B100018436314A7003E8582808507D5BFB707A9
:101B2000EFBE37E700E0938707083CC70145828096
:101B3000EFE21F8B37950000130545B3EFF02FCB75
:101B400001456FE03F8CEFE2BF892A84FD5437994D
:101B500000007D14631494006FE0DF8A1305C92927
:101B6000EFF0EFC8FDB7EFE21F860041AA84379976
:101B70000000B7990000631494006FE01F8893057C
:101B8000C4FE1305092AEFF08FC61C406386970038
:101B90001385492AEFF0AFC50040F1BFEFE25F8443
:101BA0002E89EFF0EF892A84EFF01FAE832409001D
:101BB000639C2401EFF0FFAEA14763C3870011E0EF
:101BC000214422856FE01F84138544FFEFF04F8787
:101BD0006353A4002A848440E1BFEFE2EFFD054592
:101BE000EFF0FF81B7990000130945002A84CA85E8
:101BF000138589DE6537AA85AA8437950000138688
:101C000089DE130505DFEFF08FBE26852D3F379562
:101C10000000130545E3EFF08FBD4040B799000089
:101C2000054A894A379B0000B79B0000379C00009B
:101C3000B79C0000379D00006315890001456FE0E7
:101C40002FFB03479402138549E7930644FF21467F
:101C5000A685EFF0CFB98347840213850CE8BD8BCE
:101C6000638E47011305CCE8638A570113858BE91E
:101C700091C711476396E70013054BEAEFF02FB7C2
:101C80004C4C93073002AE8603C706006306F7028A
:101C90001050930740060848B295B386D540B386E6
:101CA000F602585C5C50898D13050DEBB3D6C60265
:101CB000EFF0EFB3004049B78506F9B7EFE2AFF0B8
:101CC00041110945EFF0AFF3930945003799000042
:101CD0002A84CE85130589D8EFF05FECAA85AA8403
:101CE00037950000130689D8130545D9EFF02FB0BA
:101CF0002685EFF05FE537950000130505DBEFF073
:101D00000FAF4040379A0000B79A0000379B0000A1
:101D100063968900014541016FE02FEE03570401EE
:101D20001C44930644FF1309840036C63AC44A850E
:101D30006306F902EFF09FDD2247B246AA872146EB
:101D4000A68513858ADCEFF08FAA4A85EFF0BFE104
:101D500013054BBBEFF0AFA900405DBFEFF01FDBF9
:101D60002247B246AA872146A68513058ADDEFF0F1
:101D70000FA8DDB7EFE22FE541111145EFF02FE895
:101D800093094500379900002A84CE851305C9BC04
:101D9000EFF0DFE0AA85AA84379500001306C9BCDE
:101DA000130545BDEFF0AFA42685EFF0DFD93795D9
:101DB0000000130585BFEFF08FA34040379A000065
:101DC000B79A0000379B00006396890001454101E6
:101DD0006FE0AFE21C4413098400930644FF1848E7
:101DE0006309F9024A8536C63AC4EFF03FD222476A
:101DF000B246AA872146A68513858AC1EFF02F9F98
:101E00004A85EFF05FD613054BBBEFF04F9E0040C5
:101E100065BF2146A68513050AC3EFF04F9DC5BFD8
:101E2000EFE26FDA41110D45EFF06FDDB799000079
:101E3000130945002A84CA85138549D2EFF01FD6BD
:101E4000AA85AA8437950000138649D21305C5D206
:101E5000EFF0EF992685EFF01FCF379500001305BF
:101E600005D5EFF0CF984040B79900006316890080
:101E7000014541016FE06FD8930644FF13058400CC
:101E800036C6EFF0BFC8034834015C48B246AA88A2
:101E900021472146A685138509D7EFF04F950040CD
:101EA000F1B7EFE24FD241111545EFF04FD593094D
:101EB0004500379900002A84CE85130549C4EFF008
:101EC000FFCDAA85AA8437950000130649C41305DF
:101ED000C5C4EFF0CF912685EFF0FFC6379500001F
:101EE000130505C7EFF0AF904040379A0000B79A4E
:101EF0000000379B000063968900014541016FE0B7
:101F0000CFCF03576401835744011044930644FF25
:101F10001309840036C63AC43EC24A856307C90223
:101F2000EFF0DFBE92472247B2462A882146A685B7
:101F30001385CAC8EFF0AF8B4A85EFF0DFC21305F7
:101F40004BBBEFF0CF8A00407DB7EFF03FBC92472C
:101F50002247B2462A882146A68513054ACAEFF0D1
:101F60000F89D5B7EFE22FC641111945EFF02FC900
:101F700093094500379900002A84CE851305C9CB03
:101F8000EFF0DFC1AA85AA84379500001306C9CBFC
:101F9000130585CCEFF0AF852685EFF0DFBA3795D6
:101FA0000000130545CEEFF08F844040379A0000C3
:101FB000B79A0000379B00006396890001454101F4
:101FC0006FE0AFC3035784011C44930644FF130919
:101FD000840036C63AC44A856306F902EFF01FB39F
:101FE0002247B246AA872146A6851385CACFEFF0BD
:101FF0000F804A85EFF03FB713054BBBEFE03FFF83
:1020000000405DBFEFF09FB02247B246AA8721464D
:10201000A68513050AD1EFE09FFDDDB7EFE2AFBA69
:102020005D712545EFF0AFBDA165130600052A845B
:10203000130945009385057E0A85EF50803FB799C7
:102040000000CA85138549B6EFF05FB5AA85AA845A
:1020500037950000138649B61305C5B6EFE03FF982
:102060002685EFF05FAE37950000130545B9EFE028
:102070001FF84040D149379A000063168900014596
:1020800061616FE08FB71C44930644FF63E1F9027E
:1020900098088A07BA9703A707FB834704012146DC
:1020A000A68513058ABBEFE09FF40040F9B74647C9
:1020B000EDB7EFE24FB12945EFF06FB4B7990000EB
:1020C000130945002A84CA85138589EDEFF01FADF9
:1020D000AA85AA8437950000138689ED130505EEBD
:1020E000EFE0FFF02685EFF01FA6379500001305FF
:1020F00085F0EFE0DFEF4040B7990000379A00002D
:10210000B79A0000631E8900EFE00FBBAA853795E0
:102110000000130505F6EFE09FED01456FE0EFAD20
:102120005C4C184C1385C9F2930644FF2146A685E2
:10213000EFE0FFEB8347D4FF13854AF4858B99E3E7
:1021400013050AF5EFE0BFEA00406DBFEFE2AFA76D
:10215000379500001305C5B3EFE07FE903A4818A3A
:10216000B7990000379A000083A7C18A6365F4001D
:1021700001456FE08FA804400946938509B526857F
:10218000EF50204D19C55040A68513054AB5EFE024
:102190001FE63104D1BFEFE20FA33795000013050E
:1021A0000540EFE0DFE403A4818AB7990000379A85
:1021B000000083A7C18A636BF40037950000130504
:1021C00045BBEFE0DFE201456FE02FA30440194675
:1021D0009385C9412685EF50C04701E9504093855A
:1021E000640013054A42EFE09FE03104D9B705458A
:1021F0008280EFE24F9D79712A84AA9593060002AE
:10220000254783070400B38485406385D70A638329
:10221000E70A0145638B0410014913070002A54634
:10222000B307240183870700638AE7086388D70818
:102230006314990883A9818A83AAC18A379B000005
:1022400063F0590903AA090019469305CB41528549
:10225000EF50204059E54A86A28513056A00EF50E9
:10226000403F41E14A9A83076A00A5EF83A98900AC
:10227000638809041306800281452800EFE04F9926
:1022800013098100CA86A28701450147130800028D
:10229000A548294313062002130EC00583850700B5
:1022A0006384050163961505631F9702A9476303BD
:1022B000F50469A80504B1B705099DB7E31C09F643
:1022C000A287038707001377F7FD79E737950000AA
:1022D0001305853E23800700A285EFE05FD17D5581
:1022E000A9A0B109B1BF23800700050785077DB705
:1022F00063106504379500001305453CEFE03FCFC0
:102300000018B7940000832509001385443E110985
:10231000EFE0FFCDE31989FE37950000130545BBBB
:10232000EFE0FFCC29452C00829945616FE0EF8CEE
:10233000637E970005056392C504850705079CC267
:10234000838507006381C5026364970069FD8DBFC3
:10235000838E17006396C5016394CE008507050739
:1023600085070507F1BFE37397FE23800700050784
:1023700085079106E36497F2D1BF9CC2838507006D
:102380006389050163871501E30297FC850705074B
:10239000F5B7E36097FE5DBF850725B7EFE2CF8114
:1023A0008307050099E781450145EFF0DFDE6FE027
:1023B0002F8403AA818AAA8981440149379B00009E
:1023C000B79B000083A7C18A6369FA00EDD04A86F3
:1023D000A6854E85EFE05F81D9BF03240A00194628
:1023E0009305CB412285EF50C02621E14E85EF5069
:1023F000202519042A86A2854E85EF50802515E5F3
:10240000631709002285EF50A0232A89A284A6879A
:1024100022870386070001EE858F63D327013E895B
:10242000A2851385CB42EFE09FBC310A61BF8306D2
:102430000700FDD2E312D6FE85070507D9BFEFD20C
:102440003FFAEFF08FF901456FD0DFFBEFD25FF974
:10245000EFE0DFCF01456FD0FFFAEFD27FF803A5A1
:10246000418AEFE0AFC601456FD0DFF9EFD25FF7E9
:10247000B7A700009387073823A4F18AB7A7000005
:102480009387074D23A6F18AB7A700009387074DCE
:1024900023A8F18AB7A700009387074D9305002171
:1024A000054523AAF18A1384418AEFE07FE808C03A
:1024B00019E9379500001305054EEFE05FB37D5431
:1024C00022856FD03FF4B725000037950000A9475B
:1024D0002D479306004001469385C55E1305854F41
:1024E000EFF0AFB2AA840840B795000081460146DC
:1024F00093850550EFE06FB20144F9D02685EFF0E7
:102500006FBE7DBFEFD2DFEDEFF07FCE0DC5B7958B
:1025100000009385C54A138541C8EF504011B79517
:1025200000009385C54B138541C8EF50400E1385BD
:1025300041C86FD03FEDB79500009385454BE1BF93
:10254000EFD21FEA2A84379500001305C551EFE04A
:102550001FAAEFF03FFBAA85379500001306A41BC6
:1025600013054552EFE0BFA801456FD0BFE9EFD298
:102570003FE741112AC6EFD0BFFFB24511E93795B9
:1025800000001305054CEFE09FA641016FD09FE7C7
:1025900083A7418AAA841384418A83A7C720E3863C
:1025A000A7FE93053014EFE08F8465F11C4003A56E
:1025B000C72009C9EFE08F8C1C40814503A5C720C7
:1025C000EFE04F9300401306000581451305A41B5F
:1025D000EFD01FE4B7250000231504202326942004
:1025E0009385A5452685EFE0EF9045B7EFD25FDCF8
:1025F00083A7418A41119384418A03C74702136725
:1026000017002382E70283A7C72091E7EFE0DF9A54
:1026100019C1EFF0DFF5EFF0FFEEEFE05F9D379BC4
:102620000000B79B0000B7990000379A0000B79AE6
:102630000000379C0000B79C00009C4085461306B4
:10264000F10003A5C720FD55EFE00F878547631A0A
:10265000F5000309F100ED4780406319F90008D047
:10266000E9BF8840FD55EFE00F9EC1BF1C5063924B
:10267000A7029307B0056315F90089471CD075BF01
:1026800023200402E30B09FAA547631BF912014951
:10269000CDA00947E398E7FE232004029307100426
:1026A0006314F90483556402C9D9FD15C205C181BB
:1026B0002313B4029307A41B13070005B385E50297
:1026C000130600053E859385A502A295EF4070563E
:1026D000EF4010771375F50F2305A420A305A42060
:1026E0002285EFF0FFE591BF930720046316F902FE
:1026F00083568402835764021387F6FF63DAE70088
:1027000085072313F4029307A41B835564026DB756
:102710008DD62313E402C5BF930740046310F9026A
:102720008347B42099DB13858950EFE05F8C984094
:102730008347B720FD17A305F72001B7930730049F
:10274000E312F9F48347B4200347A420E3F7E7EE4C
:102750003E948305A41B1385CA50EFE05F8998401F
:102760008347B7208507C1BF13858950EFE03F88B5
:10277000050980408347B420E348F9FE13054ABBAE
:10278000EFE0FF86EFF0BFA685471304A41B631597
:10279000F5002285EFF09FC0EFF0DFD62286AA85F4
:1027A00013854C52EFE0BF8480401305A41BEF401B
:1027B00030691375F50F2305A420A305A420B5BD2A
:1027C0009307F0076305F900A1476315F9088347EC
:1027D000B420E38407E60346A420FD1793F7F70F20
:1027E0007D161376F60F2305C420A305F42063F8A5
:1027F000C7049385B71B1385A71B1D8EA295229531
:10280000EFE0EFB99C4013850B5103C7A7203E971B
:10281000230D071A83C5B7209385A51BBE95EFE04E
:102820000FFD9C4003C4B7209C4083C7A720E3C68C
:1028300087E013858950EFE08FFB0504F5B713059A
:102840008B51EFE0CFFA9C4003C7A720BA97238DA6
:10285000071AE5B335478347A4206305E9002947F4
:102860006313E910A1CF035984029147130DA41BF0
:1028700063FE2709930DA41613060005EA856E85ED
:10288000EF40D03805CD1309A4024A851309090584
:1028900013060005CA85EF40D039E3982DFF1306D3
:1028A000000581456E85EFD0BFB60346A420EA85BA
:1028B0006E85EF40103895472314F4028357840245
:1028C0002313F402EFF0BF9285476312F5029C4098
:1028D00083C74702858B89C713054ABBEFE02FF1F9
:1028E00088408345A5201305A51BEFF09F90EFF0CE
:1028F0007FC1EFE0CFEF804013060005814513054F
:10290000A41BEFD0FFB02315042005BB630109020F
:102910001305F9FF930700053305F50213060005BB
:10292000EA851305A5022295EF40502E41D9930D5B
:1029300000053305B9031306000581451305A502FB
:102940002295EFD0FFAC035584020346A420EA850C
:102950003305B5031305A5022295EF40902D83574B
:102960008402850791BF1307F0046374F700230501
:1029700004200346B4208347A4206370F60893051F
:10298000A61B1305B61BA2953386C7402295EFE020
:102990000FA18C4083C7B5203387F500230D271B7B
:1029A00003C74502058B01CB9387A71BBE95130573
:1029B0000C2AEFE0CFE39C4003C4B7209C4083C7C0
:1029C000A7206346F40298408347A7208346B72098
:1029D0008507850693F7F70FA305D7202305F72072
:1029E0009306F004E3FBF6C423150720B9B1138561
:1029F0008950EFE0CFDF0504D1B7A297238D271BC5
:102A000083474402858BE1D3CA851385CA50EFE022
:102A10000FDE55BF7C4123280504232A05049C436F
:102A200081CBEFD2FF9B9305850482976FD09F9D4A
:102A300001458280EFD23F9936898DCEAA843284B7
:102A4000B309D600294A83470400639C470183D712
:102A5000A40193F7070491C7FC40B54526859C4720
:102A60008297FC408305040026859C4705048297D5
:102A7000E31B34FD4A856FD05F98EFD27F9693F7C2
:102A800005102A8499C703578501615513770710EC
:102A900049C713F7054019C70357840161551377D8
:102AA000074025CF13F705049304000409E7835476
:102AB000A40193F40404384893F5F50F231DB400E2
:102AC00039EFB1C768442981420541813105EFE002
:102AD000CFF270442A89310529824206418281451C
:102AE0002320A900EFE02F83232209008357A401AC
:102AF000232409002328240593E70710231DF4004D
:102B00007C4013060010C145DC4322858297835721
:102B1000A4010145DD8C231D94006FD0BF8EE5DB41
:102B200093E50510231DB400DDB70948AA87638328
:102B30000503EFD2FF8A0D48638605030547639EB0
:102B4000E504035785011377F7FD231CE5000145D4
:102B50006FD05F8B0357850113670702231CE500C5
:102B600001458280328765D6504274458345C50150
:102B70002982A9824206C2064182C1826304D6002C
:102B80001D45F9F51443B4C75443F4C7E9D1F443E0
:102B9000BA853E85944282965DBF7C41DC43829734
:102BA00045BFEFD25F823684A9CE8357A501AA899B
:102BB000328993F70710B6849DE37D5AA94A83A70B
:102BC00049044E85DC478297630945012300A9002B
:102BD000FD14050963035501FDF0058C1DA0244972
:102BE000368A854AEFE05FEF83D7640003D744005D
:102BF0002A869444631AF70081EAEFE0BFEE3304BB
:102C0000444122856FD06FFF98403E97034B0700E9
:102C100003A7C9048507C2072983C18342072393F9
:102C2000F400418363E4E7002393040063945601B6
:102C300023A404003285EFE0FFEA7D1A2300690136
:102C40000509E3110AFA65BF0347C501854763EF2C
:102C5000E7028357A50193F707108DCBEFD24FF80A
:102C60002A842849EFE00FEF8357A40123280404A6
:102C70001306001093F7F7EF231DF4007C40C545C1
:102C80002285DC43829701456FD0CFF701458280D2
:102C9000EFD20FF537370000130747A118D53737A4
:102CA00000001307A7A758D537370000130787C4BC
:102CB00018D937370000130727BA58D9373700001B
:102CC000130747A318DD373700001307A7B24206E2
:102CD00058DD34C14182232A050023200502232226
:102CE0000502EFD09F8D6FD0EFF193F5F50F85477B
:102CF0006399F50AEFD22FED20494111AA847D593D
:102D00008549FC402685DC4782972A8A630D250584
:102D1000EFE09FDC035744001C40BA972380470133
:102D200083574400F8448507C2072983C1834207BB
:102D30002312F400418363E4E70023120400835666
:102D4000640083574400639DD7008507C207C18391
:102D50002313F4002324340163E4E7002313040065
:102D6000EFE05FD879BF9C5095C3EFE0FFD60357E3
:102D7000440083556400636EB700B305B7402EC6A8
:102D8000EFE05FD69C50B2452685829741016FD017
:102D9000CFE6FC44998DA983C207C183B385B740B0
:102DA000F9BF828011CEEFD2AFE37841B28783D5ED
:102DB0000700184303562600029701456FD08FE4A1
:102DC0007D558280EFD2CFE1138781D078432E8664
:102DD000AA851843138581D002976FD0AFE2EFD256
:102DE0002FE0138781D078432E86AA855843138518
:102DF00081D002976FD00FE1EFD28FDE138781D0A1
:102E00007843AA85138581D0184702976FD08FDF4A
:102E100015C611476394E602EFD28FDC7C418355DF
:102E2000060041119C4736C632C482972246B246FC
:102E30002311A600368541016FD0CFDC814636854F
:102E400082800DC6B28711466392C602EFD24FD977
:102E5000784103D6270083D507005843411136C671
:102E60000297B246410136856FD0CFD9814636856B
:102E70008280EFD2EFD6938781D04947D8CB3737BE
:102E80000000130707E1D8DB37370000130727E4FA
:102E900098DF37370000130747DAECC3B0C3AA85C1
:102EA0000D46138581D023A0070223A2070223A485
:102EB000070223A6070223A80702D8DFEFD0EFEF0F
:102EC00001456FD02FD4370500201305057082808F
:102ED00037150020130505708280EFD26FD0B70739
:102EE000002003A7071B9307803EC1563357F70204
:102EF000B7E700E02386D7402387D740856623A025
:102F0000D710916623A0D710B7F700E023A00700E1
:102F100023A20700014690C78146D4C78146130605
:102F2000F7FF90CBD4CB3D4798C3EFD04FDAEFF00B
:102F30009FF92A84EFF0DFF9AA852285EFE02FA41C
:102F4000379500001305C559EFE06F876FD08FCB21
:102F500081478546130700023396F6006306A600F4
:102F60008507E39BE7FEFD573E858280EFD24FC782
:102F7000854513050002EF10700D6FD0AFC8EFD27A
:102F80002FC685452145EF10700C6FD0AFC7EFD22B
:102F90002FC585451145EF10700B6FD0AFC6EFD22E
:102FA0002FC485454145EF10700A6FD0AFC5EFD2F1
:102FB0002FC3854513050004EF1050096FD08FC44F
:102FC000EFD20FC2A56537A5000001469385455A8B
:102FD0001305C5C8EFF0FFE96FD0CFC293074006D5
:102FE00063ECA7009317450025651305C5633E955F
:102FF0001841FD576313F70001458280EFD24FBEA1
:10300000411113F5F50F32C6EFF05FFD19C5835579
:10301000C50032460845EF10C06141016FD08FBE38
:10302000EFD20FBC13F5F50FEFF05FFBAA87014558
:1030300091C783D5C7008847EF10005F6FD08FBC62
:10304000EFD20FBA011113F5F50F3284EFF01FF92B
:103050000DC55C412AC6829732455C45231AF100B2
:10306000C1473ECE8D473ECC09C41547631AE400E4
:1030700002CE08454C08EF10004F05616FD08FB8A5
:1030800005476315E40091473ECEE5B76315F400AC
:1030900093078002D5BF89476315F4009307800426
:1030A000E5B791476314F400D147F9BF994763141A
:1030B000F400F147D1BF9D47E31DF4FAE147E9B7BA
:1030C000EFD26FB013F5F50FAE84B289368A3A8924
:1030D000EFF0DFF0994739CD4845EFF07FE73D4706
:1030E0002A8499476368A704EFE01F9FB146B3069F
:1030F000D402B7070020138707082A86938707089A
:10310000369783160700639096024C43639D4501F2
:103110008355270063993501184763162701EFE0AF
:103120007F9C814701A87D576389E6003285EFE0E7
:103130007F9B9D473E856FD04FAC31453305A40240
:103140003E952310950023224501231135012324A8
:1031500025013285E9B7EFD2AFA813F5F50FEFF0EF
:10316000FFE719471DC94845EFF09FDEBD472A8498
:10317000194763E4A702EFE03F96B1473304F40236
:10318000B7070020938707087D57A297839607000B
:103190006398E600EFE01F9501473A856FD08FA650
:1031A00041677D1798C323A2070023A40700DDB75A
:1031B000EFD26FA1011113F5F50F328AEFF01FE284
:1031C000994721C185442A8463169A104845EFF037
:1031D0003FD83D47AA8499476365A702EFE0DF8F98
:1031E000B14AB38754033709002013090908AA8993
:1031F0003E9903170900FD576319F700EFE09F8E12
:1032000099473E8505616FD04F9F5C408297854509
:103210000545EF10A0635C440D473AC42312F1004A
:103220003EC88357290002CA52CE638C4709C1C7E2
:103230000947638DE70808444C00EF10C03218447A
:10324000B7170140938607C005456302D7020945B9
:10325000630FF700938707400D45630AF700B72710
:1032600001409387078001456313F700114593F5EB
:10327000F40FEF10A03C0808EF10C025A567938756
:10328000C75B8E04BE94D04037E700E0930600058C
:10329000B307C7002380D74093575600938707048E
:1032A00085468A07B396C600BA9794C34E85EFE069
:1032B0007F838147B9B7930780023EC6A1473ECCC2
:1032C0009DBF930780043EC656CCB5B791473EC616
:1032D000C147F5B79947E3160AF24845EFF05FC7D3
:1032E0003D479947E36FA7F0931735002565130510
:1032F000C55B3E9558419357570093870706B39493
:10330000E4008A0737E700E0BA9784C35DB7EFD2DD
:103310002F8DEFF0FFC3B1473305F502B70700204B
:10332000938707083E955C4199C3084582976FD003
:103330006F8D73110134EFD0AFDD0545EF10202004
:1033400019C50545EFF0BFFC0545EF102021EFD072
:103350002FDF731101347300203073110134EFD06B
:103360002FDB0945EF10A01D19C50945EFF03FFA05
:103370000945EF10A01EEFD0AFDC731101347300CC
:10338000203073110134EFD0AFD81145EF10201B5E
:1033900019C51145EFF0BFF71145EF10201CEFD014
:1033A0002FDA731101347300203073110134EFD020
:1033B0002FD62145EF10A01819C52145EFF03FF594
:1033C0002145EF10A019EFD0AFD77311013473006E
:1033D000203073110134EFD0AFD34145EF102016E8
:1033E00019C54145EFF0BFF24145EF102017EFD06E
:1033F0002FD5731101347300203073110134EFD0D5
:103400002FD113050002EF1080131DCD130500020C
:10341000EFF0FFEF13050004EFF07FEF1305000856
:10342000EFF0FFEE13050010EFF07FEE1305002024
:10343000EFF0FFED1305003EEF104012EFD04FD03C
:10344000731101347300203013050004EF10200FB6
:1034500055FD13050008EF10800E4DF913050010FF
:10346000EF10E00D45F513050020EF10400D59FD5C
:10347000F1B773110134EFD0AFC913050040EF105D
:10348000000C29C113050040EFF07FE80565130526
:103490000580EFF0DFE70565EFF07FE70965EFF006
:1034A0001FE71165EFF0BFE62165EFF05FE64165CC
:1034B000130505C0EF10800AEFD08FC873110134D7
:1034C00073002030056513050580EF1040075DF996
:1034D0000565EF10C0065DF50965EF1040065DF16A
:1034E0001165EF10C00559FD2165EF10400559F930
:1034F000E1B701458280EFC2BFEE9C412041A14669
:1035000041111CC0B1472315F400DC41231604000F
:1035100013F7F7006302D702A546631FD7000567BC
:103520002312E40013D747000D8B01C785466308BB
:10353000D7002313040039A023120400E5B709675C
:103540002313E40099838D8B05476389E70081C7C6
:103550000947638CE7062314040029A09307006041
:103560002314F4001848B747014093870780631A73
:10357000F704116585451105EF10402D93070020D4
:10358000B71401402312F1000D49E1474C001385A7
:1035900004803EC64AC4EF00107D9307004023120A
:1035A000F1004C009147138504803EC64AC4EF00E9
:1035B000907B0848A285EF10603E08488545EF10D3
:1035C000604B014541016FC0FFE39307004049BFD5
:1035D000EFC27FDFB7140020138484759307500374
:1035E0005CC837190020B74701401306097093875C
:1035F000078074461CC8A967938707C97CC2B707B0
:1036000000C0F58FC166A106716713070720D58F2B
:103610001165411138C67CC68545B7070C001105F8
:1036200018C01CC42322040023160400EF1000223B
:10363000B7190140930700202312F1000D4AE1471A
:103640004C001385098052C43EC6EF00D071930729
:1036500000402312F1004C009147138509803EC6BB
:1036600052C4EF005070084893858475EF10003302
:1036700008488545EF100040B79500009386847593
:10368000130630109385C55913050970EFF04FE00C
:10369000014541016FC07FD6EFC29FD42041930501
:1036A00000020848EF10C04201C91C4803D547007A
:1036B0001375F50F6FC01FD57D55EDBFEFC25FD2FB
:1036C00024412E84884893050004EF1060407DD982
:1036D0009C48420441802392870005456FC09FD2D9
:1036E000EFC21FD0C1473841638BF502C5476395D0
:1036F000F502544B054693D75600938707063316B9
:10370000D6008A07B7E600E0B69790C30146084B9B
:1037100093055052EF10C03701456FC0BFCE544BD8
:10372000054693D75600938707043316D6008A07B9
:10373000B7E600E0B69790C30546D1BF411122C657
:1037400026C473110134B7140020EFD06F9C938707
:103750000470A043930550520848EF10203819C94F
:10376000854513850470EFF04FD8084893055052F3
:10377000EF10003BEFD0CF9C731101343244A244D0
:1037800041017300203073110134EFD06F9837A5D9
:103790000000130505CBEFD09F85EFD06F9A731112
:1037A00001347300203073110134EFD06F9637A5C8
:1037B0000000130545CAEFD09F83EFD06F987311B7
:1037C000013473002030EFC2BFBE01119307050C16
:1037D000372400203EC8930704A79847844303A9D1
:1037E00007013AC4D843AA89130404A73ACA984FD8
:1037F0003AC2D84BB7A7000083AA87D403ABC7D47B
:10380000B7A7000003AA07D43AC6D68C5A8DD28D2A
:103810002685EF10A043AA852245EF30C01CD24573
:10382000AA8B2685EF207057AA84EF307015568634
:10383000DA862ACC2ECEEF20204C635DA0006247B2
:10384000F2475686DA863A85BE85EF202061EF3052
:10385000F01DAA844A85EF10603FAA851245EF301B
:103860008018B2452A8C4A85EF2030532A89EF30E0
:1038700030116686EA862ACC2ECEEF20E0476247DA
:10388000F247635BA0006686EA863A85BE85EF2034
:10389000E05CEF30B0192A89D2856285EF30A01440
:1038A000B7A7000083A507D49109EF20104FEF3090
:1038B000607B931705013ECCB7A7000083A507D412
:1038C0005E85EF304012EE85EF20304DEF3080798D
:1038D000E24742054181C98F23AEF9FEC247E39911
:1038E000F9F2232E8401232674012328240104C025
:1038F00005616FC0BFAF3715014041111305058049
:1039000005469305000422C6EF00B05237040010AC
:1039100013050420EF00903A0DCD9387C18B984397
:10392000372500201305059B050798C3EFF0BFE975
:1039300013050420EF005039371501400146930567
:10394000000413050580EF00D04E3244410173009E
:10395000203013050440EF00703679DD9387018C29
:103960009843372500201305058F050798C3EFF00E
:103970009FE5130504407DBF371501401305058001
:10398000054693050004EF00D04A9387818B984346
:103990000945050798C3EF00703219CD0945EF00BE
:1039A000B032371501400146930500041305058028
:1039B000EF003048730020301145EF00303075D1F2
:1039C0001145F1BFEFC2DFA141119307A0142314E9
:1039D000F100280085473EC623150100EF00D048BE
:1039E000ED4728002304F100EF00104841016FC0AB
:1039F0007FA1EFC2FF9E01118545114502C202C49D
:103A000002C602C802CA02CC02CEEF00306485456D
:103A100037050020EF00706537140140930700035D
:103A20002312F1004C008D47130504803EC402C6EA
:103A3000EF007033930700042312F1004C00C147DC
:103A4000130504803EC6EF001032B1470C08014553
:103A50003EC802CA02CC02CEEF00A0760C08414557
:103A6000EF00207685450145EF00A078854541456A
:103A7000EF00207885450145EF00607A8545414596
:103A8000EF00E07913061032930530120145EF0084
:103A9000C07B05616FC01F97EFC29F9479711306B9
:103AA000C00281454800EFC0BF9685450945EF003B
:103AB00010584800EF007015B77700409387074211
:103AC0003EC2B72700209387078F3EC4C1473EC63A
:103AD000930700063EC8930700083ECC93070020DA
:103AE0003ECE856793870780370402403ED0930718
:103AF00000023ED24C008D67130504433ED402CA37
:103B000002D6EF00100D1305044305468945EF006A
:103B1000F0130546130504439145EF003013854526
:103B200013050443EF00501145616FC0BF8DEFC214
:103B30003F8B7971130600028145080802C202C456
:103B400002C6EFC0FF8C85451145EF00305085451A
:103B50002145EF00B04F85454145EF00304F854589
:103B600013050020EF00904E854513050040EF003F
:103B7000F04D0D44930700034C003715014023120C
:103B8000F10022C4B714014002C6EF00D01DB147B6
:103B90004C00138504C02312F10022C402C6EF00BA
:103BA000901CBD474C00138504802312F10022C4F1
:103BB00002C6EF00501B8547372401403ECA23024E
:103BC000F102B70700043ED40C08B707080013053C
:103BD00004403ECE02C802CC02D07929130504402D
:103BE0008545E12313050440854605468545112397
:103BF0008546094613050440C145E52913050440DF
:103C00008545F929854513050440D92145616FC0D3
:103C10006FFFEFC2EFFC79711306C00281454800C7
:103C2000EFC00FFF85450545EF00704037040240A7
:103C3000130584000D2DB72701409387C7443EC26A
:103C4000B7170020938707773EC4930700063EC846
:103C5000930700083ECC930700103ECE9307004028
:103C60003ED0930700023ED24C008D6713058400BE
:103C70003ED402C602CA02D6A92F45616FC08FF892
:103C8000EFC20FF641118545096502C202C4231631
:103C90000100EF00B03B4800EF00104B373401400B
:103CA0008567938777BB4C00130504403EC402C26E
:103CB000EF00903D1305044093050002EF00104C07
:103CC000130504408545EF00B04985450945EF00DF
:103CD000D0394800EF005047370400404C0013052E
:103CE0000440EF00703A1305044093050002EF0012
:103CF000F048854513050440EF00904641016FC030
:103D00006FF0EFC2EFEA4111EF00F0627165130549
:103D10000520EF007067B707002083A5071B37A5B4
:103D20000000130585CEEF30207C37A50000130579
:103D300085CFEF30100D37A70000032787CCB724BD
:103D40000020938704A7D8C337A700000327C7CC58
:103D500013090000014C98C737A70000032707CDBF
:103D60008149938404A7D8CB37A70000032747CD08
:103D700098CFEFF03FC5EFF0DFC7EFF0FFD1EFF0E6
:103D80001FDBEFF01FE9EFF0BFEFB7A7000003A4C0
:103D900007CCB7A7000003A8C7CD83A787CDA28D06
:103DA00042C63EC4B7A7000003AB07CE83AB47CEE5
:103DB000B7A7000003AD47CCEF00B05CB306854168
:103DC0004D472A8A637ED70223AC2401A2854A8507
:103DD000EF20A07C2A89EF30A03A2246B2462A8CF6
:103DE000AE8CEF10507C635305006E8462855A865A
:103DF000DE86E685EF105070528C6353A0006A8413
:103E000033073A419306703EE3F8E6FA9305803EA5
:103E1000B355BA0203A7818B83A6018C03A6C18B7D
:103E200037A50000130545D1D289EF30E06B69B7A3
:103E3000B71702409843B706FFF841111367170000
:103E400098C3D84337060200758FD8C39843B70686
:103E5000F7FEFD16758F98C39843B706FCFFFD1655
:103E6000758F98C3D843B70681FFFD16758FD8C3E9
:103E70009843B70600ECFD16758F98C33707FF000F
:103E800098C723A6070202C402C69843C166558F8D
:103E900098C3B716024005679C42F18F3EC6A24701
:103EA00085073EC4B24781E7A247E397E7FEB7170D
:103EB00002409C431397E7006356070685473EC6BA
:103EC00032478547631EF704B7170240D843B70649
:103ED000C1FFFD16D8C3D843D8C3D84313670740E2
:103EE000D8C3D843758FD8C3D843C166558FD8C3BC
:103EF0009843B7060001558F98C3984393166700FF
:103F0000E3DD06FED843B7160240719BD8C3D84301
:103F100013672700D8C32147DC42B18BE39EE7FE3D
:103F20004101828002C669BF01A001A001A001A0D9
:103F300001A001A001A001A001A001A001A001A079
:103F400001A001A001A001A001A001A001A001A069
:103F500001A001A001A001A001A001A001A001A059
:103F600001A001A001A001A001A001A001A001A049
:103F700001A001A001A001A001A001A001A001A039
:103F800001A001A001A001A001A001A001A001A029
:103F900001A001A001A001A001A001A001A001A019
:103FA00001A001A001A001A001A001A001A001A009
:103FB00001A001A001A001A001A001A001A001A0F9
:103FC00001A001A001A001A001A001A001A001A0E9
:103FD00001A001A001A001A001A001A001A001A0D9
:103FE00001A001A001A07390123497D1FF1F93810B
:103FF000619C17C100201301E10017650000130543
:10400000254F97C5FF1F9385E5FF1386818163FACE
:10401000C5008322050023A0550011059105E3EAA0
:10402000C5FE1385818197E5FF1F9385E5A663771C
:10403000B500232005001105E36DB5FEFD42739028
:1040400002BCFD4273904280B782000093820280DE
:1040500073A0023097C2FFFF938242FE93E23200C8
:1040600073905230EFF0DFDC97C2FFFF9382E24F94
:1040700073901234730020305C413707F1E013076E
:10408000F7EF944D7D8F9C41D58FD44DD58FD44182
:10409000A206D58FD98F5CC11C4537F7F1FF1307F6
:1040A000D77FD4457D8F9C49D58F94458606D58F83
:1040B000D98F1CC55C55370710FF7D177D8F83C7CF
:1040C0004501FD1793F7F70FD207D98F5CD5828092
:1040D0001C4589C593E717001CC58280F99BEDBF7D
:1040E0001C4589C593E707101CC5828093F7F7EF3D
:1040F000E5BFA54763F7B7048D47138765FF33070F
:10410000F7020328C5009D47B397E70093C7F7FF61
:10411000B3F70701B396E600DD8E54C5994763E314
:10412000C70495477D163306F6025859FD47B397E5
:10413000C70093C7F7FFF98F3396C5005D8E50D93E
:1041400082800D473387E502032805019D47B39719
:10415000E70093C7F7FFB3F70701B396E600DD8EDC
:1041600014C96DBFB14763E2C702954765163306B0
:10417000F6021859FD47B397C70093C7F7FFF98FA9
:104180003396C5005D8E10D9828095474D16330653
:10419000F6025855FD47B397C70093C7F7FFF98F4D
:1041A000B395C500DD8D4CD582801C4591C5370780
:1041B0001000D98F1CC582803707F0FF7D17F98F5B
:1041C000D5BFB7760040056783A706407917331738
:1041D000A7001347F7FFD0417D8F9C41D18F9045B9
:1041E000D18FD045D18FB397A700D98F23A0F640A8
:1041F000828085473395A70089C937770040832798
:1042000007405D8D2320A7408280B777004003A739
:1042100007401345F5FF798D23A0A740828085676D
:104220003395A70089C937770040832707405D8D04
:104230002320A7408280B777004003A7074013459B
:10424000F5FF798D23A0A7408280A147631BF5006D
:10425000A205B777004093870742D18D3E950CC1E8
:104260008280C205FDB71C4141677917F98F1CC1D7
:10427000232005002322050023240500B707024060
:1042800023260500138787006317E500D8431367CB
:10429000F700D8C382801387C7016316E500D843AF
:1042A0001367070FFDB7138707036318E500D843AB
:1042B0008566938606F0558FE9BF1387470463151B
:1042C000E500D843BD66C5BF138787056316E500C3
:1042D000D843B7060F00C5B71387C7066316E500B6
:1042E000D843B706F000C1BF138707086316E5007F
:1042F000D843B706000FC1B7138787406319E5009D
:1043000003A747401367F70023A2E7408280138783
:10431000C7416317E50003A747401367070FEDB7D1
:1043200093870743631BF500B707024003A7474085
:104330008566938606F0558FC1BFB7070240138785
:1043400047446316E50003A74740BD66EDB71387F2
:1043500087456317E50003A74740B7060F00E1BF95
:104360001387C7466317E50003A74740B706F00069
:10437000D9B7138707486317E50003A74740B70677
:10438000000F55BF138707496319E50003A7474D81
:104390001367F70023AAE74C82801387074A631745
:1043A000E50003A7474D1367070FEDB71387074BCA
:1043B0006319E50003A7474D8566938606F0558F80
:1043C000D1BF1387074CE319E5FC03A7474DBD6632
:1043D000FDB71C4161773D0794517D8F9C45D58F7A
:1043E0009449D58FD449D58F944DD58FD44DD58F41
:1043F000D451D58F9455D58FD98F1CC1DC455CC164
:104400009C411CC5DC415CC5828023200500232221
:104410000500232405002326050023280500232A60
:104420000500232C0500232E05002320050223224E
:1044300005022324050282801C4189C593E71700E9
:104440001CC1828041677917F98FDDBF1C4101C60D
:10445000DD8D0CC1828093C5F5FFFD8DDDBF931707
:10446000350063DA0700B707024083A707407D8D58
:104470003335A00082809317250063D70700B70764
:10448000024083A7074DE5B7B70702409C43C5B775
:104490009317350063D70700B707024023A2A74050
:1044A00082809317250063D70700B707024023AA2D
:1044B000A74C8280B7070240C8C38280EFB25FF288
:1044C000EFF0FFF96FB01FF4EFB29FF1EFF05FFC78
:1044D0006FB05FF35841032805004C453706014093
:1044E000930706403E979346F8FFB1C583250640E3
:1044F000F58D2320B640D043F18ED4C31443B3E6E8
:10450000060114C3184190479346F7FF758E90C774
:10451000D047F18ED4C7144541466399C6009447ED
:10452000D98E94C7D447558FD8C78280B697944305
:10453000558F98C382801C43F58F1CC38280B707B8
:1045400001401387074083A70740584B698F09C76D
:104550007D8D3335A000828001458280B707014000
:1045600023AAA74082809C4513F7070113F8F700A0
:1045700001C7D8413368E80083D5050013F7F50F6C
:1045800039C318418146854E3D4F930F80029302F7
:104590008004214E3396DE00B3F8C5006311160384
:1045A0009398260033131F011343F3FF3377E3007F
:1045B000B318180133E7E800639FF70550C9850673
:1045C000E39AC6FD18C11307F00F6375B704544191
:1045D0002146854E3D4F930F800293028004414E49
:1045E000B398CE0033F715016392E8021317260043
:1045F00001173313EF001343F3FFB376D3003317E0
:10460000E800D98E639DF701232A15010506E319F9
:10461000C6FD54C18280E39457FA10C94DB7E397A1
:1046200057FE23281501DDB708456D8D3335A000F1
:10463000828019C20CC982804CC9828013F7C50FD1
:1046400093F73500B7050140BA9594458A073D4771
:104650003317F7001347F7FF758F98C59845331543
:10466000F500598D88C582809387418C9443034718
:10467000050089E683472500920731A89443054643
:104680006391C6048347250003461500920763140F
:10469000D60093E707F8B7E600E093F7F70FBA966E
:1046A0002380F6408546935757003397E6005441E0
:1046B000ADC6938707048A07B7E600E0B69798C3AC
:1046C00082808C4389466393D502834615008347D5
:1046D00025006365D6008A06B69779BF9386E60300
:1046E0008A06B69793F7F70F920765B790438D4602
:1046F000631ED60083461500834725006364D600F9
:104700008606D9BF9386C6078606E1BF94439147C4
:10471000E39AF6F88347150085B79387070661BFCC
:10472000371702405C439146B18B6385D700A146A1
:104730006386D706B7177A00938707201CC1371600
:1047400002405C4237070020130707149183BD8B9A
:10475000BA9783C607001C41B3D7D7005CC1544247
:10476000A1829D8ABA9683C60600B3D6D70014C527
:104770005442AD829D8A369703470700B3D7E700BE
:104780005CC558423983937637001387418036974A
:1047900003470700B3D7E7021CC982805C43544338
:1047A0004167C983F98E37F7FF1F0327C770BD8B99
:1047B00089071316170163480600454601476392AF
:1047C000C702C94739A809476389E7023D4763889B
:1047D000E70241476388E702454601476393C70004
:1047E000C14785E6B746024083A60680C18A8DC6CA
:1047F000B7167A009386062025A00147D9B705474A
:10480000B547C5B70147BD47E9BFB7160240D44217
:104810001396E600E35E06FCB7163D00938606900D
:10482000B387D7021CC101DF1C41858301BF99C535
:10483000371702405C4B5D8D48CB8280B717024032
:10484000D84B1345F5FF798DC8CB828099C53717B2
:1048500002401C4F5D8D08CF8280B7170240984FF1
:104860001345F5FF798D88CF828099C537170240AF
:104870005C4F5D8D48CF8280B7170240D84F1345FB
:10488000F5FF798DC8CF8280835705003737014007
:10489000930607C0C207C1836300D504B706004072
:1048A000630CD502938606406308D502B716004014
:1048B000138606806302C502938606C0630ED50088
:1048C00013070740630AE50037570140930607C006
:1048D0006304D5006317E50003D7250093F7F7F8C5
:1048E000D98F37170040630DE500130707406309B0
:1048F000E50093F7F7CF03D76500C207C183D98FCF
:104900002310F50083D745002316F50283D7050051
:104910002314F502B7370140138707C0630EE50083
:1049200093870740630AF500B7570140138707C014
:104930006304E5006316F50083C785002318F502BC
:104940008547231AF5008280FD572312F5002310B6
:1049500005002313050023110500230405008280B0
:104960008357050091C593E717002310F500828057
:10497000C207C183F99BC207C183C5BF83574500E6
:10498000C207C18393F7F7F8C207C1832312F5006A
:1049900083574500DD8D2312B5008280EFB25FA4FE
:1049A00083560501F577FD17F58F83D6650003D78C
:1049B000C5007971D58F2318F5008356C500FD77A2
:1049C0009387379FF58F83D645002A842EC6D58FCF
:1049D00083D68500D58F83D6A500D58F2316F50005
:1049E00083574501C207C18393F7F7CFD98F231AA5
:1049F000F5006808EFF0DFD2B747014093870780E2
:104A0000B245631DF404A2578356C4006547B387BB
:104A1000E702C206C186984163D40604060703561E
:104A2000C4004206B3D7E702130740064186B3D657
:104A3000E702B3F7E7029206635606028E079387F2
:104A40002703B3D7E70213F77700B367D700C2078E
:104A5000C1832314F40045616FB0DF9A92576DB79C
:104A60000A0775BF920793872703B3D7E702BD8B69
:104A7000D58FF1BF81C98357C5000967D98F231628
:104A8000F50082800357C500F977FD17F98FC5BF80
:104A900013F7F50F85471583B395B7006319F70032
:104AA0009307C500984301CED98D8CC38280894677
:104AB00093074501E318D7FE93070501E5B793C5B2
:104AC000F5FFF98DDDB793F5F51F2312B500828050
:104AD000035505006D8D3335A000828013F7F50F67
:104AE00085461583B397B6006313D7020357C500F5
:104AF000F98F0357050001454207418381CB0545E6
:104B0000A181B315B5006D8F3335E00082808946F1
:104B10006315D70003570501E1BF03574501C9BF1E
:104B2000A1818547B397B70093C7F7FFC207C18339
:104B30002310F5008280EFB2BF8A411102C4B14751
:104B40002304F100280085473EC6EFF0FFB1B7F718
:104B500000E023A0070023A20700814694C7014775
:104B6000D8C7370700208325071B1307803E8146DF
:104B700033D6E5023D4790CBD4CB98C341016FB00B
:104B80007F8803A5818C8280EFB29F852A8411657E
:104B9000011185451105EFF07FCB9307002023120B
:104BA000F100371501408D473EC44C00E147130525
:104BB00005803EC6EFF03F9B22C837440140B7074F
:104BC00008000C08130504803ECC02CA231E010015
:104BD000EFF0DFDC854513050480EFF0BFE90561E8
:104BE0006FB05F82EFB22FFEB7440140AE893289C9
:104BF000014493840480634524014A856FB0EFFF2C
:104C0000930500042685EFF0BFEC7DD9B3878900BA
:104C10008385070026850504C205C181EFF0BFEA40
:104C2000D9BF138781801C43B7260020938646A9ED
:104C30003E95636BD500B70601209386068063E539
:104C4000A60008C33E858280FD57EDBF011122CC2E
:104C5000370400809347F4FF3717493F06CEE98FAA
:104C6000130787FD635CF7023707807F63C9E7009E
:104C7000AA85EF208000F2406244056182802C000A
:104C8000B1200D8985476304F5028947B245630960
:104C9000F50215C122456926218DF1BF0146930514
:104CA0000000EF009056F240624405618280B245F8
:104CB0002245BD26C9B722450546EF00105565BF00
:104CC00022450546EF007054218D75B7397122DCFD
:104CD0003717493F1314150006DE26DA4AD84ED698
:104CE00052D456D25AD05ECE62CC0580130787FDCF
:104CF0006352871237D71640130737BEAA89AE848E
:104D000063418706975700009387C70441988C43F7
:104D1000635EA02AEF107076B717C93F938707FD2F
:104D20002A896306F410175400001304E4020C40AF
:104D3000854BEF109074AA8588C04A85EF10F073F8
:104D40000C40EF109073C8C0F25062545E85D2548C
:104D50004259B259225A925A025BF24B624C21617B
:104D6000828037174943130707F86351870E3707C7
:104D7000807F6357E40A135974411309A9F7931705
:104D800079011D8C2285EF20C027EF200033AA87F0
:104D9000AA8522853EC2175A0000130AAAFDEF1009
:104DA000D06D83250A00EF101044AA8AEF206025F9
:104DB000EF20A030AA852A84568522C4EF10F06B1C
:104DC00083250A00EF103042930500002AC6EF1039
:104DD00070338D4609E9930500002285EF1090326B
:104DE000B336A0008506975700009387E700094770
:104DF0004A86A68548002529AA8BE3D709F498405E
:104E0000DC40B7060080358FB58F98C0DCC0B30B8F
:104E1000A0401DBF9307000088C1DCC1814B2DB7A6
:104E2000AA85EF109065C8C088C0814B31BF9757E5
:104E300000009387A7F28C4317540000130444F238
:104E4000854BEF1090632A890C40E5B5EF00B04E1A
:104E500097570000938707F18C432A89EF10B038E9
:104E600097570000938747F08C43EF100073EF20B3
:104E70004019AA8BEF20602497570000938787ED95
:104E80008C43AA8AEF103036AA854A85EF10F05E6F
:104E900097570000938747EC8C432A8B5685EF1079
:104EA0009034FD472A8AAA855A8563CA7705EF1090
:104EB000D05C9387FBFF13972700975700009387D9
:104EC000A7EBBA979C43137704F02A89630CF70287
:104ED00023A02401CA855A85EF10305AD285EF10DD
:104EE000D059C8C0E3D209E6B707008033C927010B
:104EF0003D8D23A02401C8C0B30B7041B1B5EF10A4
:104F0000D0572A89935779015D8493F7F70FB30738
:104F1000F4402147E35EF7FA97570000938707E4D0
:104F20008C435685EF10302C2A89AA855A85EF10BC
:104F3000D054AA852A8C5A85EF103054CA85EF10B8
:104F4000D053975700009387A7E18C432A89568551
:104F5000EF107029CA85EF105052AA852A8A6285FF
:104F6000EF10B0519357750193F7F70F1D8CE5477C
:104F70002A8963C5870088C0628BA9BF9757000044
:104F80009387C7DE8C435685EF10F0252A84AA85C7
:104F90006285EF10904EAA852A8B6285EF10F04D46
:104FA000A285EF10904D97570000938767DC8C43E4
:104FB0002A845685EF103023A285EF10104CAA8565
:104FC0002A8A5A85EF10704B2A8919B7EF10E05CD6
:104FD000B717C93F938707FD2A896304F402175462
:104FE0000000130464D70C40FD5BEF10005BAA8542
:104FF00088C04A85EF1070480C40EF10005AC8C0B6
:10500000A1B397570000938767D58C4317540000CE
:10501000130404D5FD5BEF1040582A890C40F1B70A
:10502000011126CA931415004AC84EC606CE22CCDA
:1050300052C456C28580B70700322A89AE8963D828
:10504000F40CEF10107C630E051CCA854A85EF1026
:105050009019975700009387670C8C432A84EF10B0
:105060009018975700009387A70B8C43EF10E052DE
:10507000A285EF105017975700009387A70A8C431B
:10508000EF10B03FA285EF101016975700009387DE
:10509000A7098C43EF106050A285EF10D0149757EA
:1050A00000009387A7088C43EF10303DA285EF10D6
:1050B0009013975700009387A7078C43EF10E04D9C
:1050C000A285EF1050122A8A975700009387C7C90C
:1050D0008C432285EF103011AA84D2852285EF10EF
:1050E00090102A84CE854A85EF10F00FAA8522857C
:1050F000EF10B038AA852685EF103038975700009A
:1051000093878701AA858843EF103037F5A0AA85D9
:10511000EF10700D97570000938747008C432A8447
:10512000EF10700C97570000938787FF8C43EF10A8
:10513000C046A285EF10300B97570000938787FE7B
:105140008C43EF109033A285EF10F00997570000C1
:10515000938787FD8C43EF104044A285EF10B00881
:1051600097570000938787FC8C43EF101031A2857E
:10517000EF10700797570000938787FB8C43EF1061
:10518000C041A285EF103006B7A7993E9387979943
:105190002A8AE3DB97F2B707483F63C89706975719
:1051A0000000938767F78843B70700FFBE94A68582
:1051B000EF10B02CAA8A975700009387E7BA8C4368
:1051C0002285EF105002A685EF10302BAA84D285DD
:1051D0002285EF1050012A84CE854A85EF10B00059
:1051E000AA852285EF107029AA852685EF10F02860
:1051F000AA855685EF107028F2406244D244424995
:10520000B249224A924A05618280975700009387EB
:1052100027F083AA0700975700009387A7EF8443DE
:1052200059BF97570000938727EF8843F1B7217143
:10523000131827003ADA17570000130767F32326DD
:10524000311B2320611BB689232E71194297232E0F
:10525000111A232C811A232A911A2328211B232473
:10526000411B2322511B232C8119232A9119232806
:10527000A1192326B11932DEF1562ACE2ED83ED0FE
:10528000032B0700938BF9FF634DD66C1307D6FFF2
:105290009357F7419D8BBA978D873ECC85078E0734
:1052A0003EDC6247E256B3077B0133047741725715
:1052B000138917000409158F3AC6229963C20702A1
:1052C000025A93172400D297130500006345040087
:1052D0008843EF10905E88C005049104E31324FF17
:1052E000131C2B00634B0B04F24D13992B001C096C
:1052F00013044900131C2B003E995C1A041A338ACC
:1053000087016E94CA8CEE8A130D000063C10B02F4
:1053100083A50C0003A50A00910AF11CEF10A06CF4
:10532000AA856A85EF1060272A8DE3938AFE23A061
:10533000A40191041109E39744FD741813078CFF2D
:10534000369C940036973AD4724713942900B2469B
:105350003A94370700407D173AC42147158F9307C9
:10536000FBFF8A073AD61803BA97DA84930A011327
:105370003ED25ACA139D24001C03EA9783AD07FB53
:1053800063569006A247175700001307A7DD032BAB
:1053900007003389F4000A09175700001307879D97
:1053A000569993090104032A070011A03E89DA8562
:1053B0006E85EF104063EF10D044EF101050D2858F
:1053C000AA8CEF104062AA856E85EF10100BEF10CB
:1053D00050438325090023A0A9006685EF10E01B38
:1053E000AA8D9307C9FF9109E3922AFD324B6E857E
:1053F000DA85EF007001975700009387E7D68C435A
:105400002A89EF10405EEF00607397570000938782
:10541000E7D58C43EF10205DAA854A85EF10F00593
:105420002A89EF10103EAA89EF103049AA854A85D3
:10543000EF10B0042A8A635560119387F4FF1803B4
:105440008A07BA9703A907EC32561D47330767410D
:10545000B356C9403396C6003309C94023A027ED8F
:105460003359E940B699634B200F930500005285EC
:10547000EF104049631E0516D247138AF4FF634FAD
:10548000FA00A2479800A6978A07BA970147944363
:10549000F117558FE39D87FF631D072A925783A756
:1054A00007EC6393072AA2570547F117D443050772
:1054B000EDDE938714003E8BBA9462473389FB007C
:1054C000F24D330AF70022478A070A0A3A9902572F
:1054D0000A09B389FA001C093A9A3E9962C8032561
:1054E0000A00EF10903D2322A90063C00B044A8DEF
:1054F000EE8C130C000021A003250D00711D83A567
:105500000C00910CEF10204EAA856285EF10E00888
:105510002A8CE3938CFE23A08901050B110A9109C3
:105520001109E3DE64FB424CB1B5130C000023A06B
:105530008901050B110A91091109E3D264FBE5B752
:10554000B247639B071C9387F4FF8A071803BA9737
:1055500003A907EC13598940E35920F185096356E3
:105560009040064B854763180B16638EF400D400F9
:10557000054703AB0600930717009106631E0B1443
:105580003E87E398F4FE32476353E0028547630E9B
:10559000F73A8947631DF7009387F4FF18038A07DA
:1055A000BA9703A707EC1377F70323A0E7EC894723
:1055B000E31DF9EA97570000938707B68843D28521
:1055C000EF10A06B2A8AE3020BEA9757000093873B
:1055D000A7B48843B2450D2DAA855285EF10E06926
:1055E0002A8A930500005285EF10C031E30605E8D2
:1055F000E25772575285524BB385E74031259747A2
:1056000000009387277780432A8AA285EF104035D0
:10561000634B053A975700009387C7B48C43528574
:105620001C03B38BA701EF10003CEF10901DEF108F
:10563000D028A285AA8AEF10003BAA855285EF10D8
:10564000C063EF10101C138A14001C0323A0ABECE2
:1056500013142A0056853E94EF10B01AB247232047
:10566000A4ECA1073EC6975700009387E7AA88439A
:10567000B245592BAA8A635E0A105257894763C6FE
:10568000E720634EE0361305000001EB63050900D7
:10569000B70700803D8DC25788C38320C11B0324F8
:1056A000811B13F579008324411B0329011B8329E6
:1056B000C11A032A811A832A411A032B011A832B48
:1056C000C119032C8119832C4119032D0119832D34
:1056D000C11839618280014714030A07369793067F
:1056E0000010338B6641232067ED63D597028A074C
:1056F000180394003E973386A601B697032707EC5C
:105700009306F00F11A098433387E64098C39107A2
:10571000E39BC7FE054B85BD974700009387C76491
:105720008C430149EF10C023E34105D485090949A1
:10573000E34990E2975700009387079E8843D285FC
:10574000EF10A0532A8A15B3938714003E8BBE84B2
:10575000ADB3180393172A00BA97324783A707EC13
:10576000524B61173AC681EF93972400E1179400DA
:10577000B697F117D4437D1A6117E5DE3AC69757FD
:105780000000938767998843B245BD29AA8AE346FA
:105790000AEE13172A001C1AB384E70094009757E7
:1057A00000009387279C3AC4338DE600268483AC9F
:1057B000070011A03E8D03250D007114EF10F00FAE
:1057C000D685EF10402248C0E6855685EF10A0210F
:1057D0009800AA8A9307CDFFE31EA7FD930C010E44
:1057E000E68A0144634E0B0497570000938747975E
:1057F000175D0000130D4D94268C8843930D000017
:10580000814B39A0110C6341740303250D00110D68
:1058100083250C00850BEF10001DAA856E85EF0017
:10582000D057AA8DE3507BFF23A0BA01181A0504B4
:10583000910A9387C4FF63009702BE84E3560BFA74
:10584000930D000023A0BA01181A0504910A93874A
:10585000C4FFE31497FE5257894763C8E702BA872B
:105860006347E010224713050000B38BEC0099C397
:105870002DB5BE8B83A50B00EF0030529387CBFF75
:10588000E3997CFFE30909E021B552578D47E31600
:10589000F7E063594017931A2A001C03D697930C1C
:1058A000010E1384CAFF03AB07F6669411A03E8471
:1058B000832B0400DA855E85EF00304EAA84AA852A
:1058C0005E85EF10803BDA85EF00304D48C004C0A4
:1058D0009307C4FF268BE39C8CFC854763D4471356
:1058E00013142A001C03BE9A711483AA0AF6B38407
:1058F0008C0011A0BE8403AB0400D6855A85EF004E
:10590000D0492A8AAA855A85EF102037D685EF001C
:10591000D048C8C023A044019387C4FFD28AE39B28
:10592000FCFC1104A29C1305000083A50C00F11CD3
:10593000EF00B046E39B94FF8E561E57631F090885
:10594000C25794C3D8C388C789BB9387F4FF180391
:105950008A07BA9703A707EC1377F70723A0E7ECAA
:10596000B9B1A1473EDC02CC2DBA014B29B9A247FF
:10597000130400002285B38BFC0011A0BE8B83A50D
:105980000B00EF0090419387CBFFE3997CFF2A84C3
:105990000E55A285EF10602E631B0904C25780C309
:1059A00063504003C41105448C4005049104EF008A
:1059B000D03EE35B8AFE63050900B70700803D8D9A
:1059C000C257C8C3D9B952851C033384A701EF104D
:1059D00040632320A4EC268A5DB34256B7070080BB
:1059E000BD8E3D8FA98F14C258C21CC67DB1B707AA
:1059F00000803D8CC25780C3E34640FB7DBF13044B
:105A0000000079B71305000005BF011193171500B9
:105A100022CC4EC652C406CE26CA4AC856C2858378
:105A2000370700322A84AE89328A63D6E700EF1046
:105A3000405DA28749CDA2852285EF00D07AAA8455
:105A4000AA852285EF00307A974700009387077375
:105A50008C432A892685EF001079974700009387A9
:105A600027728C43EF106021A685EF00D07797470F
:105A70000000938727718C43EF003032A685EF003A
:105A8000907697470000938727708C43EF10E01EB5
:105A9000A685EF005075974700009387276F8C43CA
:105AA000EF00B02FAA8A631E0A02AA852685EF009E
:105AB0009073974700009387A76D8C43EF10E01B0E
:105AC000CA85EF005072A285EF00302DAA87F24000
:105AD0006244D2444249B249224A924A3E85056113
