:100000006F404009130000001300000013000000BF
:100010001300000013000000130000001300000094
:100020001300000013000000130000001300000084
:08003000130000007300100032
:100038000000000000000000463700004A370000BA
:1000480000000000DA3F000000000000000000008F
:10005800DC3F0000DE3F0000000000000000000060
:10006800B24B000000000000540300000000000034
:10007800E43F0000E63F0000E83F0000EA3F0000E0
:10008800EC3F0000EE3F0000F03F0000F23F0000B0
:10009800F43F0000F63F0000F83F0000323900004E
:1000A800FC3F0000FE3F000000400000024000004E
:1000B8000440000006400000084000000A4000001C
:1000C8000C4000000E4000001040000012400000EC
:1000D8001440000016400000184000001A400000BC
:1000E8001C4000001E40000020400000224000008C
:1000F8002440000026400000284000002A4000005C
:100108002C400000AC3600003040000032400000B7
:100118003440000036400000384000003A400000FB
:100128003C4000003E4000004040000042400000CB
:100138004440000046400000484000004A4000009B
:100148004C4000004E40000050400000524000006B
:100158005440000056400000603800005A4000003B
:100168005C4000005E40000060400000624000000B
:100178006440000066400000684000006A400000DB
:100188006C4000006E4000007040000072400000AB
:100198007440000076400000784000007A4000007B
:1001A8007C4000007E40000080400000824000004B
:1001B8008440000086400000884000008A4000001B
:1001C8008C4000008E4000009040000092400000EB
:1001D8000000000000000000000000000000000017
:1001E8000000000000000000000000000000000007
:0801F8000000000000000000FF
:1002000097020120938202E0938202E0739002340D
:100210000321050022457310053079A8197102E009
:1002200006E20AE40EE612E816EA1AEC1EEE22F0E6
:1002300026F22AF42EF632F836FA3AFC3EFEC2E0F6
:10024000C6E2CAE4CEE6D2E8D6EADAECDEEEE2F0C6
:10025000E6F2EAF4EEF6F2F8F6FAFAFCFEFE1971AE
:100260002320250006C006C216CAF322003093F2EE
:100270008200638402009302000816C412C81ACCDC
:100280001ECE22D026D22AD42ED632D836DA3ADC66
:100290003EDEC2C0C6C2CAC4CEC6D2C8D6CADACC36
:1002A000DECEE2D0E6D2EAD4EED6F2D8F6DAFADC46
:1002B000FEDE03A1050009A002457310153492402B
:1002C0003785000013050580732005302245732013
:1002D00005304242D2426243F243025492542255C4
:1002E000B2554256D2566257F257064896482649AA
:1002F000B649464AD64A664BF64B065C965C265D86
:10030000B65D465ED65E665FF65F0961026092602A
:100310002261B2614262D2626263F26302749274D9
:100320002275B2754276D2766277F2770668966861
:100330002669B669466AD66A666BF66B067C967C59
:10034000267DB67D467ED67E667FF67F0961730088
:1003500020300000197102E006E20AE40EE612E81D
:1003600016EA1AEC1EEE22F026F22AF42EF632F8E5
:1003700036FA3AFC3EFEC2E0C6E2CAE4CEE6D2E875
:10038000D6EADAECDEEEE2F0E6F2EAF4EEF6F2F8C5
:10039000F6FAFAFCFEFE197116CA9302000816C49A
:1003A0009302000273A0428006C212C81ACC1ECE6D
:1003B00022D026D22AD42ED632D836DA3ADC3EDE05
:1003C000C2C0C6C2CAC4CEC6D2C8D6CADACCDECE75
:1003D000E2D0E6D2EAD4EED6F2D8F6DAFADCFEDEE5
:1003E00073110134EF006063EF107003EF00E065FC
:1003F0007311013413840189032904006304090281
:1004000023200400732510342AC0138481880440FB
:1004100023A024001384C188044003A104000245E2
:10042000731015349240B78200009382028073A04B
:100430000230A24273A002304242D2426243F243EF
:10044000025492542255B2554256D2566257F25730
:10045000064896482649B649464AD64A664BF64B60
:10046000065C965C265DB65D465ED65E665FF65FB0
:100470000961026092602261B2614262D26262638B
:10048000F263027492742275B2754276D276627704
:10049000F277066896682669B669466AD66A666B18
:1004A000F66B067C967C267DB67D467ED67E667F84
:1004B000F67F0961730020300000397101436EC678
:1004C00019A0397141536AC866CA62CC5ECE19A0C0
:1004D000397101535AD056D252D44ED64AD826DA60
:1004E00022DC06DE33016140828241114AC026C20D
:1004F00022C406C68282B24D4101024D924C224C6A
:10050000B24B4101024B924A224AB249410102498F
:1005100092442244B240410182803D432A87637362
:10052000C3029377F700BDEFADE5937606FF3D8AF2
:10053000BA960CC34CC30CC74CC74107E36BD7FE3C
:1005400011E28280B306C3408A06970200009696A5
:100550006780A6002307B700A306B7002306B700ED
:10056000A305B7002305B700A304B7002304B70011
:10057000A303B7002303B700A302B7002302B70009
:10058000A301B7002301B700A300B7002300B70001
:10059000828093F5F50F93968500D58D939605018E
:1005A000D58D61B7939627009702000096968682B4
:1005B000E78086FA9680C1171D8F3E96E374C3F8D4
:1005C000A5B703A581808280014582800145828094
:1005D0000145828001458280EFF23FF12564A564E8
:1005E0001304446493840465636394000DB71C4052
:1005F00011048297D5BFEFF25FEF2564A564130461
:100600000465938484656363940011B71C401104EE
:100610008297D5BFEFF27FEDF93FEF300073C5BD94
:10062000EFF2BFECB705000037850000D147154752
:10063000930600200146938545611305459FEF1001
:10064000602DEF10603FE1B5EFF23FEAEF10005E82
:10065000EF20F01DEF003031EF104057EF00307FFA
:10066000C137EF1040573D24EF104001014545B51B
:10067000EFF2BFE7D13F014559BDEFF27FE5AA890F
:10068000EF10E02819C1EF10C0102545EF00D0672A
:1006900044411304450063968400EF10402701494C
:1006A00019A8138944FF2146CE854A85EF002067AB
:1006B00001E9EF10C02519C1EF10400F4A8599B527
:1006C0008440D1BF09E57D5582807D5589B5EFF223
:1006D000DFE12A842E853289AE8445377DF5228577
:1006E0002686A545EF00F0640145231C2401230E56
:1006F0000400231D0400D9BFEFF23FDF83578501BB
:1007000041112A84C18B8DEB1C558DC32EC6829757
:10071000AA84B24501CD2A8637850000A28513053B
:10072000C59FEF00701D26854101D5B38357840115
:1007300093E70701231CF40083578401A18B91C721
:100740008357A401E554A18BF9FF5C548DC3228526
:100750008297AA840DE58357A40193E78700231DA0
:10076000F4008347C4018507230EF4006DBF85673D
:100770009387F7F0FD8D231DB4008144E9BFE9574D
:10078000E313F5FAC9BF8347C5018DCBEFF2FFD55F
:10079000FD1793F7F70F230EF5002A84014789EF21
:1007A0001C5989E70147231D040039A082972A8735
:1007B00075D9E957E309F5FE3A8591BB7D573A852E
:1007C0008280EFF29FD20347C50109E77D551D29BD
:1007D000014521A05C5999C3829715BB6955C5BFD6
:1007E000EFF2BFD00347C50109E77D552129014537
:1007F00021A01C5D99C3829719BB6955C5BF0CD157
:1008000001458280EFF2DFCC93894186854A83A738
:10081000418663863705EF10604183A741862A8AA7
:10082000638D370303A441865C4018401309C4FE5E
:100830005CC398C340C000C0EF00B0757C5099C342
:100840004A8582974A85EF001060631B55014A85EF
:10085000EF001054EF0090755285EF10E03D5DB150
:10086000EF00D0745285EF10203D4848EF00303F34
:100870004A85EF00305A61BFEFF23FC71384C1933E
:10088000130904011C4091C382971104E31C24FF47
:10089000953FEDB7EFF27FC537160000B785000032
:1008A000930800023D48930700201387C1948146B6
:1008B00013068687938545A31385C18BEF1000022D
:1008C0001385C18BEF10401799B1EFF21FC2411190
:1008D0002A842E8532C62EC4EF1020083246A24547
:1008E00019C68547630DF600014541010DB1584019
:1008F000938745011CC398CD5CC0C0C9F5B71C40A7
:100900006388870083C6550303C7170263FAE600AE
:10091000D4431387450198C294CDD8C3DCC9E9B745
:100920009C43F9BFEFF27FBC4111B2842E8689450A
:100930002A8436C6EF00F03FB246930744011CCC30
:100940005CC8231E9400A304D40001454101C1B634
:10095000EFF21FB883A7018541112EC62A8491C3E7
:100960008297EF10A02C8357C401AA8991CFFD175D
:10097000231EF400EF10402C83A7C184014591CBC6
:1009800022858297014531A0B24791E7EF10C02A36
:100990007955410185BEEF00907723280502034673
:1009A0009400AA85AA84130544010537B247635C05
:1009B000F0001389C404700081454A85EF10201DA2
:1009C0004A85EF10E0104E85EF100027EF00D04D64
:1009D00088585DD17DBFEFF25FB183A781842A84FF
:1009E00091C38297EF108024AA844848930744015A
:1009F000630EF5003115EF00707F05442685EF107A
:100A0000A02319C0EF00504A014511B68357C40115
:100A10008507231EF4000144D5B7EFF21FAD411145
:100A2000EF10C0201387418183470700850793F7A4
:100A3000F70F2300F70083A7C18081C72AC68297DA
:100A40003245EF10601F4101D9B4EFF21FAA4111E6
:100A5000EF10C01D1387418183470700FD1793F7EF
:100A6000F70F2300F70083A7018181C72AC6829769
:100A70003245EF10601C410159BC03C541818280A1
:100A8000937808044111639E0800A168938808BE0A
:100A900093730801638B03001378E8FF930E000241
:100AA00019A8A1689388C8B3E5B713731800930E0B
:100AB0000003E30503FE13732800630F0306635866
:100AC00006023306C0409302D0020A8E814F294F9E
:100AD0006396E6073373D6023356D6024693034332
:100AE0000300850F050EA30F6EFE7DF215A0137394
:100AF00048009302B0026317030093728800B33278
:100B00005000960279F2930600032300D100854F2E
:100B1000FE8663D3FF00BE8613781801158F63131A
:100B20000804638502006353E0007D172A86B3083A
:100B3000E5001303000221A88142E9B71373F60010
:100B4000118269BF6374B60023006600050633880E
:100B5000C840E34900FF3A866353070001467D170A
:100B60003295118F638802006374B500230055002D
:100B70007D17050563870302AA96130800031DA8C5
:100B80006374B6002300D60105063388C840E349E4
:100B900000FF3A866353070001467D173295118F97
:100BA000E1BF2A86B308E500CDB76374B500230022
:100BB000050105053386A640E3C9CFFEFD56FD1F9E
:100BC0006383DF0099E7AA873306E5001308000274
:100BD00005A06378B5003306F10103460600230043
:100BE000C5000505E9BF63F4B70023800701850749
:100BF000B306F640E349D0FE6353070001473A9538
:100C000041018280EFF27F8E2A84853D09C523ACA5
:100C100081806FF0DF8FEF00904F75D900D9D5BF7D
:100C20000D47AA876376C7009377350091C7AA87D7
:100C30003E966397C706828093F7F50F1397870058
:100C4000D98F139707015D8FB308C500AA87BD46EA
:100C50003388F84063EB060393574600C156B386CA
:100C6000D7029207AA970D4836963383C700BE86EF
:100C7000B308D3406362180313572600F156B30636
:100C8000D7020A07BA97369665B798C3D8C398C7EC
:100C9000C10723AEE7FE6DBF910623AEE6FEC9BFD6
:100CA0008507A38FB7FE71B763F3A504B386C500AC
:100CB000637FD5029345F6FF8147FD176393F500E7
:100CC00082803387F600030807003387C7002A971E
:100CD00023000701DDB73387F500830607003307DC
:100CE000F50085072300D700E317F6FE82808147D1
:100CF000E5BF0DC6AA8785050387F5FF850793061F
:100D0000F6FFA38FE7FE09EB3E9685076393C700C6
:100D10008280A38F07FED5BF3686F1FE8280014711
:100D20006314E600814705A0B307E500838607004A
:100D3000B387E50083C70700B387F640E207E18782
:100D400099E30507F1FE3E858280AA8703870700A5
:100D500001E73385A74082808507CDBFEFF26FF6AC
:100D60002E89B30B250141112A8CB68563F5AB00A2
:100D70001349F5FFFD5BC169378A00006284930A5D
:100D8000B002130B0002FD19130A8ABD39A813071C
:100D90005002638AE702637474012300F4001305B0
:100DA0001400B284138614002A8483070600E5F336
:100DB0006306090063747431230004003305844121
:100DC00041016FF08FF301481307D0029306300200
:100DD0001305000331A0639E57011368480026865F
:100DE0008307160093041600E397E7FE13680801D3
:100DF000FDB76395670113688800D5B76395D70081
:100E000013680802E9BF6395A70013681800C1BF03
:100E1000138707FDA54663E6E6040147A546294575
:100E200039A03307A70285043E97130707FD838780
:100E30000400138607FDE3F6C6FE0386040093064E
:100E4000E002FD57631FD60483871400254693866E
:100E50001400138507FD6367A60A814725452943CA
:100E60003DA09306A0027D57E399D7FC98419304D7
:100E700026009105E35307FC3307E040136808019F
:100E80006DBFB38767028506B297938707FD038618
:100E90000600930806FDE37615FF63D3070081473C
:100EA000B6848386040013068006014593F8B6FFD6
:100EB0006395C80013F5F60F8504038604009306B6
:100EC00090066305D60663C7C60693068005630CC5
:100ED000D61C63C5C60493075002630FF61A6376E7
:100EE0007401930750022300F40083870400130564
:100EF0001400638E071A63747501A300F4001305D0
:100F000024004DB51306A0026397C7009C41938649
:100F10002400910559B7B684814761B7930630061E
:100F20006302D60893064006E31BD6FA136828002E
:100F3000A94699A0930630076306D60C63C5C6027E
:100F40009306F0066307D61693060007E319D6F852
:100F5000FD566315D700136818002147938C450090
:100F6000C14690411DA893065007E303D6FC9308A1
:100F70008007C146E31516F71306C006938C45009B
:100F8000E301C5FE13068006E31DC5FC9041937581
:100F900028006392051233763601DE852285CD3432
:100FA000E68509B51378080163160802BA87930627
:100FB000000231A0637474012300D4000504FD17FE
:100FC000E34AF0FE9307F7FF6343E00005473387EA
:100FD000E74005079387450063757401944123003A
:100FE000D40013051400229713060002B306A7408D
:100FF0006344D000BE857DB3637475012300C500D2
:101000000505EDB783AC0500138D450063930C0017
:10101000D28C66853EC63AC442C2053BB247AA8618
:10102000124822476355F00063D3A700BE861378A9
:101030000801631F0800BA871306000239A0637411
:1010400074012300C4000504BA877D17E3C9F6FEC6
:10105000814763C1D702B68763D306008147330552
:10106000F4002A9713060002B307A74063C0F602F4
:10107000EA850DBB3306F40063787601B385FC0086
:10108000838505002300B6008507E1B76374750109
:101090002300C5000505C9BF637474012300C400A3
:1010A0001305140001B313680804C146F1B5FD141B
:1010B000D5B9A146D1B542064186C5B5A38F0BFE71
:1010C000F5B903A5C1818280EFF22FC203A9C181C6
:1010D000EFF0AFDA11CD1384C181AA84084019C1A1
:1010E000EFF06FEA930530042685EFF0EFE004C0DF
:1010F0004A856FF0CFC18280397126CA2ED232D490
:1011000036D62A8654109305F0071385C1B43EDA0B
:1011100036C606CE22CC3AD842DC46DE8131AA86DB
:1011200003A5C18109E91385C1B4F137F2406244D6
:10113000D2442161828026868354A5011384C18113
:1011400093E70404231DF5009307F00763F4D70029
:101150009306F0071386C1B48145EFF06FE81C4099
:10116000239D9700E1B7EFF24FB8378500001305D4
:1011700005B55937378500001305C5B5B53F378725
:10118000000037850000130707B88D4605468D45DA
:101190001305C5B89537378500001305C5BAA93FB3
:1011A0006FF0EFB631C9A1661377F50F9386C6A32A
:1011B00011C7BA9603C5060005058280C1679387EB
:1011C00007F0E98F89CB21851377F50F3697034513
:1011D000070025058280B707FF00E98F89CB41858D
:1011E0009377F50FB69703C50700450582806181A7
:1011F0003695034505006505828003A741825C4161
:10120000BA976306F50283D6270095E283A601828A
:10121000638FF6009386818290426313F60088C242
:10122000D44354C1DC43B306E540BA9794C7104594
:10123000B307C7006300F50283D6270081EE9386CB
:1012400081828C426393A5009CC25441D4C35C410B
:101250003E9710C78280EFF24FA983A5018337859F
:101260000000130545BF493D83A5C18337850000B4
:10127000130585C0513583A5C1823785000013054C
:10128000C5C19D3D6FF0AFA8EFF22FA613F7C5FFC4
:10129000E1462E8663F1E60693073500F19B93063F
:1012A00087FE63EAF6041D8F130687FE23A8C1821A
:1012B0008966511713844182938606EAD8C394C382
:1012C00023A407001CC0BA9723A0F182C9669386A5
:1012D00006EAB785000094C3D8C398C7814605467F
:1012E000938545CB1385C1BCEFF0CFE3184023A411
:1012F000E1826FF0CFA1AA85378500001305C5CB29
:10130000E53BC5BFEFF26F9E39C503A70183130408
:1013100035007198138901838144636A870EB14750
:101320006373F4003144FD551385C1BCEFF04FE207
:1013300083A7818283A5418283280900268533867D
:10134000B740B3868840138881826368D6001385CE
:10135000C1BCEFF04FE881445DA8B384C50003D75A
:10136000240003AE440061EB3307CE40930F47FFE8
:1013700063E38F0C138FC183938EC18213038401A7
:1013800083260F0083A30E001389C1839382C18239
:1013900063E26F081307C4003297896E3383E50058
:1013A000938E0EEA2322C3012324C3002320D301FA
:1013B0000546D8C02391C40003264300B108630446
:1013C00016012E9618C61387C60022972320E9001F
:1013D00063F4E30023A0E2000967130707EA239000
:1013E000E400639B970083A60182014703D6270090
:1013F0000DEE19C32320F8001385C1BCEFF0AFDD5B
:1014000083A78183B10481C7A2852685829726851B
:101410006FF0EF8F054636972391C4002320EF002D
:10142000E3FCE3FA23A0EE0045BFE384D7FCDC43F2
:101430000547AE9765BF728609BFEFF20F8B330683
:10144000B5024111328532C6753D2A8409C532463E
:101450008145EFF0EFFC228541016FF04F8B45C5D0
:10146000EFF20F8783A741832A8491C3829783A7D2
:101470004182138941826366F40883A70182637203
:10148000F408FD551385C1BCEFF08FCC835764FF82
:10149000930944FF81CB035744FF8967938707EA89
:1014A0006301F70237850000130585C6B131835605
:1014B00044FF035664FF37850000CE85130545C8F9
:1014C00025398967938707EA231AF4FE9387818277
:1014D0009843231B04FE63F4E90023A0370113871C
:1014E000C1831C43832684FF4E85958F8326090084
:1014F000B386D940B6971CC309331385C1BCEFF03E
:101500008FCD6FF02F808280B70700209386070071
:1015100001479387070021468C426396A500131567
:1015200047003E9582800507C106E317C7FE0145C7
:101530008280EFE2FFF92A842E85AE89328AE9376C
:101540002A89812C83244900930749006390F4047D
:10155000B12C93E909F8230434012146D285228570
:10156000EFF02FF983A7018499C322858297EF00BA
:10157000E06B032749009307C4005CC358C42322CF
:10158000F90004C8EF00406B6FE0DFF784407DBFD7
:10159000EFE2BFF583A741842A8491C38297230495
:1015A0000400EF00A068544418489307C400D8C250
:1015B00014C31CC85CC4EF0020686FE05FF5EFE265
:1015C0003FF12E89AA898937AA844845253B2A8478
:1015D0001DCDD0448145EFF0AFE421462304340112
:1015E000A3040400CA852285EFF0AFF083A701842D
:1015F00099C322858297EF006063D8409307C400A7
:1016000091045CC358C49CC004C8EF00E06222850A
:101610006FE05FEFEFE27FED83A741842A8491C3FF
:10162000829723040400EF00606054441848930735
:10163000C400D8C214C31CC85CC4EF00E05F22859C
:10164000393D6FE0DFEC030585007D8182802390CA
:1016500001869387C1BE13870708DCC39CC3A1071B
:10166000E39DE7FE3D47238AE18423AC018423A662
:10167000018693874186DCC39CC38280EFE2FFE64C
:1016800003A5C186EFF01FB27D15931735001385B2
:10169000C1BE3E9508411307C5FE210523ACE18478
:1016A000EFE01FB66FE0BFE6EFE23FE44123839730
:1016B00001862A89B1E703A5C186EFF0BFAE7D158B
:1016C000131735009387C1BEBA97844393878185EA
:1016D00080439385C4FE6305B4028CC383A7C18590
:1016E000238AA18499C32285829783C741811305E8
:1016F000C4019385840093F7F70F99E7EFE01FB2D9
:101700004A851D2B6FE0BFE01D2BDDBFEFE2FFDD43
:101710002A84292B8347440393064401C19B93E702
:101720001700230AF4028347540313973700938763
:10173000C1BEBA97D84314C318CCD4C35CC893872E
:10174000C1869443185C558F98C3FD216FE03FDC40
:10175000EFE2BFD92A84D929184C54489307440191
:10176000D8C214C35CC81CCC8347540313973700FA
:101770009387C1BEBA979843631AF7001387C1864F
:101780001C5C144393C7F7FFF58F1CC375216FE0F2
:101790001FD8EFE29FD559299387018603D7070009
:1017A00005072390E70049296FE07FD6EFE2FFD3DA
:1017B000B5291387018683570700FD17C207C18724
:1017C0002310F700634BF00023100700B52183A717
:1017D000818591C3D13D6FE09FD3B929EDBFEFE281
:1017E000DFD003A481859921AA842285953791476A
:1017F000230AF4021305C4046D2C2285A9358547FC
:10180000631BF5003C5C81EB2285593326852D2135
:10181000613D6FE0DFCF83A641861307440123A219
:10182000E186D8C29387418654C81CCCC5B7EFE285
:10183000DFCB2A845105411108CC48C80CD050D0C8
:1018400014D43A8658D49305300236853EC642C435
:10185000EFF00FBD585410544C5008507117B71684
:1018600000003A969386E67D852EB24722483726B9
:10187000000048CC230BF402A30AF402232C040238
:101880008147232204052324040523280402230A74
:101890000402232C0406232E04060147A286130605
:1018A000C68BA2851305C404F92283A7018799C3B7
:1018B00022858297014541016FE07FC5EFE2FFC2BB
:1018C0005049144D795718D954C21307450190C295
:1018D00018CD58C9253DC93B6FE07FC3EFE2FFC07B
:1018E0004111B2842E8685452A84368946C03AC67F
:1018F0003EC442C2EFF0FFC3024892472247B246BD
:101900004A86A6852285253741016FE05FC003A581
:1019100081858280EFE2DFBB41112E89AA850545D2
:1019200032C6B684BA893E8AEFF07FC92A8411C9CB
:101930002685EFF03F9D324609E92285EFF09FCDE5
:101940000144228541016FE0FFBBAA865288CE8701
:101950002687CA852285E13DEDB7834745030547C4
:10196000BD8B639EE702EFE25FB82A84C124834700
:101970004403AA842285C19B93E72700230AF4022B
:10198000C13B1305C404C92A26857D2483A781870A
:10199000014581C72285829701456FE05FB77D557C
:1019A0008280EFE29FB441112AC6492403A48185B5
:1019B0002A8922855D379304C404700081452685F9
:1019C000F922268531224A85852CEFF0FFCD185863
:1019D000F9576314F70023280402014541016FE021
:1019E0001FB3EFE29FB0753F6FE07FB283474503BF
:1019F0000947BD8B6390E704EFE23FAF2A843D24A3
:101A00005448184C93074401AA84D8C214C31CCC70
:101A10005CC81305C40489222685392C2285EFF081
:101A2000FFCE83A74187014581C722858297014563
:101A30006FE0FFAD7D558280EFE23FAB83466503EB
:101A400005473317D70018DD0947A30AD502230A33
:101A5000E502693F83A7818599C3EFF0FFC4014583
:101A60006FE0FFAA5449184D93074501D8C214C32B
:101A70001CCD5CC98280EFE25FA74111B2842E8643
:101A8000A9452A8436C63AC43EC2EFF09FAA9247BF
:101A9000B2462247F99BA304F4009307440144CCC7
:101AA00014D02324040258D01CCC5CC841016FE040
:101AB0001FA6EFE29FA32A84952AAA8422855D3778
:101AC00026859D2A2285EFF0BFAC01456FE03FA43B
:101AD000EFE2BFA12A84992AAA842285613783472D
:101AE00094002685F99BA304F400B92283A7C1843E
:101AF00099C322858297EFE0DFAC5C503E9508D415
:101B00003522138701880328470037060080938712
:101B100001881346E6FF98436317F8029386C1874E
:101B20009042050690C29306440154C358C894C31A
:101B30001CCC8347940093E71700A304F400ED281E
:101B400001456FE0DF9C544B0C546385B6008D8ECD
:101B5000E376D6FCBA87C1B783479500858B95C7D6
:101B6000EFE2BF9883A781842A8491C382977D285E
:101B7000AA842285C53D2685C1208347940001455E
:101B8000F99BA304F4006FE09F987D558280854700
:101B90006382F50263C5B7008DC101458280894724
:101BA0006380F5028D47E39AF5FE8347950093E73E
:101BB000270011A85C511CC2CDB71C425CD1F1BFFB
:101BC00083479500F59BA304F500C1BF9387018867
:101BD000DCC39CC3828082801106719A2A8837C731
:101BE000ADDE130506F0AA871307F7EE631EF600B5
:101BF000A167938707882322D6F02324B6F22320F7
:101C000006F12324F6F0828098C39107C5B737F711
:101C100000E01C43B7060080D58F1CC3828037F7D5
:101C200000E01C43860785831CC382802165130561
:101C30000580731505308280731005308280EFE2D5
:101C4000DF8A1387018918439387018919E323A445
:101C5000A18823A6B188054798C3553F6FE03F8B05
:101C60002A87814718436314A7003E858280850731
:101C7000D5BFB707EFBE37E700E0938707083CC73B
:101C800001458280EFE27F8637850000130585CF0E
:101C9000EFF08FC601456FE09F87EFE21F852A8432
:101CA000FD54378900007D14631494006FE03F8673
:101CB00013050946EFF04FC4FDB7EFE27F81004105
:101CC000AA8437890000B7890000631494006FE08C
:101CD0007F839305C4FE13054946EFF0EFC11C4016
:101CE0006386970013858946EFF00FC10040F1BF6E
:101CF000EFE2AFFF2E89EFF04F852A84EFF07FA946
:101D000083240900639C2401EFF05FAAA14763C309
:101D1000870011E0214422856FE06FFF138544FFA7
:101D2000EFF0AF826353A4002A848440E1BFEFE266
:101D30004FF90545EFF04FFDB78900001309450045
:101D40002A84CA851385C9FA6537AA85AA84378586
:101D500000001386C9FA130545FBEFF0EFB926859D
:101D60002D3F37850000130585FFEFF0EFB84040A9
:101D7000B7890000054A894A378B0000B78B0000FD
:101D8000378C0000B78C0000378D00006315890088
:101D900001456FE08FF6034794021385890393068C
:101DA00044FF2146A685EFF02FB5834784021385B3
:101DB0004C04BD8B638E470113050C05638A5701E4
:101DC0001385CB0591C711476396E70013058B0672
:101DD000EFF08FB24C4C93073002AE8603C706007B
:101DE0006306F7021050930740060848B295B38681
:101DF000D540B386F602585C5C50898D13054D07BB
:101E0000B3D6C602EFF04FAF004049B78506F9B729
:101E1000EFE20FEC41110945EFF00FEF9309450098
:101E2000378900002A84CE851305C9F4EFF05FECF2
:101E3000AA85AA84378500001306C9F4130585F521
:101E4000EFF08FAB2685EFF05FE5378500001305D7
:101E500045F7EFF06FAA4040378A0000B78A0000CC
:101E6000378B000063968900014541016FE08FE9DF
:101E7000035704011C44930644FF1309840036C62B
:101E80003AC44A856306F902EFF09FDD2247B24665
:101E9000AA872146A6851385CAF8EFF0EFA54A85E3
:101EA000EFF0BFE113058BD7EFF00FA500405DBF4A
:101EB000EFF01FDB2247B246AA872146A68513050D
:101EC000CAF9EFF06FA3DDB7EFE28FE041111145E2
:101ED000EFF08FE393094500378900002A84CE850F
:101EE000130509D9EFF0DFE0AA85AA843785000041
:101EF000130609D9130585D9EFF00FA02685EFF059
:101F0000DFD9378500001305C5DBEFF0EF9E4040B9
:101F1000378A0000B78A0000378B0000639689007B
:101F2000014541016FE00FDE1C4413098400930654
:101F300044FF18486309F9024A8536C63AC4EFF0EF
:101F40003FD22247B246AA872146A6851385CADD1D
:101F5000EFF08F9A4A85EFF05FD613058BD7EFF03D
:101F6000AF99004065BF2146A68513054ADFEFF013
:101F7000AF98C5BFEFE2CFD541110D45EFF0CFD8F7
:101F8000B7890000130945002A84CA85138589EEA4
:101F9000EFF01FD6AA85AA8437850000138689EE44
:101FA000130505EFEFF04F952685EFF01FCF37852E
:101FB0000000130545F1EFF02F944040B789000071
:101FC00063168900014541016FE0CFD3930644FFBA
:101FD0001305840036C6EFF0BFC8034834015C48DF
:101FE000B246AA8821472146A685138549F3EFF01A
:101FF000AF900040F1B7EFE2AFCD41111545EFF0E2
:10200000AFD093094500378900002A84CE85130597
:1020100089E0EFF0FFCDAA85AA843785000013067A
:1020200089E0130505E1EFF02F8D2685EFF0FFC65F
:1020300037850000130545E3EFF00F8C4040378AE9
:102040000000B78A0000378B0000639689000145C5
:1020500041016FE02FCB03576401835744011044C3
:10206000930644FF1309840036C63AC43EC24A852B
:102070006307C902EFF0DFBE92472247B2462A88C3
:102080002146A68513850AE5EFF00F874A85EFF014
:10209000DFC213058BD7EFF02F8600407DB7EFF03E
:1020A0003FBC92472247B2462A882146A68513059F
:1020B0008AE6EFF06F84D5B7EFE28FC14111194581
:1020C000EFF08FC493094500378900002A84CE853C
:1020D000130509E8EFF0DFC1AA85AA84378500005F
:1020E000130609E81305C5E8EFF00F812685EFF028
:1020F000DFBA37850000130585EAEFE0FFFF4040B7
:10210000378A0000B78A0000378B00006396890089
:10211000014541016FE00FBF035784011C44930642
:1021200044FF1309840036C63AC44A856306F9029F
:10213000EFF01FB32247B246AA872146A685138532
:102140000AECEFE07FFB4A85EFF03FB713058BD732
:10215000EFE09FFA00405DBFEFF09FB02247B2462C
:10216000AA872146A68513054AEDEFE0FFF8DDB703
:10217000EFE20FB65D712545EFF00FB9A1651306CB
:1021800000052A84130945009385459A0A85EF5076
:10219000006FB7890000CA85138589D2EFF05FB55B
:1021A000AA85AA8437850000138689D2130505D332
:1021B000EFE09FF42685EFF05FAE37850000130552
:1021C00085D5EFE07FF34040D149378A00006316A0
:1021D0008900014561616FE0EFB21C44930644FF42
:1021E00063E1F90298088A07BA9703A707FB8347B8
:1021F00004012146A6851305CAD7EFE0FFEF004092
:10220000F9B74647EDB7EFE2AFAC2945EFF0CFAFF6
:10221000B7890000130945002A84CA851385C909B6
:10222000EFF01FADAA85AA84378500001386C9097F
:102230001305450AEFE05FEC2685EFF01FA6378512
:1022400000001305C50CEFE03FEB4040B7890000EC
:10225000378A0000B78A0000631E8900EFE06FB67E
:10226000AA853785000013054512EFE0FFE8014518
:102270006FE04FA95C4C184C1385090F930644FF7F
:102280002146A685EFE05FE78347D4FF13858A10D8
:10229000858B99E313054A11EFE01FE600406DBFFF
:1022A000EFE20FA337850000130505D0EFE0DFE470
:1022B00003A48189B7890000378A000083A7C189F8
:1022C0006365F40001456FE0EFA304400946938580
:1022D00049D12685EF50406A19C55040A68513059F
:1022E0008AD1EFE07FE13104D1BFEFE26F9E378505
:1022F00000001305455CEFE03FE003A48189B78946
:102300000000378A000083A7C189636BF40037851A
:102310000000130585D7EFE03FDE01456FE08F9E9B
:10232000044019469385095E2685EF50E06401E973
:1023300050409385640013058A5EEFE0FFDB3104B3
:10234000D9B705458280EFE2AF9879712A84AA95C2
:1023500093060002254783070400B3848540638504
:10236000D70A6383E70A0145638B04100149130709
:102370000002A546B307240183870700638AE708A4
:102380006388D7086314990883A9818983AAC189BE
:10239000378B000063F0590903AA09001946930519
:1023A0000B5E5285EF50405D59E54A86A2851305C4
:1023B0006A00EF50605C41E14A9A83076A00A5EF2A
:1023C00083A98900638809041306800281452800D7
:1023D000EFE0AF9413098100CA86A2870145014747
:1023E00013080002A548294313062002130EC00556
:1023F000838507006384050163961505631F9702B3
:10240000A9476303F50469A80504B1B705099DB799
:10241000E31C09F6A287038707001377F7FD79E726
:10242000378500001305C55A23800700A285EFE019
:10243000BFCC7D55A9A0B109B1BF23800700050716
:1024400085077DB76310650437850000130585583F
:10245000EFE09FCA0018B7840000832509001385A8
:10246000845A1109EFE05FC9E31989FE378500003E
:10247000130585D7EFE05FC829452C008299456197
:102480006FE04F88637E970005056392C50485075A
:1024900005079CC2838507006381C50263649700BA
:1024A00069FD8DBF838E17006396C5016394CE00CE
:1024B0008507050785070507F1BFE37397FE2380AE
:1024C0000700050785079106E36497F2D1BF9CC218
:1024D000838507006389050163871501E30297FC83
:1024E00085070507F5B7E36097FE5DBF850725B74C
:1024F000EFD23FFD8307050099E781450145EFF0E5
:10250000DFDE6FD09FFF03AA8189AA898144014938
:10251000378B0000B78B000083A7C1896369FA007D
:10252000EDD04A86A6854E85EFE0AFFCD9BF0324E7
:102530000A00194693050B5E2285EF50E04321E126
:102540004E85EF50404219042A86A2854E85EF50F1
:10255000A04215E5631709002285EF50C0402A8983
:10256000A284A68722870386070001EE858F63D3A6
:1025700027013E89A28513850B5FEFE0FFB7310A83
:1025800061BF83060700FDD2E312D6FE850705076B
:10259000D9BFEFD29FF5EFF08FF901456FD03FF72C
:1025A000EFD2BFF4EFE03FCB01456FD05FF6EFD243
:1025B000DFF303A54189EFE00FC201456FD03FF57E
:1025C000EFD2BFF2B79700009387074F23ACF18893
:1025D000B79700009387076423AEF188B797000090
:1025E0009387076423A0F18AB79700009387076455
:1025F00093050021054523A2F18A13844189EFE068
:10260000DFE308C019E9378500001305456AEFE0EC
:10261000BFAE7D5422856FD09FEFB7250000378570
:102620000000A9472D479306004001469385057495
:102630001305C56BEFF00FAEAA840840B785000004
:10264000814601469385456CEFE0CFAD0144F9D05A
:102650002685EFF06FBE7DBFEFD23FE9EFF07FCE72
:102660000DC5B7850000938505671385C1C6EF507A
:10267000602EB7850000938505681385C1C6EF50AD
:10268000602B1385C1C66FD09FE8B7850000938586
:102690008567E1BFEFD27FE52A8437850000130507
:1026A000056EEFE07FA5EFF03FFBAA8537850000C0
:1026B0001306A41B1305856EEFE01FA401456FD020
:1026C0001FE5EFD29FE241112AC6EFD01FFBB245B2
:1026D00011E93785000013054568EFE0FFA14101CE
:1026E0006FD0FFE283A74189AA841384418983A71D
:1026F000C720E386A7FE93053014EFD0FFFF65F1F6
:102700001C4003A5C72009C9EFE0EF871C408145A5
:1027100003A5C720EFE0AF8E0040130600058145FA
:102720001305A41BEFD07FDFB7250000231504207D
:10273000232694209385E55A2685EFE04F8C45B7F4
:10274000EFD2BFD783A7418941119384418903C741
:102750004702136717002382E70283A7C72091E788
:10276000EFE03F9619C1EFF0DFF5EFF0FFEEEFE09D
:10277000BF98378B0000B78B0000B7890000378AFD
:102780000000B78A0000378C0000B78C00009C4026
:1027900085461306F10003A5C720FD55EFE06F82C3
:1027A0008547631AF5000309F100ED47804063197E
:1027B000F90008D0E9BF8840FD55EFE06F99C1BF2F
:1027C0001C506392A7029307B0056315F90089476F
:1027D0001CD075BF23200402E30B09FAA547631B35
:1027E000F9120149CDA00947E398E7FE232004022E
:1027F000930710046314F90483556402C9D9FD15C5
:10280000C205C1812313B4029307A41B130700055B
:10281000B385E502130600053E859385A502A295C2
:10282000EF50E005EF5020141375F50F2305A42099
:10283000A305A4202285EFF0FFE591BF93072004B4
:102840006316F90283568402835764021387F6FFE6
:1028500063DAE70085072313F4029307A41B83556B
:1028600064026DB78DD62313E402C5BF93074004FD
:102870006310F9028347B42099DB1385C96CEFE03C
:10288000BF8798408347B720FD17A305F72001B7FE
:1028900093073004E312F9F48347B4200347A420DC
:1028A000E3F7E7EE3E948305A41B13850A6DEFE082
:1028B000BF8498408347B7208507C1BF1385C96C83
:1028C000EFE09F83050980408347B420E348F9FE89
:1028D00013058AD7EFE05F82EFF0BFA685471304A8
:1028E000A41B6315F5002285EFF09FC0EFF0DFD643
:1028F0002286AA8513858C6EEFE01F808040130529
:10290000A41BEF5040061375F50F2305A420A30563
:10291000A420B5BD9307F0076305F900A14763152F
:10292000F9088347B420E38407E60346A420FD1793
:1029300093F7F70F7D161376F60F2305C420A30532
:10294000F42063F8C7049385B71B1385A71B1D8E5E
:10295000A2952295EFE04FB59C4013854B6D03C7C0
:10296000A7203E97230D071A83C5B7209385A51B83
:10297000BE95EFE06FF89C4003C4B7209C4083C72E
:10298000A720E3C687E01385C96CEFE0EFF60504E6
:10299000F5B71305CB6DEFE02FF69C4003C7A720DA
:1029A000BA97238D071AE5B335478347A4206305FB
:1029B000E90029476313E910A1CF03598402914725
:1029C000130DA41B63FE2709930DA416130600051F
:1029D000EA856E85EF40506805CD1309A4024A854B
:1029E0001309090513060005CA85EF405069E398ED
:1029F0002DFF1306000581456E85EFD01FB20346FB
:102A0000A420EA856E85EF40906795472314F40271
:102A1000835784022313F402EFF0BF9285476312B9
:102A2000F5029C4083C74702858B89C713058AD767
:102A3000EFE08FEC88408345A5201305A51BEFF040
:102A40009F90EFF07FC1EFE02FEB80401306000571
:102A500081451305A41BEFD05FAC2315042005BBF3
:102A6000630109021305F9FF930700053305F50219
:102A700013060005EA851305A5022295EF40D05DF7
:102A800041D9930D00053305B903130600058145AF
:102A90001305A5022295EFD05FA8035584020346D3
:102AA000A420EA853305B5031305A5022295EF405E
:102AB000105D83578402850791BF1307F004637488
:102AC000F700230504200346B4208347A420637045
:102AD000F6089305A61B1305B61BA2953386C740BF
:102AE0002295EFE06F9C8C4083C7B5203387F500BB
:102AF000230D271B03C74502058B01CB9387A71B1B
:102B0000BE9513054C46EFE02FDF9C4003C4B72071
:102B10009C4083C7A7206346F40298408347A720C0
:102B20008346B7208507850693F7F70FA305D720BF
:102B30002305F7209306F004E3FBF6C423150720D2
:102B4000B9B11385C96CEFE02FDB0504D1B7A297AB
:102B5000238D271B83474402858BE1D3CA851385C8
:102B60000A6DEFE06FD955BF7C4123280504232A65
:102B700005049C4381CBEFD25F9793058504829730
:102B80006FD0FF9801458280EFD29F9436898DCE19
:102B9000AA843284B309D600294A83470400639C7F
:102BA000470183D7A40193F7070491C7FC40B545BB
:102BB00026859C478297FC408305040026859C4718
:102BC00005048297E31B34FD4A856FD0BF93EFD293
:102BD000DF9193F705102A8499C703578501615542
:102BE0001377071049C713F7054019C70357840126
:102BF00061551377074025CF13F7050493040004AC
:102C000009E78354A40193F40404384893F5F50FBD
:102C1000231DB40039EFB1C76844298142054181C1
:102C20003105EFE02FEE70442A89310529824206F2
:102C3000418281452320A900EFD09FFE2322090075
:102C40008357A401232409002328240593E70710B0
:102C5000231DF4007C4013060010C145DC4322858F
:102C600082978357A4010145DD8C231D94006FD00A
:102C70001F8AE5DB93E50510231DB400DDB7094885
:102C8000AA8763830503EFD25F860D486386050339
:102C90000547639EE504035785011377F7FD231C61
:102CA000E50001456FD0BF86035785011367070212
:102CB000231CE50001458280328765D65042744569
:102CC0008345C5012982A9824206C2064182C1828A
:102CD0006304D6001D45F9F51443B4C75443F4C743
:102CE000E9D1F443BA853E85944282965DBF7C412A
:102CF000DC43829745BFEFD2AFFD3684A9CE835720
:102D0000A501AA89328993F70710B6849DE37D5AFD
:102D1000A94A83A749044E85DC4782976309450188
:102D20002300A900FD14050963035501FDF0058C7E
:102D30001DA02449368A854AEFE05FEF83D76400FF
:102D400003D744002A869444631AF70081EAEFE02F
:102D5000BFEE3304444122856FD0CFFA98403E97AE
:102D6000034B070003A7C9048507C2072983C18352
:102D700042072393F400418363E4E70023930400B4
:102D80006394560123A404003285EFE0FFEA7D1A24
:102D9000230069010509E3110AFA65BF0347C5016C
:102DA000854763EFE7028357A50193F707108DCBA3
:102DB000EFD2AFF32A842849EFE06FEA8357A401EA
:102DC000232804041306001093F7F7EF231DF400E3
:102DD0007C40C5452285DC43829701456FD02FF3A7
:102DE00001458280EFD26FF037370000130787B6B6
:102DF00018D5373700001307E7BC58D53737000020
:102E00001307C7D918D937370000130767CF58D928
:102E100037370000130787B818DD3737000013076E
:102E2000E7C7420658DD34C14182232A050023202A
:102E3000050223220502EFD0FF886FD04FED93F5F6
:102E4000F50F85476399F50AEFD28FE820494111C4
:102E5000AA847D598549FC402685DC4782972A8AC9
:102E6000630D2505EFE09FDC035744001C40BA9733
:102E70002380470183574400F8448507C20729830C
:102E8000C18342072312F400418363E4E700231265
:102E900004008356640083574400639DD700850770
:102EA000C207C1832313F4002324340163E4E70041
:102EB00023130400EFE05FD879BF9C5095C3EFE087
:102EC000FFD60357440083556400636EB700B30513
:102ED000B7402EC6EFE05FD69C50B245268582975C
:102EE00041016FD02FE2FC44998DA983C207C183B1
:102EF000B385B740F9BF828011CEEFD20FDF7841A2
:102F0000B28783D507001843035626000297014570
:102F10006FD0EFDF7D558280EFD22FDD138701CF99
:102F200078432E86AA851843138501CF02976FD068
:102F30000FDEEFD28FDB138701CF78432E86AA8571
:102F40005843138501CF02976FD06FDCEFD2EFD9D2
:102F5000138701CF7843AA85138501CF18470297BD
:102F60006FD0EFDA15C611476394E602EFD2EFD7C0
:102F70007C418355060041119C4736C632C4829776
:102F80002246B2462311A600368541016FD02FD8C4
:102F90008146368582800DC6B28711466392C6028D
:102FA000EFD2AFD4784103D6270083D5070058432A
:102FB000411136C60297B246410136856FD02FD5F2
:102FC000814636858280EFD24FD2938701CF494721
:102FD000D8CB37370000130747F6D8DB3737000068
:102FE000130767F998DF37370000130787EFECC343
:102FF000B0C3AA850D46138501CF23A0070223A2E3
:10300000070223A4070223A6070223A80702D8DF8A
:10301000EFD04FEB01456FD08FCF37050020130560
:103020008568828037150020130585688280EFD27D
:10303000CFCBB707002003A707159307803EC156E3
:103040003357F702B7E700E02386D7402387D740FE
:10305000856623A0D710916623A0D710B7F700E0AC
:1030600023A0070023A20700014690C78146D4C7CA
:1030700081461306F7FF90CBD4CB3D4798C3EFD0E2
:10308000AFD5EFF09FF92A84EFF0DFF9AA8522850A
:10309000EFE08F9F3785000013050576EFE0CF82C4
:1030A0006FD0EFC681478546130700023396F600BE
:1030B0006306A6008507E39BE7FEFD573E858280F9
:1030C000EFD2AFC2854513050002EF1090006FD01C
:1030D0000FC4EFD28FC185452145EF10807F6FD09F
:1030E0000FC3EFD28FC085451145EF10807E6FD0A2
:1030F0000FC2EFD28FBF85454145EF10807D6FD065
:103100000FC1EFD28FBE854513050004EF10607C20
:103110006FD0EFBFEFD26FBDA165379500000146BC
:1031200093858576130505E5EFF0FFE96FD02FBE97
:103130009307400663ECA700931745002565130528
:1031400005803E951841FD576313F70001458280C5
:10315000EFD2AFB9411113F5F50F32C6EFF05FFDB5
:1031600019C58355C50032460845EF10E0544101AA
:103170006FD0EFB9EFD26FB713F5F50FEFF05FFB3C
:10318000AA87014591C783D5C7008847EF10205211
:103190006FD0EFB7EFD26FB5011113F5F50F328491
:1031A000EFF01FF90DC55C412AC6829732455C4598
:1031B000231AF100C1473ECE8D473ECC09C41547C6
:1031C000631AE40002CE08454C08EF102042056166
:1031D0006FD0EFB305476315E40091473ECEE5B7E6
:1031E0006315F40093078002D5BF89476315F40087
:1031F00093078004E5B791476314F400D147F9BF02
:1032000099476314F400F147D1BF9D47E31DF4FAD9
:10321000E147E9B7EFD2CFAB13F5F50FAE84B28932
:10322000368A3A89EFF0DFF0994739CD4845EFF01B
:103230007FE73D472A8499476368A704EFE01F9F13
:10324000B146B306D402B7070020138707082A86C1
:1032500093870708369783160700639096024C43BE
:10326000639D45018355270063993501184763160F
:103270002701EFE07F9C814701A87D576389E60025
:103280003285EFE07F9B9D473E856FD0AFA73145EC
:103290003305A4023E9523109500232245012311F6
:1032A0003501232425013285E9B7EFD20FA413F5A8
:1032B000F50FEFF0FFE719471DC94845EFF09FDE16
:1032C000BD472A84194763E4A702EFE03F96B14760
:1032D0003304F402B7070020938707087D57A297AD
:1032E000839607006398E600EFE01F9501473A8553
:1032F0006FD0EFA141677D1798C323A2070023A4D5
:103300000700DDB7EFD2CF9C011113F5F50F328A1C
:10331000EFF01FE2994721C185442A8463169A1071
:103320004845EFF03FD83D47AA8499476365A70217
:10333000EFE0DF8FB14AB387540337090020130948
:103340000908AA893E9903170900FD576319F70078
:10335000EFE09F8E99473E8505616FD0AF9A5C4044
:10336000829785450545EF10C0565C440D473AC429
:103370002312F1003EC88357290002CA52CE638C43
:103380004709C1C70947638DE70808444C00EF109F
:10339000E0251844B7170140938607C0054563022E
:1033A000D7020945630FF700938707400D45630A6D
:1033B000F700B72701409387078001456313F700A3
:1033C000114593F5F40FEF10C02F0808EF10601BA4
:1033D000A167938707788E04BE94D04037E700E05A
:1033E00093060005B307C7002380D74093575600C4
:1033F0009387070485468A07B396C600BA9794C395
:103400004E85EFE07F838147B9B7930780023EC6C0
:10341000A1473ECC9DBF930780043EC656CCB5B7AE
:1034200091473EC6C147F5B79947E3160AF24845AA
:10343000EFF05FC73D479947E36FA7F0931735005B
:103440002165130505783E9558419357570093879A
:103450000706B394E4008A0737E700E0BA9784C30D
:103460005DB701458280EFD24F889C412041A14643
:1034700041111CC0B1472315F400DC4123160400A0
:1034800013F7F7006302D702A546631FD70005674D
:103490002312E40013D747000D8B01C7854663084C
:1034A000D7002313040039A023120400E5B70967ED
:1034B0002313E40099838D8B05476389E70081C757
:1034C0000947638CE7062314040029A093070060D2
:1034D0002314F4001848B747014093870780631A04
:1034E000F704116585451105EF10A03E93070020F4
:1034F000B71401402312F1000D49E1474C00138538
:1035000004803EC64AC4EF10600E930700402312A9
:10351000F1004C009147138504803EC64AC4EF1069
:10352000E00C0848A285EF10C04F08488545EF1011
:10353000C05C014541016FC09FFD9307004049BF3A
:10354000EFC21FF9B71400201384046E93075003D1
:103550005CC837190020B747014013068968938774
:10356000078074461CC8A567938747E57CC2B707E8
:1035700000C0F58FC166A106716713070720D58FBC
:103580001165411138C67CC68545B7070C00110589
:1035900018C01CC42322040023160400EF1060335B
:1035A000B7190140930700202312F1000D4AE147AB
:1035B0004C001385098052C43EC6EF1020039307C8
:1035C00000402312F1004C009147138509803EC64C
:1035D00052C4EF10A00108489385046EEF106044B8
:1035E00008488545EF106051B78500009386046E4A
:1035F000130630109385057613058968EFF08FFE6A
:10360000014541016FC01FF0EFC23FEE204193051D
:1036100000020848EF10805301C91C4803D5470039
:103620001375F50F6FC0BFEE7D55EDBFEFC2FFEB19
:1036300024412E84884893050004EF1020517DD941
:103640009C48420441802392870005456FC03FECAF
:10365000EFC2BFE9C1473841638BF502C5476395A7
:10366000F502544B054693D7560093870706331649
:10367000D6008A07B7E600E0B69790C30146084B2C
:1036800093055052EF10204901456FC05FE8544B3D
:10369000054693D75600938707043316D6008A074A
:1036A000B7E600E0B69790C30546D1BF1D71A2CE24
:1036B000A6CC82E686E48AE28EE012FE16FC1AFAB6
:1036C0001EF82AF62EF432F236F03AEE3EEC42EADA
:1036D00046E872E676E47AE27EE073110134B714CC
:1036E0000020EFD08FB393878468A0439305505296
:1036F0000848EF10604619C9854513858468EFF0C6
:103700000FF4084893055052EF104049EFD0EFB343
:10371000731101347644E6443660A6601661866112
:103720007272E2725273C2733275A2751276827629
:103730007267E2675268C268326EA26E126F826F61
:103740002561730020307300203001A0EFC27FD7C5
:103750003724002079719307849F22F626F456ECD3
:103760005AEA5EE862E607AB870007AC4700806371
:1037700087AA870187AB4701846BB797000003A92D
:1037800007F183A947F1B79700004AF207A987F02C
:103790004EF052EEAA84130B050C1304849F4A8A40
:1037A000CE8A5305842053748401EF10E041D3790D
:1037B000AB1053058420EF3070424A86CE862A8CA7
:1037C000AE8CEF20D01C635CA0004A86CE8662855A
:1037D000E685EF30E017EF30F04E5304A520538517
:1037E0009420D3F47401EF10203E53FAAA105385AD
:1037F0009420EF30B03E5286D6862A8CAE8CEF20D5
:103800001019635CA0005286D6866285E685EF308B
:103810002014EF30304BD304A520C3772A919104B4
:10382000D39717C0C3F72991C207539717C0420710
:103830004183D98F23AEF4FEE39564F7272E44012C
:103840002726340104E800E0A274327412798279E8
:10385000726AE26A526BC26B326C45616FC0FFC91B
:10386000371501401D7113050580054693050004B9
:10387000A2CE82E686E48AE28EE012FE16FC1AFAF6
:103880001EF82AF62EF432F236F03AEE3EEC42EA18
:1038900046E872E676E47AE27EE037040010EF0054
:1038A000B06113050420EF00504C2DC19387C18AED
:1038B00098433725002013058593050798C3EFF03B
:1038C000FFE813050420EF00104B371501400146B7
:1038D0009305000413050580EF00105E7644366002
:1038E000A660166186617272E2725273C27332759B
:1038F000A275127682767267E2675268C268326E8B
:10390000A26E126F826F2561730020301305044090
:10391000EF00B0455DD99387018B98433725002090
:1039200013058587050798C3EFF05FE21305044090
:1039300059BF371501405D71130505800546930594
:10394000000482E686E48AE28EE012FE16FC1AFA91
:103950001EF82AF62EF432F236F03AEE3EEC42EA47
:1039600046E872E676E47AE27EE0EF00F054938770
:10397000818A98430945050798C3EF00103F21C588
:103980000945EF00503F37150140014693050004FB
:1039900013050580EF0050523660A66016618661FF
:1039A0007272E2725273C2733275A27512768276A7
:1039B0007267E2675268C268326EA26E126F826FDF
:1039C0006161730020301145EF00303A4DDD114543
:1039D0004DBFEFC29FB141119307A0142314F10012
:1039E000280085473EC623150100EF005050ED47E3
:1039F00028002304F100EF00904F41016FC03FB158
:103A0000EFC2BFAE01118545114502C202C402C614
:103A100002C802CA02CC02CEEF00B06B8545370562
:103A20000020EF00F06C37140140930700032312CD
:103A3000F1004C008D47130504803EC402C6EF0020
:103A4000F03A930700042312F1004C00C14713051C
:103A500004803EC6EF009039B1470C0801453EC8CE
:103A600002CA02CC02CEEF00B0000C084145EF00C4
:103A7000300085450145EF00B00285454145EF0026
:103A8000300285450145EF00700485454145EF0052
:103A9000F00313061032930530120145EF00D005F4
:103AA00005616FC0DFA6EFC25FA479711306C00283
:103AB00081454800EFC07FA685450945EF00905F2E
:103AC0004800EF00701FB7770040938707423EC25F
:103AD000B7270020938787873EC4C1473EC6930718
:103AE00000063EC8930700083ECC930700203ECE58
:103AF000856793870780370402403ED09307000212
:103B00003ED24C008D67130504433ED402CA02D650
:103B1000EF0010171305044305468945EF00F01D1B
:103B20000546130504439145EF00301D85451305F7
:103B30000443EF00501B45616FC07F9DEFC2FF9AA9
:103B40007971130600028145080802C202C402C648
:103B5000EFC0BF9C85451145EF00B0578545214515
:103B6000EF00305785454145EF00B05685451305B8
:103B70000020EF001056854513050040EF007055FA
:103B80000D44930700034C00371501402312F10048
:103B900022C4B714014002C6EF005025B1474C00C3
:103BA000138504C02312F10022C402C6EF001024C2
:103BB000BD474C00138504802312F10022C402C6C5
:103BC000EF00D0228547372401403ECA2302F1028C
:103BD000B70700043ED40C08B707080013050440DB
:103BE0003ECE02C802CC02D03D2B130504408545D1
:103BF000A52513050440854605468545552385467C
:103C0000094613050440C145612B13050440854551
:103C1000BD2B8545130504409D2345616FC03F8F33
:103C2000EFC2BF8C79711306C00281454800EFC016
:103C3000DF8E85450545EF00F04737040240130548
:103C40008400C92DB72701409387C7443EC2B717E8
:103C500000209387876F3EC4930700063EC89307F2
:103C600000083ECC930700103ECE930700403ED0A4
:103C7000930700023ED24C008D67130584003ED4AA
:103C800002C602CA02D6EF00A07F45616FC03F881E
:103C9000EFC2BF8541118545096502C202C42316E2
:103CA0000100EF0010434800EF007052373401402C
:103CB0008567938777BB4C00130504403EC402C25E
:103CC000EF00F0441305044093050002EF00705329
:103CD000130504408545EF00105185450945EF0067
:103CE00030414800EF00B04E370400404C0013054F
:103CF0000440EF00D0411305044093050002EF009B
:103D00005050854513050440EF00F04D41016FC050
:103D10001F80EFC28FFD5375A5002A84EF30006C21
:103D2000B797000003A687EF83A6C7EFEF20E05CFC
:103D3000B797000003A607F083A647F0EF10904660
:103D4000EF30407848E06FC08FFCB707002083A5B4
:103D50000715379500001D71130505EA86CEA2CC24
:103D6000A6CACAC8CEC6DAC2DEC062DE6ADA6ED8B9
:103D700022F626F44AF24EF052EE56ECD2C466DC3D
:103D8000EFD08FB737950000130505EBEFD0CFB616
:103D9000379700008727C7E73724002037970000B0
:103DA0009307849F072707E837970000DCE3DCEBE5
:103DB000872747E898E7B79400009CEFEFF07FC1B2
:103DC000EFF01FC4EFF03FCEEFF05FD7EFF05FE50D
:103DD000EFF01FECB797000003A847E983A707E9B6
:103DE00037990000B79900003EC4B797000003ABB5
:103DF00087E983ABC7E9B797000007AA47E7B797FA
:103E0000000007A484E68729C9E607A909E7D304C7
:103E100000F087AA87E8014D014C814D42C6EFC0F2
:103E20004FFAB30685414D472A8A6372D704B727F4
:103E300000209387879F84EFD3F424015385942037
:103E4000EF30C0592246B2462A8CAE8CEF20803F1C
:103E50006354050007A909E762855A86DE86E68570
:103E6000EF20E032528C6354A00053094A213307FB
:103E7000AA419306300663F9E60253058420130530
:103E8000849FEFF01FE95374340153878AA009C758
:103E900037970000872987E787A784E6528D530765
:103EA000F4A019C38729C9E63307BA419306703EC7
:103EB00063F3E6029305803EB355BA0203A7818AF5
:103EC00083A6018B03A6C18A379500001305C5ECB4
:103ED000D28DEFD06FA21545EFD0BFB089B7B7171D
:103EE00002409843B706FFF841111367170098C3C3
:103EF000D84337060200758FD8C39843B706F7FE3C
:103F0000FD16758F98C39843B706FCFFFD16758F95
:103F100098C3D843B70681FFFD16758FD8C3984361
:103F2000B70600ECFD16758F98C33707FF0098C7DA
:103F300023A6070202C402C69843C166558F98C3E0
:103F4000B716024005679C42F18F3EC6A24785071F
:103F50003EC4B24781E7A247E397E7FEB7170240A6
:103F60009C431397E7006356070685473EC63247D2
:103F70008547631EF704B7170240D843B706C1FF51
:103F8000FD16D8C3D843D8C3D84313670740D8C356
:103F9000D843758FD8C3D843C166558FD8C39843CB
:103FA000B7060001558F98C3984393166700E3DD69
:103FB00006FED843B7160240719BD8C3D843136797
:103FC0002700D8C32147DC42B18BE39EE7FE4101C5
:103FD000828002C669BF01A001A001A001A001A0CA
:103FE00001A001A001A001A001A001A001A001A0C9
:103FF00001A001A001A001A001A001A001A001A0B9
:1040000001A001A001A001A001A001A001A001A0A8
:1040100001A001A001A001A001A001A001A001A098
:1040200001A001A001A001A001A001A001A001A088
:1040300001A001A001A001A001A001A001A001A078
:1040400001A001A001A001A001A001A001A001A068
:1040500001A001A001A001A001A001A001A001A058
:1040600001A001A001A001A001A001A001A001A048
:1040700001A001A001A001A001A001A001A001A038
:1040800001A001A001A001A001A001A001A001A028
:1040900001A001A07390123497D1FF1F9381818BEF
:1040A00017C10020130101F6175500001305455BE9
:1040B00097C5FF1F938505F51386818063FAC500B8
:1040C0008322050023A0550011059105E3EAC5FEF2
:1040D0001385818097E5FF1F938545946377B5002D
:1040E000232005001105E36DB5FEFD42739002BC6F
:1040F000FD4273904280B78200009382028073A0D9
:10410000023097C2FFFF938262F393E23200739012
:104110005230EFF0DFDC97C2FFFF9382A25573901D
:104120001234730020305C413707F1E01307F7EFDA
:10413000944D7D8F9C41D58FD44DD58FD441A2060F
:10414000D58FD98F5CC11C4537F7F1FF1307D77F97
:10415000D4457D8F9C49D58F94458606D58FD98FC0
:104160001CC55C55370710FF7D177D8F83C7450140
:10417000FD1793F7F70FD207D98F5CD582801C45C6
:1041800089C593E717001CC58280F99BEDBF1C45CC
:1041900089C593E707101CC5828093F7F7EFE5BF49
:1041A000A54763F7B7048D47138765FF3307F70209
:1041B0000328C5009D47B397E70093C7F7FFB3F700
:1041C0000701B396E600DD8E54C5994763E3C70443
:1041D00095477D163306F6025859FD47B397C70039
:1041E00093C7F7FFF98F3396C5005D8E50D9828053
:1041F0000D473387E502032805019D47B397E70084
:1042000093C7F7FFB3F70701B396E600DD8E14C935
:104210006DBFB14763E2C702954765163306F602E4
:104220001859FD47B397C70093C7F7FFF98F339627
:10423000C5005D8E10D9828095474D163306F60273
:104240005855FD47B397C70093C7F7FFF98FB3954C
:10425000C500DD8D4CD582801C4591C53707100007
:10426000D98F1CC582803707F0FF7D17F98FD5BF26
:10427000B7760040056783A7064079173317A70074
:104280001347F7FFD0417D8F9C41D18F9045D18F4F
:10429000D045D18FB397A700D98F23A0F640828055
:1042A00085473395A70089C93777004083270740A2
:1042B0005D8D2320A7408280B777004003A7074089
:1042C0001345F5FF798D23A0A7408280856733953C
:1042D000A70089C937770040832707405D8D2320D9
:1042E000A7408280B777004003A707401345F5FF3A
:1042F000798D23A0A7408280A147631BF500A2050A
:10430000B777004093870742D18D3E950CC18280DC
:10431000C205FDB71C4141677917F98F1CC12320E5
:1043200005002322050023240500B70702402326A9
:104330000500138787006317E500D8431367F7006C
:10434000D8C382801387C7016316E500D84313677B
:10435000070FFDB7138707036318E500D843856689
:10436000938606F0558FE9BF138747046315E50070
:10437000D843BD66C5BF138787056316E500D843DC
:10438000B7060F00C5B71387C7066316E500D84305
:10439000B706F000C1BF138707086316E500D843CE
:1043A000B706000FC1B7138787406319E50003A75D
:1043B00047401367F70023A2E74082801387C74175
:1043C0006317E50003A747401367070FEDB793870F
:1043D0000743631BF500B707024003A74740856604
:1043E000938606F0558FC1BFB70702401387474435
:1043F0006316E50003A74740BD66EDB71387874501
:104400006317E50003A74740B7060F00E1BF138716
:10441000C7466317E50003A74740B706F000D9B7C2
:10442000138707486317E50003A74740B706000F47
:1044300055BF138707496319E50003A7474D136765
:10444000F70023AAE74C82801387074A6317E50029
:1044500003A7474D1367070FEDB71387074B631982
:10446000E50003A7474D8566938606F0558FD1BFBB
:104470001387074CE319E5FC03A7474DBD66FDB75D
:104480001C4161773D0794517D8F9C45D58F9449A0
:10449000D58FD449D58F944DD58FD44DD58FD45148
:1044A000D58F9455D58FD98F1CC1DC455CC19C41FB
:1044B0001CC5DC415CC58280232005002322050049
:1044C000232405002326050023280500232A0500B0
:1044D000232C0500232E050023200502232205029C
:1044E0002324050282801C4189C593E717001CC163
:1044F000828041677917F98FDDBF1C4101C6DD8DD0
:104500000CC1828093C5F5FFFD8DDDBF931735008B
:1045100063DA0700B707024083A707407D8D333574
:10452000A00082809317250063D70700B7070240D9
:1045300083A7074DE5B7B70702409C43C5B793175C
:10454000350063D70700B707024023A2A740828047
:104550009317250063D70700B707024023AAA74C8B
:104560008280B7070240C8C38280EFB21FF8EFF025
:10457000FFF96FB0DFF9EFB25FF7EFF05FFC6FB0FC
:104580001FF95841032805004C45370601409307A1
:1045900006403E979346F8FFB1C583250640F58D4A
:1045A0002320B640D043F18ED4C31443B3E60601B2
:1045B00014C3184190479346F7FF758E90C7D047B4
:1045C000F18ED4C7144541466399C6009447D98EED
:1045D00094C7D447558FD8C78280B6979443558FD8
:1045E00098C382801C43F58F1CC382809C4513F7BF
:1045F000070113F8F70001C7D8413368E80083D5F5
:10460000050013F7F50F39C318418146854E3D4F1C
:10461000930F800293028004214E3396DE00B3F89C
:10462000C500631116039398260033131F0113432B
:10463000F3FF3377E300B318180133E7E800639F13
:10464000F70550C98506E39AC6FD18C11307F00F98
:104650006375B70454412146854E3D4F930F800248
:1046600093028004414EB398CE0033F71501639254
:10467000E8021317260001173313EF001343F3FF6B
:10468000B376D3003317E800D98E639DF701232A50
:1046900015010506E319C6FD54C18280E39457FA5B
:1046A00010C94DB7E39757FE23281501DDB708451C
:1046B0006D8D3335A000828019C20CC982804CC92F
:1046C000828013F7C50F93F73500B7050140BA95FF
:1046D00094458A073D473317F7001347F7FF758F57
:1046E00098C598453315F500598D88C58280938704
:1046F000418B94430347050089E6834725009207D1
:1047000031A8944305466391C604834725000346B8
:10471000150092076314D60093E707F8B7E600E0A8
:1047200093F7F70FBA962380F640854693575700C4
:104730003397E6005441ADC6938707048A07B7E66E
:1047400000E0B69798C382808C4389466393D50274
:1047500083461500834725006365D6008A06B69711
:1047600079BF9386E6038A06B69793F7F70F920709
:1047700065B790438D46631ED60083461500834778
:1047800025006364D6008606D9BF9386C6078606D1
:10479000E1BF94439147E39AF6F88347150085B744
:1047A0009387070661BF371702405C439146B18B80
:1047B0006385D700A1466386D706B7177A0093872B
:1047C00007201CC1371602405C4237070020130740
:1047D00007149183BD8BBA9783C607001C41B3D7DA
:1047E000D7005CC15442A1829D8ABA9683C6060056
:1047F000B3D6D70014C55442AD829D8A369703477D
:104800000700B3D7E7005CC5584239839376370079
:1048100013874180369703470700B3D7E7021CC9C7
:1048200082805C4354434167C983F98E37F7FF1F89
:104830000327C770BD8B890713161701634806004D
:10484000454601476392C702C94739A809476389AA
:10485000E7023D476388E70241476388E702454630
:1048600001476393C700C14785E6B746024083A668
:104870000680C18A8DC6B7167A009386062025A0C9
:104880000147D9B70547B547C5B70147BD47E9BF98
:10489000B7160240D4421396E600E35E06FCB71654
:1048A0003D0093860690B387D7021CC101DF1C41EF
:1048B000858301BF99C5371702405C4B5D8D48CB9E
:1048C0008280B7170240D84B1345F5FF798DC8CBCE
:1048D000828099C5371702401C4F5D8D08CF8280BA
:1048E000B7170240984F1345F5FF798D88CF828026
:1048F00099C5371702405C4F5D8D48CF8280B7174E
:104900000240D84F1345F5FF798DC8CF8280835779
:10491000050037370140930607C0C207C183630013
:10492000D504B7060040630CD502938606406308A1
:10493000D502B7160040138606806302C50293862F
:1049400006C0630ED50013070740630AE50037571A
:104950000140930607C06304D5006317E50003D741
:10496000250093F7F7F8D98F37170040630DE5005E
:10497000130707406309E50093F7F7CF03D76500F6
:10498000C207C183D98F2310F50083D745002316B2
:10499000F50283D705002314F502B73701401387CA
:1049A00007C0630EE50093870740630AF500B75719
:1049B0000140138707C06304E5006316F50083C751
:1049C00085002318F5028547231AF5008280FD57DC
:1049D0002312F50023100500231305002311050001
:1049E0002304050082808357050091C593E71700D3
:1049F0002310F5008280C207C183F99BC207C183DF
:104A0000C5BF83574500C207C18393F7F7F8C207B4
:104A1000C1832312F50083574500DD8D2312B500B5
:104A20008280EFB29FAC83560501F577FD17F58FB5
:104A300083D6650003D7C5007971D58F2318F5009B
:104A40008356C500FD779387379FF58F83D6450042
:104A50002A842EC6D58F83D68500D58F83D6A50010
:104A6000D58F2316F50083574501C207C18393F7FD
:104A7000F7CFD98F231AF5006808EFF0DFD2B747D8
:104A8000014093870780B245631DF404A257835603
:104A9000C4006547B387E702C206C186984163D464
:104AA000060406070356C4004206B3D7E7021307FD
:104AB00040064186B3D6E702B3F7E7029206635693
:104AC00006028E0793872703B3D7E70213F7770011
:104AD000B367D700C207C1832314F40045616FB0E8
:104AE0001FA392576DB70A0775BF920793872703D5
:104AF000B3D7E702BD8BD58FF1BF81C98357C500FE
:104B00000967D98F2316F50082800357C500F9770E
:104B1000FD17F98FC5BF13F7F50F85471583B395BB
:104B2000B7006319F7009307C500984301CED98DEC
:104B30008CC38280894693074501E318D7FE93070B
:104B40000501E5B793C5F5FFF98DDDB70355050000
:104B50006D8D3335A000828013F7F50F85461583E0
:104B6000B397B6006313D7020357C500F98F0357F5
:104B7000050001454207418381CB0545A181B3155D
:104B8000B5006D8F3335E000828089466315D7000C
:104B900003570501E1BF03574501C9BFA1818547FF
:104BA000B397B70093C7F7FFC207C1832310F5007F
:104BB0008280B7F700E023A207009387818B984398
:104BC000050798C373002030D30705E00111B7161D
:104BD000493F1397170006CE938686FD058363DB56
:104BE000E602B706807F6347D7005375A508F240F9
:104BF000056182802800A9200D8985476304F5029C
:104C00008947B26522656307F5020DC1E524531596
:104C1000A520F1BFD30500F00145EF00D030F240F0
:104C200005618280B2652265F124D1B70545EF00A8
:104C3000902F75BF0545EF00102F5315A52045BFD8
:104C4000D30705E0011122CC3717493F1394170011
:104C500026CA06CE4AC8130787FD0580AA84635575
:104C6000870E37D71640130737BE3E896344870443
:104C7000174700008727872A3717C93F419813072E
:104C800007FD6353F022D377F508630FE40C9747D1
:104C9000000007A7E728D3F6E7080545D3F7D708AC
:104CA00094E0D3F7E708DCE0F2406244D2444249A2
:104CB00005618280B7174943938707F863DF870C44
:104CC000B707807F635CF408135674411306A6F798
:104CD000931776011D8CD30704F017470000872631
:104CE000E725530600F0D39707C08D4653F707D04A
:104CF000D3F7E7083AE2D3F7D710D39707C053F7B3
:104D000007D0D3F7E7083AE4D3F7D710D3A7C7A063
:104D10003EE691C7D326C7A093B6160085069747EF
:104D200000009387E7290947A68548002126E35D0F
:104D300009F69860DC603305A0405317E720D3974D
:104D4000F72098E0DCE08DB7F240624488E023224F
:104D50000500D2444249014505618280D377A50808
:104D60000145DCE09CE089B79747000007A7871B57
:104D7000D3F7E7089747000007A7071BF2406244F4
:104D80004249D3F6E7080545D3F7D70894E0D3F7AF
:104D9000E708DCE0D24405618280EF00F02297470B
:104DA000000087A7E7189747000087A62718C37653
:104DB000D5789747000007A7A7169747000087A751
:104DC000E715FD47539506C0D37605D04BF5F65051
:104DD000D3F7E61063C7A7049307F5FF13972700DF
:104DE0005377F5089747000093878715BA97944340
:104DF000137704F0D30707E06309D7029CC05387F9
:104E000007F05375E5085375F508C8E0E35E09E857
:104E1000D317E7205315A5203305A0409CE0C8E038
:104E200061B55377F508D30707E013D777015D84A1
:104E30001377F70F3307E440A146E3D1E6FC974729
:104E4000000007A6270E4BF7C6509747000087A71C
:104E5000A70DE5465375E5084BF5C650C7F7F65064
:104E60005376F708D30706E013D777011377F70FC8
:104E7000198C63C6860090E05305E72049B7974731
:104E8000000007A6270B4BF5C6709747000087A7C1
:104E9000A70A5377A7084BF7C670C7F7F670537782
:104EA000F508D30707E099BFD377F5006300E40264
:104EB0009747000007A7C706D3F6E7007D55D3F74D
:104EC000D70894E0D3F7E700DCE0F9BB9747000090
:104ED00007A74705D3F7E7009747000007A7C704D0
:104EE0007D55D3F6E700D3F7D70894E0D3F7E70072
:104EF000DCE05DBB530705E0B706003293171700EF
:104F0000858363DFD706D31705C063800712D37686
:104F1000A5109747000087A7273D9747000007A5E2
:104F2000673C9747000007A0673C9747000007A62B
:104F3000273C43F5A6789747000007A7A73B97476C
:104F4000000087A7673B43F5A60043F5A66043F53D
:104F5000A670C3F7A678D3F7D710530707F0974783
:104F6000000007A5E737D375B7109747000007A7DC
:104F700027FCC7F7F658C7F7E6785375F50882801F
:104F8000D376A5109746000007A606369746000080
:104F900007A746359746000087A746359746000085
:104FA00007A0063543F7E6609746000007A586345C
:104FB0009746000007A64634B7A6993E9386969971
:104FC000C377D778C3F7D700C3F7D750C3F7D760F5
:104FD000D3F7D710E3D3F6F8B706483F63CEF6020F
:104FE000B70600FFB697538607F09746000007A55F
:104FF000262F5375C508530707F0D375B710974789
:10500000000007A7E7F247F7E660C7F7F658D3773F
:10501000F7085375F50882809747000007A5C72B4E
:105020009747000007A6872BF9B79747000007A509
:10503000272B82802171131827003ACA17470000D6
:105040001307872F4297232C811A232A911923288B
:10505000A119328432CE232E111A232A911A232821
:10506000211B2326311B2324411B2322511B2320D8
:10507000611B232E7119232C81192326B119272E88
:105080008116272C9116272A211727283117272622
:105090004117272451172722611771582EC83EC285
:1050A0002A86832C0700138DF6FF63490463930758
:1050B000D4FF93D4F7419D88BE9493D73440138B8B
:1050C00017003EC493173B003ECCA2476245F24511
:1050D0003387AC01B387A74113081700338AA54073
:1050E0003E98881863430702924513972700D30719
:1050F00000F02E9763C507001843D37707D011053A
:105100008507272EF5FEE39107FF939D2C0063C4CE
:105110000C0493182D009C1813854800939D2C00B7
:10512000BE985C0A130801113383B7013295468794
:10513000B287D30700F0634A0D00946318639107A8
:105140007117C3F7E678E39AA7FE2720F800110845
:105150009108E31E68FC9387FCFF93898DFF1399E8
:105160002700930A01027C08BE9DB3873A013EC620
:105170008A069747000087A4A71B9747000007A44B
:10518000671B9747000007A9A7159747000007ABC3
:10519000E7199747000087AA67DA9747000087A9B1
:1051A00027D9330CD6009C12B7060040E689138439
:1051B000F6FF3E99939429009C12A69707A507FB3A
:1051C000635F300333858900930E01110A057695DC
:1051D000568311A07285D377651114611103130EE4
:1051E000C5FFD39707C0D3F707D04BF7575153F5F7
:1051F000D700D31707C0232EF3FEE39DAEFC5285E4
:1052000032C05925530AA52053759510E9234B75D3
:1052100085A00246531B05C0537A0BD0537A45092B
:10522000635F400D9387F9FF8A079812BA9703A32B
:1052300007EC214533054541335EA3403315AE00ED
:105240003303A3401D453305454123A067ECB35B01
:10525000A340729B6342700DD30700F0D327FAA0DE
:1052600063890712138EF9FF634E9E01B38789008D
:105270008A07D69701478843F117498FE39DB7FF07
:1052800063160730832709EC639D072EB247054755
:10529000F117C84305076DDD938719003E8EB3886B
:1052A000E90022473305FD0022953303F70012473A
:1052B0000A038A073A93180A0A05B30EF7009C18E6
:1052C0003E9583270300530700F0D3F707D05CE136
:1052D000634D0D002A87B28719A01C637117946370
:1052E000910743F7F670E39A87FF27A0EE00050EBB
:1052F0001103910E1105E3D6C8FDC68965BD63167D
:105300000A269387F9FF8A079812BA9703A307EC36
:10531000935B8340E35270F5050B6355303D025EAD
:1053200063130E208547638EF900130F4102032E8D
:105330000F0013851700110F63190E1EAA87E3983B
:10534000A9FE635340038547630EFA368947631D00
:10535000FA009387F9FF8A079812BA9703A507EC1A
:105360001375F50323A0A7EC8947E397FBEE537A67
:105370004909E3030EEE53052921528532C0292342
:10538000537AAA08D30700F00246D327FAA0E39B7A
:1053900007ECE247724753054A213385E740ED2188
:1053A0009747000087A687B9D387A6A0638E0732E8
:1053B0009747000007A787F75377E510138E19006A
:1053C0009C1213162E00338797003E96D31707C002
:1053D000210AD3F707D0CBF6D750D39707C0D3967F
:1053E00006C02320D7EC2320F6EC53052921528553
:1053F00072C05929024E63450E1C93182E00130FDC
:105400000111B3051F0133871A01AE8697470000CB
:1054100007A7C7F111A032871C43F1161306C7FF77
:10542000D3F707D0D3F7A7105375E510DCE2E39468
:10543000EAFE1308010C428501469747000007A6C3
:10544000A7EE63C20C0497460000938666EB2E8796
:105450005307C620D30700F0814729A0634BF6000D
:1054600098629106146385071107C3F7E678E3D7BE
:10547000FCFE1CE1050611059387C5FF630FBF0005
:10548000BE85E3D20CFCD30700F005061105272EDC
:10549000F5FE9387C5FFE315BFFE5247894763C0FA
:1054A000E718C298D30700F0634AE01219C305A0B9
:1054B000BE8807A708009387C8FFD3F7E700E31962
:1054C00018FF63840B00D397F720C2479CE3832027
:1054D000C11B0324811B13757B008324411B0329FB
:1054E000011B8329C11A032A811A832A411A032B1B
:1054F000011A832BC119032C8119832C4119032D07
:105500000119832DC1180724C11787248117072982
:10551000411787290117072AC116872A8116072BE9
:10552000411639618280054581478A079812130F19
:105530000010BA97330ECF4123A0C7ED6355350352
:10554000931725003305F700032505ECD697338F15
:105550009A00130EF00F11A088433305AE4088C3A4
:105560009107E39BE7FF054EE9BBD38749A1814B38
:10557000E38407CE050B894BE34330DB537A4909BB
:10558000E1B9938719003E8EBE8821BB93172E0088
:105590009812BA9783A707EC611AE39807E49397E8
:1055A0002900E117D697F117D8437D1E611A65DFF0
:1055B00053052921528572C0C12C024EE35F0EE2D1
:1055C0005247894763CDE704D30700F06340E00208
:1055D000E31F07EEE38B0BEEFDB5BE8807A70800BF
:1055E0009387C8FFD3F7E700E31918FF0E675377D7
:1055F000F70863930B10C2479CE3635FC001D801B7
:1056000085471C63850711075377F700E35BFEFEB0
:1056100063840B005317E720C247D8E34DBD5247C0
:105620008D47E316F7EA635DC00F13172E0094123F
:10563000BA961308010C9307C7FF87A606F6C29710
:1056400011A0B6879C639386C7FF53F7D700D3F7A3
:10565000E70898E3D3F7D700D306E720DCE3E312AB
:10566000F8FE854763DEC70B93172E00941236971A
:10567000F117872607F63307F80011A036871C6359
:105680009306C7FF53F7D700D3F7E70818E3D3F71C
:10569000D700D306E7205CE3E312D8FED30700F07F
:1056A00091073E98072708007118D3F7E700E31B1E
:1056B00007FF8E661E67639A0B04C24794E3D8E324
:1056C0009CE731B59387F9FF8A079812BA9703A52B
:1056D00007EC1375F50723A0A7EC79B1A1473ECCE1
:1056E00002C4E5B2014EB1B9D31705C0981226978E
:1056F0004E8E2320F7ECD5B9D397F720C2479CE311
:10570000E34FC0EF5317E72001BFC247D396D6201F
:105710005317E720D397F72094E3D8E39CE745BBE2
:10572000D30700F079B7D30705E0B7060032139727
:10573000170005836355D700531705C049C7D387A2
:1057400007F017470000872627C0174700000720EB
:10575000E7BF53F7F710174700008727A7BE174783
:1057600000000726E7BE538507F0C377F7681747A1
:105770000000872627BE5375E510C3F7E700C3F77F
:10578000E760C3F7E76801ED174700008725C7BC4E
:10579000C377F758538707F043F5A7708280D37714
:1057A000F510173700008726A7781747000007264F
:1057B000E7BAC7F7D578C7F7E7584375C578D387F1
:1057C00007F053F5A7088280D30705E08607858395
:1057D000538507F08280D30605E0594613971600DB
:1057E000058393577701938717F8B6856341F608C9
:1057F00063C40704370880001307F8FF3357F740E6
:105800003375D700530605E00DC5174500008727FF
:1058100065B5D377F500530700F05315F7A011C90C
:1058200063D60600B357F840B385D7001346F7FF99
:105830006D8E530506F082809747000087A787B2D8
:10584000D377F500530700F0530605E0D317F7A010
:10585000EDD3530607E0E3DE06FC530605E071DBFB
:105860009747000087A7C7AF538607E0D9B7B707A8
:10587000807F530605E0E36EF7FAD377A5005386E1
:1058800007E0530506F08280530705E093171700E1
:105890008583B9C33706807F63F9C702B376C70033
:1058A0009DEE9747000087A727ACD377F510D177F7
:1058B000938707CB538707E06346F50893577741F3
:1058C00093F7F70FBA869D1729A8D377A500D3873A
:1058D00007E0538507F08280D30705E0DDBFBA8675
:1058E000DD83011106CE22E6AA971306E00F634C72
:1058F000F600634DF002295663D1C706B16793875E
:10590000073563DEA7069747000007A4A7A5530540
:105910008420D30507F08D28D3778510F2403264B8
:105920000561D38707E0538507F0828037078080C1
:105930007D17758FDE07D98FF2403264538507F0EB
:1059400005618280530707F09747000087A707A2E9
:10595000D377F710D38707E0ADBF370780807D1777
:10596000E507F98EDE07D58F538707F0174700004C
:10597000872707A0D377F710D38707E075BF97472E
:10598000000007A4A79E61B7D30705E0D38605E012
:10599000370700801346F7FFF18F758FD98F538536
:1059A00007F08280397126DA06DE22DC4AD84ED62C
:1059B00052D456D25AD05ECE62CC66CAAA84732B19
:1059C000200013D545011394C5001375F57F318070
:1059D00013DAF50179C99307F07F630DF51093DBB6
:1059E000D4010E0433E48B00B70B8000139C340009
:1059F000B36B7401930915C08144814C014993D75D
:105A000046011394C60093F7F77FB285318093DA8D
:105A1000F601A5C31307F07F6380E7041315340074
:105A20001354D601498C938717C03705800093150E
:105A30003600498CB389F9400146B3465A01BD4747
:105A4000368863E6971C174700001307A7928A045D
:105A5000BA949C40BA978287418E9389198079CEF7
:105A60009317C40093E434000D46E3C807FC414992
:105A7000E9B7B367C400CDCF63030436228532C4CF
:105A8000EF1030562246130755FFF547930585FF63
:105A9000998F3314B400B357F6005D8CB315B6007C
:105AA0004E959309353F014649BFB36B9400638B14
:105AB0000B0636C632C4630204302285EF107052E2
:105AC0002246B246AA89130755FFF54B138C89FF6E
:105AD000B38BEB4033148401B3DB7401B3EB8B0065
